:020000040800F2
:10000000B8040020390100080B140008A9130008E7
:1000100009140008F1040008791600080000000027
:100020000000000000000000000000009114000823
:10003000F3040008000000000D14000893140008E9
:100040005301000853010008530100085301000840
:100050005301000853010008530100085301000830
:100060005301000853010008530100085301000820
:100070005301000853010008530100085301000810
:100080005301000853010008530100085301000800
:1000900053010008530100085301000853010008F0
:1000A00053010008530100085301000853010008E0
:1000B00053010008530100085301000853010008D0
:1000C00053010008530100085301000853010008C0
:1000D00053010008530100085301000853010008B0
:1000E00053010008530100085301000853010008A0
:1000F00053010008000000005301000853010008EC
:10010000530100085301000853010008530100087F
:1001100053010008530100085301000800000000CB
:1001200053010008DFF80CD000F076F900480047D2
:10013000B9160008B8040020064880470648004762
:10014000FEE7FEE7FEE7FEE7FEE7FEE7FEE7FEE787
:10015000FEE7FEE7F914000825010008D2B201E02D
:1001600000F8012B491EFBD270470022F6E710B5BC
:1001700013460A4604461946FFF7F0FF204610BD15
:100180002DE9FE4F81EA030404F0004421F0004110
:1001900000944FF0000B23F0004350EA01045ED0BE
:1001A00052EA03045BD0C3F30A54C1F30A552C444A
:1001B000A4F2F3340194A0FB0254C1F3130141F4FF
:1001C0008011C3F3130343F4801301FB024400FBCB
:1001D000034E840A970A44EA815447EA8357A4FBF2
:1001E000076802958D0A05FB07854FEA932C04FBEF
:1001F0000C542705029D4FEA065847EA1637B5EB1F
:1002000008056EEB070C870E920E47EA811742EA4B
:100210008312A7FB0201B6EB0B0164EB00042B0D6C
:1002200043EA0C335E1844EB1C50DA465146E7FBB8
:100230000201C5F313044FEA0B3343EA14534FEAA8
:100240000432019C43EA0603A4F10C040294009CCE
:10025000CDE900B400F091F803B0BDE8F08F0020C4
:100260000146F9E72DE9F04D81EA030404F0004B63
:1002700021F0004514464FF0000A23F0004150EAF7
:10028000050220D054EA01021DD0C5F30A570246E8
:10029000C5F31303C1F31300C1F30A5640F48015EC
:1002A00043F48013A7EB0608101BD64608F2FD386E
:1002B00073EB050002D308F1010801E092185B41DD
:1002C000B8F1000F03DA00200146BDE8F08D0020F0
:1002D0004FF48011064684460EE0171B73EB0507AA
:1002E00005D3121B63EB050306434CEA010C4908D6
:1002F0004FEA300092185B4150EA0107EDD152EA13
:10030000030012D082EA040083EA0501084305D005
:10031000101BAB4106D20122002306E000224FF061
:10032000004302E06FF0010253101AEB06004CEBA1
:10033000085110EB0A0041EB0B01BDE8F04D00F055
:100340000DB80EB540F2334102910021CDE9001104
:100350000A460B4600F011F803B000BD10B5141E9C
:1003600073F1000408DA401C41F1000192185B416E
:100370001A4301D120F0010010BD2DE9F04D924645
:100380009B4611B1B1FA81F202E0B0FA80F220325C
:10039000904600F053F804460F4640EA0A0041EA4E
:1003A0000B0153465A46084313D0114653EA010045
:1003B00019D0C8F14002504600F04FF805460E46ED
:1003C00050465946424600F039F8084305D001200E
:1003D00004E020463946BDE8F08D0020054346EA9A
:1003E000E0762C4337430A986305E40AA0EB080043
:1003F0000022FD0A44EA47540A3002D50020014693
:10040000E9E7010510196941DDE90845001969416D
:10041000BDE8F04DA2E70000064C074D06E0E0689D
:1004200040F0010394E8070098471034AC42F6D33B
:10043000FFF77CFE7C1700089C170008202A04DBCD
:10044000203A00FA02F1002070479140C2F12003E7
:1004500020FA03F3194390407047202A04DB203A26
:1004600021FA02F00021704721FA02F3D040C2F1D4
:10047000200291400843194670470000F8B5002655
:100480000446009600680168C94349062AD5816878
:1004900041F001018160144814490068B0FBF1F09B
:1004A00000EB400000E0401E00900028FBD100F06F
:1004B0003BFB054611E000BF00F036FB401B022865
:1004C0000BD9E06C40F01000E064206D40F00100BA
:1004D000206584F848600120F8BD20680068C043AA
:1004E0004006E9D40020F8BD1C00002040420F0067
:1004F000FEE77047F8B50024009490F848202546A0
:10050000012A12D0012280F848204A681F23072AB6
:100510000DD207683E6C521E02EB820293409E434E
:100520000B6893401E433E6435E00220F8BD0D2A5F
:100530000BD20668F76BD21F02EB820293409F43F7
:100540000B6893401F43F76325E0132A0BD206681C
:10055000B76B0D3A02EB820293409F430B689340C6
:100560001F43B76317E00668192A0AD2776B133A5C
:1005700002EB820293409F430B6893401F437763D3
:1005800009E0376B193A02EB820293409F430B68F4
:1005900093401F4337630A6807230A2A0AD2066872
:1005A000776902EB420293409F438B6893401F435D
:1005B000776125E0142A0BD207683E690A3A02EBFC
:1005C000420293409E438B6893401E433E6117E076
:1005D00007681D2A0AD8FE68143A02EB42029340CB
:1005E0009E438B6893401E43FE6009E0FE6D1E3AF9
:1005F00002EB420293409E438B6893401E43FE658C
:100600000A68102A01D0112A17D10E4A13681B025A
:1006100013D4136843F400031360096810290CD144
:1006200009490A4A0968B1FBF2F101EB810149006D
:1006300000E0491E00910029FBD180F84850204677
:10064000F8BD0000042701401C00002040420F00BC
:100650000068806D70470000F8B504004FF0000599
:1006600003D0E06C002610B110E00120F8BD266533
:100670005C4884F84860016841F00101016000684D
:1006800000F001000090204600F0B6F8E06CC006D3
:100690007AD4E06C20F4885040F00200E0645248C4
:1006A0000168626821F44031114301606169E068CA
:1006B0004FF40073084394F83C2093FAA3F3B3FA81
:1006C00083F3216A9A4011430843022194F82420BD
:1006D00091FAA1F1B1FA81F102FA01F10843616BDB
:1006E000102902D0A36B19430843236819684FF4FB
:1006F0008077C943490629D5A169D4F81CC00843AD
:10070000A168D4F810E041EA0C01BE450CD0BEF15E
:10071000010F09D04FF0000C41EA0C0194F82CC0F5
:10072000BCF1010F02D00AE0BC46F5E76AB3E26C07
:1007300042F02002E264226D42F0010222655A6812
:10074000DFF8A8C002EA0C020A435A6021688A68EE
:10075000274B1A4002438A602169B94224D00129FB
:1007600022D021680A6B22F0F8720A632168896836
:10077000204A1140814227D12665E06C20F002001A
:1007800040F00100E0642AE028E0FFE74FF4604C0D
:10079000226B9CFAACFCBCFA8CFC521E02FA0CF2E6
:1007A0000A4342F40061CAE721680A6B4FF0F87708
:1007B00022F0F873A26A97FAA7F7B7FA87F7521EE2
:1007C000BA4013430B63D1E7E06C20F0020040F025
:1007D0001000E064206D40F00100206501252846EE
:1007E000F8BD00002038024004270140FF16FCFC41
:1007F00089F1FFC0FEFF80BF10B586B0044614210A
:100800006846FFF7B2FC1149206888421CD11048A5
:10081000016841F400710160006800F40070059007
:100820000B48001F016841F0010101600068694642
:1008300000F00100059001200090032001900020AD
:100840000290044800F098F806B010BD0024014062
:1008500020380240000002402DE9F04104460068C3
:100860000D4681684FF0000749050BD58068C0052B
:1008700008D5E06C40F02000E06484F84870012066
:10088000BDE8F08100F050F906460FE0681C0DD07D
:1008900025B100F049F9801BA84207D9E06C40F06F
:1008A0000400E06484F848700320E9E720680068E9
:1008B0008007EBD5A06918B921686FF012000860B5
:1008C000E06C40F40070E0642068816811F0405FE3
:1008D00014D194F8241089B9016B11F0F87F02D07B
:1008E000806840050AD4E06C20F48070E064E06C1D
:1008F000C00403D4E06C40F00100E0640020BFE7D6
:1009000010B5044690F84800012822D0012084F850
:1009100048002046FFF7B2FD00281BD1E16C40F2F1
:100920000162914341F48071E16421684A68520593
:1009300005D5E26C22F4005242F48052E264E26C8B
:10094000D3044FF0000206D5236D23F00603236580
:1009500002E0022010BD226584F848206FF02202D8
:100960000A6021688A6812F0405FF3D18A6842F019
:1009700080428A6010BD00002DE9F84FDFF880B199
:1009800000234FF0010C4FF0030A4FF00F090BF159
:10099000040EAEE00CFA03F614EA060270D04C68BE
:1009A000022C01D0122C11D1DC0800EB84073C6A28
:1009B0005D07ED0E09FA05F824EA0804D1F8108065
:1009C00008FA05F848EA0408C7F8208007685D00BF
:1009D00091F804800AFA05F408F00308A74308FA1E
:1009E00005F848EA0708C0F800804F68012F05D0D5
:1009F000022F03D0112F01D0122F11D18768D1F807
:100A00000C80A74308FA05F848EA0708C0F80880F0
:100A10004768B7430E79C6F300169E403E434660D2
:100A2000C668A6438C68AC403443C4604C68E4009C
:100A30005ED5344C256845F001052560246823F017
:100A4000030504F0010400942F4C2E19B4689D078F
:100A50002F0F09FA07F5AC432C4DA84201D1002510
:100A60001FE02B4DA84201D101251AE0294DA842D3
:100A700001D1022515E0284DA84202D1032510E03E
:100A800036E0264DA84201D104250AE0244DA842B3
:100A900001D1052505E0234DA84201D1062500E03E
:100AA0000725BD402543B560DBF800405D464E6834
:100AB0009443F60300D514432C60DEF800407546DD
:100AC0004E689443B60300D514432C600C4D083592
:100AD0002C684E689443F60200D514432C60084DF0
:100AE0000C352C684E689443B60200D514432C6034
:100AF0005B1C0A681446DA407FF44CAFBDE8F88FFF
:100B00000004014020380240000001400000024083
:100B10000004024000080240000C024000100240A5
:100B2000001402400018024001488068704700002D
:100B300010000020024881684268114481607047BB
:100B40001000002010B50024032000F06BF80020F6
:100B500000F008F808B1012401E000F025F8204673
:100B600010BD000070B50E4E05460024706898B1A7
:100B70004FF47A71B1FBF0F00A490968B1FBF0F06B
:100B800000F098FB40B9102D06D200222946501ED5
:100B900000F028F8356000E00124204670BD000018
:100BA000100000201C0000200D4808B5016841F02D
:100BB00000410160016801F000410091011F0A68D5
:100BC00042F001020A60096801F001010091016828
:100BD00041F080510160006800F08050009008BD35
:100BE00024380240F0B40E4B1B680C46C3F30223BA
:100BF000C3F10705042D00D90425191D072901D2C9
:100C0000002300E0DB1E012606FA05F1491E214003
:100C100099409E40761E16403143F0BC00F02DBD39
:100C20000CED00E0064900F0070208684FF6FF03EC
:100C3000184040EA0220034A104308607047000051
:100C40000CED00E00000FA052DE9F0470E46050026
:100C500079D0DFF88481D8F8000000F00100B042BC
:100C600014D2012E05D1D8F8001041F00401C8F8C3
:100C70000010D8F8001021F001013143C8F800102D
:100C8000D8F8000000F00100B0425CD12878534C45
:100C9000800705D52068A96820F0F000084320608F
:100CA0002878C0075CD04D496868083902281AD0F6
:100CB00003281BD0096801281BD08905002966DAA2
:100CC000216821F0030101432160FFF72DFF6968CE
:100CD000074641F28830022914D0032920D0012987
:100CE00081462AD038E009688903E7E70968890165
:100CF000E4E78907E2E700BFFFF716FFC11B49459C
:100D000001D926E081462068C0F381000228F3D192
:100D100026E000BFFFF708FFC11B494501D918E0D5
:100D200081462068C0F381000328F3D118E000BF9A
:100D3000FFF7FAFEC11B49450BD82068C0F38100BC
:100D40000128F5D10CE022E0FFF7EEFEC11B49457A
:100D500002D90320BDE8F087206810F00C0FF3D112
:100D6000D8F80010404601F00101B14211D9012E1E
:100D700003D1016841F004010160016821F0010123
:100D800031430160006800F00100B04201D0012051
:100D9000E0E72878400705D52068E96820F4E0609E
:100DA000084320602878000706D52068296920F4C8
:100DB000605040EAC100206000F038F82168084A1D
:100DC000C1F30311515CC840064908600648006839
:100DD000BDE8F047FFF7C6BE003C024008380240BD
:100DE000611700081C00002010000020044805497D
:100DF00000680968044AC1F30221515CC840704789
:100E00001C000020083802407117000804480549FA
:100E100000680968044AC1F3C221515CC8407047A8
:100E20001C0000200838024071170008134A11689E
:100E300001F00C0004280CD008280CD00C280CD091
:100E4000101F0068C0F342314FF40040491C884035
:100E500070470B4870470B4870470B48C1F38343FA
:100E60001268C05CC1F38151491CD20301D5054A07
:100E700000E0034A5043B0FBF1F0704708380240ED
:100E80000024F40000366E01581700082DE9F84FD1
:100E900004007DD0FC480168006801F00C0700F4F4
:100EA00080362078F94DC00741D0082F12D00C2F82
:100EB00002D1B6F5803F0DD06068012811D008B18D
:100EC000052818D0286820F480302860286820F48D
:100ED000802009E02868800329D560680028D8D0E0
:100EE00025E0286840F480302860606890B1FFF702
:100EF0001BFE80460AE0286840F480202860F0E766
:100F0000FFF712FEA0EB080064287BD82868800356
:100F1000F6D50CE0FFF708FE804605E0FFF704FE7B
:100F2000A0EB08006428F0D828688003F6D4207865
:100F3000DFF85CB3DFF85C8380074FF001094FF006
:100F4000000A35D5042F0AD00C2F00D13EB1E0683D
:100F5000F8B1C8F80090FFF7E7FD06460BE02868F7
:100F600080070BD5E068012812D107E0FFF7DCFD10
:100F7000801B0228C9D828688007F7D5DBF8001045
:100F8000226921F4F85141EA0221CBF800100FE068
:100F900077E1C8F800A0FFF7C7FD064605E000BFEF
:100FA000FFF7C2FD801B0228AFD828688007F7D45E
:100FB0002078C00674D53FB1A069E0B3C8F820908E
:100FC000FFF7B2FD06464AE02868800502D5A06911
:100FD000002884D0206ADBF800105E4601F46041EE
:100FE000884210D900F014FA0028BDD13068216A77
:100FF00020F4604008433060217F306861F31F6057
:1010000030600FE096E0316821F4604101433160C7
:10101000217F306861F31F603060206A00F0F8F9CA
:101020000028A1D1216A4FF4004009EB51318840DA
:101030009549096800E025E0974AC1F30311515C26
:10104000C8409649086096480068FFF78BFD002865
:101050006FD125E0FFF768FD801B02286AD8286859
:101060008005F7D5DBF80010226A21F460411143B6
:10107000CBF80010227FDBF8001062F31F61CBF881
:1010800000100DE0C8F820A0FFF74EFD064604E072
:10109000FFF74AFD801B02284CD828688005F7D44A
:1010A0002078804E000722D57F48616981B1C0F861
:1010B0000090FFF739FD834606E000BFFFF734FDDF
:1010C000A0EB0B00022835D830688007F6D50EE07B
:1010D000C0F800A0FFF728FD834605E0FFF724FDD8
:1010E000A0EB0B00022825D830688007F6D42078C2
:1010F00040076DD56B484FF0000B10380068C000FA
:101100000BD468481038016841F0805101600068D4
:101110004FF0010B00F08050009064480168C90551
:1011200014D4016841F480710160FFF7FDFC009068
:1011300008E08DE079E000BFFFF7F6FC0099401A67
:10114000642872D859480068C005F5D5A068012800
:101150000AD008B1052811D0306820F480703060C2
:10116000306820F4806002E0306840F480703060C5
:10117000A068A8B1FFF7D8FC00900DE0306840F4FB
:1011800080603060F0E700BFFFF7CEFC0099411AA5
:1011900041F2883081425AD830688005F4D50EE09B
:1011A000FFF7C2FC009007E0FFF7BEFC0099411A70
:1011B00041F2883081424AD830688005F4D4BBF1CE
:1011C000000F05D037481038016821F080510160C8
:1011D000606A58B30C2F41D00228504605D0C8F899
:1011E0006000FFF7A1FC044634E04746C8F8600001
:1011F000FFF79AFC064604E0FFF796FC801B0228E6
:1012000025D828688001F7D4D4E90A1001431E4884
:10121000226B036823F47D031A4311430160C7F86E
:101220006090FFF781FC044607E010E040E000BF5B
:10123000FFF77AFC001B022809D828688001F7D53F
:1012400036E000BFFFF770FC001B022802D9032024
:10125000BDE8F88F28688001F4D429E00128F7D090
:1012600009480068A26A00F48031914209D1E26A1B
:1012700000F47011914204D1216B00F440008842C7
:1012800016D00120E4E70000083802400038024090
:101290000438024000004742611700081C0000208B
:1012A00010000020343802408006474200700040A1
:1012B0000020CDE710B5401EB0F1807F01D30120A2
:1012C00010BD4FF0E02460610F21601700F0D5F9E8
:1012D0000020A06107202061002010BD70B504002F
:1012E00004D094F83900002510B106E0012070BD4B
:1012F00084F83850204600F023F8242084F8390080
:101300002068C16821F40051C160204600F01CF93A
:101310002068016921F4904101612068416921F050
:101320002A0141612068C16841F40051C160E56350
:10133000202084F8390084F83A00002070BD0000B5
:1013400010B586B0044614216846FEF70EFF134917
:101350002068884220D11248016841F400310160C0
:10136000006800F4003005900D480838016841F02D
:10137000010101600068694600F0010005900C2041
:10138000009002200190002002900320039007208B
:1013900004900448FFF7F0FA06B010BD0044004086
:1013A0002438024000000240FEE700003EB5002461
:1013B0001448009401941249029401604FF40031E2
:1013C00041600902C0E90214C913C0E90441846103
:1013D000C461046280F824400125856280F82C40B5
:1013E0001021C0E90D1480F83C40FFF735F90320C7
:1013F0000094CDE9015069460248FFF77BF83EBDF5
:101400000024014020000020FEE7704770470000E4
:1014100038B51C49002309681B4A11F0F00F23D18D
:1014200018491C310C68E500184C03D5216801F4FB
:10143000C0540EE00D6845F080550D600D6805F054
:101440008055009524680D6804F4C05425F080553B
:101450000D60B4F5C05F07D1B0F5404F04D11068FE
:10146000012340F004001060106820F001001843D0
:101470001060106800F00100984201D0012038BDD2
:10148000002038BD08380240003C02400070004097
:101490007047FFF74FBB000010B592B0342168468B
:1014A000FEF763FE14210DA8FEF75FFE11480168E8
:1014B00021F4C05141F4006101601220009001202C
:1014C0001021CDE903010024CDE906044FF42040AA
:1014D000CDE908046846FFF7D9FC0F20CDE90D04DB
:1014E0000F94109400210DA81194FFF7ADFB12B0DA
:1014F00010BD0000007000400F48016841F4807189
:1015000001600D4908310A680C4B1A400A600268F4
:101510000B4B1A400260026822F4802202600868C5
:1015200020F47D0008600020091D086005494FF087
:101530000060086070470000003802400CC0FF885F
:10154000FEFFFEEE08ED00E02DE9F04104460068E4
:101550000169E26821F44051114301612169A068E9
:10156000E26908436169114322680843D16849F27E
:101570000C6399430143D16020684169A26921F459
:10158000407111434161E16964253226B1F5004F94
:101590003848216804D081423DD1FFF737FC3CE058
:1015A000814202D1FFF732FC01E0FFF71FFC00EBA4
:1015B000C00101EB001160686FF0180C4000B1FB36
:1015C000F0F3B3FBF5F3B1FBF0F7B1FBF0F203FB83
:1015D0000CF307EB830306EBC303B2FBF5F2B3FB9B
:1015E000F5F3120103F0F80302EB4302B1FBF0F351
:1015F000B1FBF0F0B0FBF5F000FB0CF003EB80006A
:1016000006EBC000B0FBF5F000F0070021681044C5
:101610008860BDE8F081FFF7E9FB00EBC00101EB5A
:10162000001160686FF018078000B1FBF0F2B2FBA8
:10163000F5F2B1FBF0F37A4303EB8202B1FBF0F376
:1016400006EB0212B2FBF5F2B3FBF5F302F0F00287
:1016500002EB0312B1FBF0F3B1FBF0F0B0FBF5F0DD
:10166000784303EB800006EB0010B0FBF5F000F0D0
:101670000F00CBE700380140FEE70907090E0028FC
:1016800004DB00F1E02080F80014704700F00F0048
:1016900000F1E02080F8141D704702E008C8121F16
:1016A00008C1002AFAD170477047002001E001C14B
:1016B000121F002AFBD1704708B5FFF743FAFFF766
:1016C000EBFE1F48016841F001010160006800F075
:1016D00001000090FFF76AFE1B481A490C220160C6
:1016E0004FF4E131416000218160C160C0E9041222
:1016F0008161C161FFF7F2FD144C154E154F4FF09B
:10170000663511485438FFF7FBF80F480521543867
:10171000FFF7A2F808B1206804E00B485438FEF740
:1017200097FF2060FEF70DFE2A463346FEF728FDA0
:1017300000223B46FEF796FDC4E90201E1E7000006
:101740001C380240004400407400002000000020CB
:1017500066660A4000E06F40030406080C1018207B
:10176000300000000000000000010203040607082A
:101770000900000000010203040000009C1700089B
:1017800000000020200000009A160008BC17000886
:101790002000002098040000AA16000800000000A5
:1017A0000000000000000000000000001000000029
:0C17B000010000000000000068FF1F00A6
:0400000508000125C9
:00000001FF
