:020000040800F2
:100000002006002039010008FF3F0008B53900082C
:10001000FD3F0008511000084149000800000000A1
:100020000000000000000000000000002543000860
:100030003D11000800000000C1410008D143000844
:10004000530100085301000853010008DD42000875
:100050005301000853010008530100085301000830
:100060005301000853010008530100085301000820
:100070005301000853010008530100085301000810
:100080005301000853010008530100085301000800
:1000900053010008530100085301000853010008F0
:1000A00053010008530100089D4400085301000853
:1000B00053010008530100085301000853010008D0
:1000C00053010008530100085301000853010008C0
:1000D00053010008530100085301000853010008B0
:1000E000951100085301000853010008530100084E
:1000F00053010008000000005301000853010008EC
:10010000530100085301000853010008530100087F
:1001100053010008530100085301000800000000CB
:1001200053010008DFF80CD000F0C6FB0048004780
:100130004552000820060020064880470648004730
:10014000FEE7FEE7FEE7FEE7FEE7FEE7FEE7FEE787
:10015000FEE7FEE74D440008250100082DE9F05FA9
:100160000546002092469B46884606468146402426
:100170001BE0284641464746224600F0E6FA534631
:100180005A46C01A914110D311461846224600F033
:10019000CDFA2D1A67EB01084F46224601200021B7
:1001A00000F0C4FA17EB00094E41201EA4F101042F
:1001B000DFDC484631462A464346BDE8F09FD2B2CE
:1001C00001E000F8012B491EFBD270470022F6E740
:1001D00010B513460A4604461946FFF7F0FF2046BD
:1001E00010BD421C10F8011B0029FBD1801A70477A
:1001F000F0B480EA0102D40F4200B2EB410F02D208
:100200000246084611464A0042D0C30DDDB2C1F392
:10021000C752AD1A202D35DAC1F3160141F40002A0
:1002200004B15242C5F1200602FA06F12A411044F7
:10023000B3EBD05F23D0C4B1012DA0EBC35009DCD8
:10024000F0BC4FF0004202EAC352DBB200F50000FE
:1002500000F0A6BA400000F1807000EBC350A0F19E
:10026000807040EAD170490009E0490841EAC07154
:10027000A0EBC35000F50000400800EBC350F0BCF9
:1002800000F085BA6142012202EB4101001BF6E752
:10029000F0BC704781F00041AAE780F00040A7E77A
:1002A000420005D0C0F3C7525242914201DC002007
:1002B000704700EBC15070472DE9FE4F804681EA40
:1002C0000300C00F0C46009021F0004123F00045D0
:1002D000B8EB0200A94105D24046214690461C4693
:1002E0000B46024623F00040104347D0270DC7F3CA
:1002F0000A00C3F30A510290401A019040286BDAB9
:10030000C3F3130040F4801B0098924620B10023F1
:10031000D2EB030A63EB0B0B01985946C0F1400284
:10032000504600F003FA06460D4650465946019ADB
:1003300000F01BFA10EB08006141002487EA11521B
:1003400084EAE7731A4340D0009A62B3019A012A03
:100350004FEA075215DC001B61EB02014FF000422F
:1003600002EA0752CDE90042001C41F580113246F5
:100370002B4600F052FA03B0BDE8F08F404621460C
:10038000F9E7001B61EB0201001C41F58013001826
:100390005B412018A2F5001747EB030140EAD57036
:1003A000B6196D4111E06D084FEA360645EAC07591
:1003B0004FEA0752001B61EB0201001C41F580115E
:1003C00049084FEA30000019514132462B4603B02C
:1003D000BDE8F04F00F012BA00980122400000235F
:1003E000D0EB020263EBE073009821464FEAE07421
:1003F000B8EB000061EB0401E9E783F000435BE741
:1004000081F0004158E72DE9FE4F81EA030404F032
:10041000004421F0004100944FF0000B23F0004312
:1004200050EA01045ED052EA03045BD0C3F30A54DD
:10043000C1F30A552C44A4F2F3340194A0FB0254F6
:10044000C1F3130141F48011C3F3130343F4801388
:1004500001FB024400FB034E840A970A44EA8154DC
:1004600047EA8357A4FB076802958D0A05FB0785B9
:100470004FEA932C04FB0C542705029D4FEA0658C3
:1004800047EA1637B5EB08056EEB070C870E920EA0
:1004900047EA811742EA8312A7FB0201B6EB0B0180
:1004A00064EB00042B0D43EA0C335E1844EB1C5044
:1004B000DA465146E7FB0201C5F313044FEA0B335A
:1004C00043EA14534FEA0432019C43EA0603A4F1C1
:1004D0000C040294009CCDE900B400F09EF903B036
:1004E000BDE8F08F00200146F9E72DE9F04D81EAE3
:1004F000030404F0004B21F0004514464FF0000ABD
:1005000023F0004150EA050220D054EA01021DD038
:10051000C5F30A570246C5F31303C1F31300C1F331
:100520000A5640F4801543F48013A7EB0608101B0D
:10053000D64608F2FD3873EB050002D308F1010836
:1005400001E092185B41B8F1000F03DA0020014688
:10055000BDE8F08D00204FF48011064684460EE081
:10056000171B73EB050705D3121B63EB050306434B
:100570004CEA010C49084FEA300092185B4150EAFE
:100580000107EDD152EA030012D082EA040083EAA7
:100590000501084305D0101BAB4106D20122002300
:1005A00006E000224FF0004302E06FF0010253101A
:1005B0001AEB06004CEB085110EB0A0041EB0B0163
:1005C000BDE8F04D00F01AB970B521F000430343C7
:1005D0000CD0C1F30A550024D5EB040564EB0403E9
:1005E000D617AD1AB34102DB0020014670BD2018BA
:1005F00041EB025170BD0EB540F233410291002132
:10060000CDE900110A460B4600F007F903B000BD22
:10061000C1F30A5210B5C1F3130140F2FF3341F4A4
:1006200080119A4201DA002010BD40F233439A4211
:10063000A2F2334203DC524200F087F810BD904032
:1006400010BDC1F30A52C1F3130140F2FF3341F46C
:1006500080119A4202DA00200146704740F233438B
:100660009A42A2F2334202DC524200F06EB800F02D
:100670005DB800F0004230F000400AD0C10D01F535
:100680006071C0F3160042EA0151C20840071143ED
:10069000704700200146704730B5041E71F1000418
:1006A00004DB4FF00044404264EB0101141E73F17F
:1006B000000405DB1C464FF00043524263EB040389
:1006C000994208BF904230BD01F0004330B421F0A0
:1006D000004150EA010206D00A0DA2F56072C1F392
:1006E0001301002A02DC30BC00207047440F44EAAA
:1006F000C104C100E01830BC00EBC25000F047B8A4
:1007000030B50B46014600202022012409E021FAE1
:1007100002F59D4205D303FA02F5491B04FA02F5DE
:100720002844151EA2F10102F1DC30BD202A04DBB1
:10073000203A00FA02F1002070479140C2F12003F4
:1007400020FA03F3194390407047202A04DB203A33
:1007500021FA02F00021704721FA02F3D040C2F1E1
:1007600020029140084319467047202A06DBCB1728
:10077000203A41FA02F043EAE07306E041FA02F35C
:10078000D040C2F120029140084319467047002929
:10079000A8BF7047401C490008BF20F00100704707
:1007A00010B4B0FA80FC00FA0CF050EA010404BF67
:1007B00010BC704749B1CCF1200421FA04F411FABD
:1007C0000CF118BF012121430843A3EB0C01CB1D01
:1007D0004FEA00614FEA102042BF002010BC704772
:1007E00000EBC35010440029A4BF10BC7047401C4C
:1007F000490008BF20F0010010BC704710B5141E5E
:1008000073F1000408DA401C41F1000192185B41C9
:100810001A4301D120F0010010BD2DE9F04D9246A0
:100820009B4611B1B1FA81F202E0B0FA80F22032B7
:100830009046FFF77BFF04460F4640EA0A0041EA74
:100840000B0153465A46084313D0114653EA0100A0
:1008500019D0C8F140025046FFF777FF05460E4613
:10086000504659464246FFF761FF084305D0012034
:1008700004E020463946BDE8F08D0020054346EAF5
:10088000E0762C4337430A986305E40AA0EB08009E
:100890000022FD0A44EA47540A3002D500200146EE
:1008A000E9E7010510196941DDE9084500196941C9
:1008B000BDE8F04DA2E70000064C074D06E0E068F9
:1008C00040F0010394E8070098471034AC42F6D397
:1008D000FFF72CFCD8540008F854000870B5044603
:1008E00000680168C94349061CD4816821F00101F0
:1008F000816001F013FA05460FE000BF01F00EFA27
:10090000401B022809D9E06C40F01000E064206D23
:1009100040F001002065012070BD20680068C043E0
:100920004006EBD5002070BDF8B5002604460096C1
:1009300000680168C94349062AD5816841F0010170
:100940008160144814490068B0FBF1F000EB4000EE
:1009500000E0401E00900028FBD101F0DFF90546C1
:1009600011E000BF01F0DAF9401B02280BD9E06C5E
:1009700040F01000E064206D40F00100206584F834
:1009800048600120F8BD20680068C0434006E9D4F3
:100990000020F8BD6000002040420F0010B5FFF7B6
:1009A0002AFE4FF066320D4BFFF72DFD00220C4B57
:1009B000FFF79BFDFFF788FE0A4948604868FFF78C
:1009C00058FE094A094BFFF71EFD094A094BFFF77C
:1009D00014FDBDE81040FFF777BE000066660A40D0
:1009E00000FEAF40340000202F015361C73C4A4055
:1009F000297C32D6692B41402DE9F04F91B000F0AF
:100A0000B5FA05464FF0000AFE4CCDF81CA0DFF801
:100A1000F8832078FD4F6FF00B090B9058B1012837
:100A200073D002286FD003286ED000F0E1FB20784D
:100A300011B0BDE8F08FA068FFF7DDFD4FF0663222
:100A40004346FFF7E0FC4E464A46FFF7BDFD8146B0
:100A50008A46A068FFF7CFFD4FF066324346FFF7A6
:100A6000D2FC3246FFF7B0FD834606912069FFF7BE
:100A7000C2FD4FF066324346FFF7C5FC3246FFF732
:100A8000A3FD029000200646804605912846FFF708
:100A9000F0FDCDE90C9A0246E068069B0A90CDE98C
:100AA00008B3A0680690029804902069CDF80080F1
:100AB000CDE901600B46D6480B9904F083FCBD429A
:100AC00007D9D44800F09EFAA168884201D90120D4
:100AD00012E0BD4207D2D04800F094FAA1688842E3
:100AE00001D2022008E0BD4207D2CB4800F08AFACA
:100AF000A168884201D3032020704FF47A7000F07F
:100B00002BFF94E701E0AAE056E12946BF48FFF732
:100B1000C1FB079000F076FAA060A068FFF76BFDBC
:100B20004FF06632B84BFFF76EFC6FF00B02FFF729
:100B30004BFD07468B46A068FFF75DFD4FF0663220
:100B4000B14BFFF760FC6FF00B02FFF73DFD8046F5
:100B500089462069FFF74FFD4FF06632AA4BFFF739
:100B600052FC6FF00B02FFF72FFD029004910798E3
:100B7000FFF77FFD064628460191FFF77AFDCDE994
:100B80000C7BE268CDF82080CDE90992A26806923C
:100B9000049B029ACDE90423226902920096024640
:100BA0000B4621789A4804F00DFC00F0F1F94FF45F
:100BB0007A7000F0D1FE00F0D9F90390A068FFF739
:100BC0001AFD4FF06632904BFFF71DFC6FF00B02E1
:100BD000FFF7FAFC80468946A068FFF70CFD4FF04E
:100BE0006632894BFFF70FFC6FF00B02FFF7ECFC4E
:100BF00006460F462069FFF7FEFC4FF06632824B37
:100C0000FFF701FC6FF00B02FFF7DEFC02900D46D0
:100C10000798FFF72EFD10908B460398FFF729FDEC
:100C20000246CDE90C89E0680B460896CDE90970CB
:100C3000A06806900298CDE90405206902901098FA
:100C4000CDE9000B2178754804F0BCFB6F4903988F
:100C500088427CD96F4800F0D5F9A16862E1294645
:100C60006A48FFF717FB079000F0CCF9A060A06876
:100C7000FFF7C1FC4FF06632634BFFF7C4FB6FF028
:100C80000B02FFF7A1FC81468B46A068FFF7B3FC7F
:100C90004FF066325C4BFFF7B6FB6FF00B02FFF7CD
:100CA00093FC064688462069FFF7A5FC4FF06632A4
:100CB000554BFFF7A8FB6FF00B02FFF785FC029086
:100CC00004910798FFF7D5FC00900F462846FFF7E0
:100CD000D0FCCDE90C9BE2680896CDE90982A268B8
:100CE0000692049B029ACDE9042322690B46CDE9C2
:100CF000017202462178464804F064FB00F048F98E
:100D00004FF47A7000F028FE00F030F90390A068EC
:100D1000FFF771FC4FF066323B4BFFF774FB6FF04F
:100D20000B02FFF751FC06468946A068FFF763FCFB
:100D30004FF06632344BFFF766FB6FF00B02FFF7A4
:100D400043FC074688462069FFF755FC00E0A7E012
:100D50004FF066322C4BFFF756FB6FF00B02FFF79C
:100D600033FC83460D460798FFF783FCCDE900016D
:100D70000398FFF77EFCCDE90C690246E0680B465C
:100D80000897CDE90980A068CDF810B0CDE90550ED
:100D9000206902902178214804F014FB1B49039834
:100DA00088427DD21C4800F02DF9A1688842FFF4EA
:100DB000A8AE032020703AE629461448FFF76AFAE5
:100DC000079000F0F9F8E060A068FFF714FC4FF01E
:100DD00066320D4BFFF717FB6FF00B02FFF7F4FBCA
:100DE00080468946A068FFF706FC4FF06632064B46
:100DF000FFF709FB6FF00B02FFF7E6FB06460F4615
:100E000020690DE03400002066660A400000F0C151
:100E10001C540008000048420000A0C1745400089F
:100E2000FFF7E9FB4FF06632414BFFF7ECFA6FF04A
:100E30000B02FFF7C9FB029004910798FFF719FC1A
:100E400000908B462846FFF714FC0246CDE90C893A
:100E5000E0680896CDE90970A0680690049B0298A6
:100E6000CDE9040320690B46CDE901B02178314872
:100E700004F0A8FA00F08CF84FF47A7000F06CFDE2
:100E800000F074F80390A068FFF7B5FB4FF06632EE
:100E9000274BFFF7B8FA6FF00B02FFF795FB00E066
:100EA00043E006468846A068FFF7A5FB4FF0663290
:100EB0001F4BFFF7A8FA6FF00B02FFF785FB834685
:100EC0000D462069FFF797FB4FF06632184BFFF78E
:100ED0009AFA6FF00B02FFF777FB049089460798A8
:100EE000FFF7C7FB074601910398FFF7C2FBCDE967
:100EF0000C680246E0680B46CDF820B0CDE90950F9
:100F0000A068CDE9059020690290009721780A48F1
:100F100004F058FA09490398884206D2084800F0BC
:100F20004BF8E16888423FF6ECAD84F800A07EE51E
:100F300066660A401C540008745400080000F0C1A2
:100F4000000060C010B5064800F036F8054CE060BF
:100F5000054800F057F8A060BDE8104000F018B850
:100F60000000A0C1340000200000484210B506482F
:100F700000F044FC044800F02BFB044908610869B8
:100F8000BDE81040FFF70ABD6800002034000020D3
:100F900010B5074CE36800221021064800F0CEFC93
:100FA000A3680022BDE810401146024800F0C6BC0C
:100FB00034000020BC00002010B5FFF75AFB0C4A9B
:100FC0000C4BFFF720FA0C4A0C4BFFF775F9FFF7B3
:100FD0007BFB0C21FFF764F9FFF74BFB4FF0663208
:100FE000074BFFF782FABDE81040FFF711BB000086
:100FF000BF04A1CE725F9E3FAF01F38B70590440D6
:1010000066660A4010B5FFF734FB0C4A0C4BFFF73D
:10101000FAF90C4A0C4BFFF74FF9FFF755FB0C217F
:10102000FFF73EF9FFF725FB4FF06632074BFFF75E
:101030005CFABDE81040FFF7EBBA00004AA5055383
:10104000C082873FBD29590C2677F13F66660A406A
:10105000FEE7FFB583B0074600200A25CDE9005022
:101060001E461446012304AA3146384601F00AF808
:10107000022301AA31463846009500F011FF20787E
:101080009DF8041008434FF6FF7101EA002020800C
:101090009DF805100843208007B0F0BDFEB5074657
:1010A0000E46052000F058FC44F63F74ADF80040B1
:1010B00033466A460021384600F02DF8052000F03E
:1010C0004BFC40F22155ADF8005033466A460521ED
:1010D000384600F020F80A2000F03EFC0020ADF871
:1010E0000400ADF808000146334601AA3846FFF770
:1010F000B0FF334602AA05213846FFF7AAFFBDF824
:101100000400A04205D1BDF80800A84201D1012089
:10111000FEBD0020FEBD1CB51C468DF804101188D4
:101120000323090A8DF8051011788DF806100A219D
:10113000009101AA214600F0A5FF1CBD70470000E8
:101140001148417809B1012070470178012919D16E
:10115000C2780E49022A01D02AB10EE042688A42C2
:101160000BDB052070470A4B42689A4201DD0220E2
:1011700070478A4201DB032070474068884201DAE9
:101180000420704700207047000000209A995940C1
:10119000666666404FF4806000F0D6BC1148417826
:1011A00009B101207047817809B106207047C278E3
:1011B0000D49022A01D022B10DE042688A420FDABD
:1011C00009E00A4B42689A4201DD022070478A42D8
:1011D00001DB032070474068884201DA0420704731
:1011E00005207047000000209A99594066666640C5
:1011F000704700007CB500240546ADF800406A4603
:10120000214600F07DF8BDF80000800775D56A46DC
:101210003D21284600F074F8BDF80000C007F6D163
:10122000364ABA211646284600F06AF89020ADF8F2
:10123000040001AA6021284600F086F8ADF80440B9
:1012400001AABA21284600F07FF801AA60212846A9
:1012500000F07AF8294A1821083A284600F074F874
:10126000264C3A21083CA21C284600F06DF8A21D2D
:101270001E21284600F068F804F10E021D212846C0
:1012800000F062F804F11002BB21284600F05CF87F
:1012900004F10A024521284600F056F804F10C0238
:1012A0004621284600F050F8221DDB21284600F098
:1012B0004BF86A46DB21284600F022F8BDF8000012
:1012C0000004F6D43246BA21284600F03DF80BE07F
:1012D00020F00200ADF800006A460021284600F028
:1012E00033F8012000F038FB6A460021284600F060
:1012F00007F8BDF800008107EAD47CBD2800002073
:1013000077B583B0064600200A25CDE90050144683
:10131000012304AA6C21304600F0B4FE022301AA86
:101320006C213046009500F0BBFD20789DF805103B
:1013300008434FF6FF7101EA002020809DF8041059
:101340000843208006B070BD1CB503238DF804103F
:1013500011788DF80510118801AA090A8DF8061078
:101360000A2100916C2100F08DFE1CBDF8B500240F
:10137000009490F848202546012A12D0012280F8D6
:1013800048204A681F23072A0DD207683E6C521E68
:1013900002EB820293409E430B6893401E433E64DF
:1013A00035E00220F8BD0D2A0BD20668F76BD21F7C
:1013B00002EB820293409F430B6893401F43F76305
:1013C00025E0132A0BD20668B76B0D3A02EB8202B6
:1013D00093409F430B6893401F43B76317E0066831
:1013E000192A0AD2776B133A02EB820293409F4389
:1013F0000B6893401F43776309E0376B193A02EBA0
:10140000820293409F430B6893401F4337630A68EF
:1014100007230A2A0AD20668776902EB4202934040
:101420009F438B6893401F43776125E0142A0BD2BA
:1014300007683E690A3A02EB420293409E438B687A
:1014400093401E433E6117E007681D2A0AD8FE68D4
:10145000143A02EB420293409E438B6893401E4332
:10146000FE6009E0FE6D1E3A02EB420293409E438D
:101470008B6893401E43FE650A68102A01D0112A2A
:1014800017D10E4A13681B0213D4136843F40003E8
:101490001360096810290CD109490A4A0968B1FB8F
:1014A000F2F101EB8101490000E0491E00910029A1
:1014B000FBD180F848502046F8BD000004270140C9
:1014C0006000002040420F0070B504000BD0E06CBB
:1014D00040F00200E0642046FFF700FA06004FF0FB
:1014E000000502D069E0012070BD21686FF01F0087
:1014F000086020684168334A114041602068816873
:10150000314A114081602068C16D21F03F01C16501
:101510002068C16801F04041C1602068016901F0A4
:10152000404101612068416901F04041416120680A
:1015300081696FF30B0181612068C1696FF30B0151
:10154000C1612068016A6FF30B0101622068416A82
:101550006FF30B0141622068816A6FF30B018162B6
:101560002068C16A6FF30B01C1622068016B01F052
:101570007E4101632068416B01F040414163206876
:10158000816B01F0404181632068C16B01F04041F3
:10159000C1632068016C01F0404101642068416C26
:1015A0006FF3150141640948016821F400010160ED
:1015B000204600F0DFF82565E56484F848503046A1
:1015C00070BD000000003CF888F0808004270140D6
:1015D0000068806D70470000F8B504004FF000050A
:1015E00003D0E06C002610B110E00120F8BD2665A4
:1015F0005B4884F84860016841F0010101600068BF
:1016000000F001000090204600F0C8F8E06CC00631
:1016100078D4E06C20F4885040F00200E064514837
:101620000168626821F44031114301606169E0683A
:101630004FF40073084393FAA3F3E26BB3FA83F316
:10164000216A9A4011430843022191FAA1F1626A8A
:10165000B1FA81F102FA01F10843616B102902D05D
:10166000A36B19430843236819684FF48077C94373
:10167000490629D5A169D4F81CC00843A168D4F84B
:1016800010E041EA0C01BE450CD0BEF1010F09D0BB
:101690004FF0000C41EA0C01D4F82CC0BCF1010F52
:1016A00002D00AE0BC46F5E76AB3E26C42F02002E1
:1016B000E264226D42F0010222655A68DFF8A8C098
:1016C00002EA0C020A435A6021688A68274B1A40D2
:1016D00002438A602169B94224D0012922D02168BD
:1016E0000A6B22F0F8720A6321688968204A114067
:1016F000814227D12665E06C20F0020040F0010015
:10170000E0642AE028E0FFE74FF4604C226B9CFA8B
:10171000ACFCBCFA8CFC521E02FA0CF20A4342F4F6
:101720000061CAE721680A6B4FF0F87722F0F8737E
:10173000A26A97FAA7F7B7FA87F7521EBA4013437F
:101740000B63D1E7E06C20F0020040F01000E06491
:10175000206D40F00100206501252846F8BD0000FD
:101760002038024004270140FF16FCFC89F1FFC02D
:10177000FEFF80BF00680649884208D1054801681D
:1017800021F4007101600121034800F031B9704774
:1017900000240140203802400008024010B586B005
:1017A000044614216846FEF711FD1149206888425D
:1017B0001CD11048016841F400710160006800F418
:1017C000007005900B48001F016841F004010160A2
:1017D0000068694600F00400059001200090032095
:1017E000019000200290044800F0BAF906B010BD44
:1017F00000240140203802400008024010B5044691
:1018000090F84800012822D0012084F848002046A2
:10181000FFF78AF800281BD1E16C40F20162914386
:1018200041F48071E16421684A68520505D5E26C93
:1018300022F4005242F48052E264E26CD3044FF08E
:10184000000206D5236D23F00603236502E0022083
:1018500010BD226584F848206FF022020A602168DA
:101860008A6812F0405FF3D18A6842F080428A6051
:1018700010BD70B54379012B1AD0012444710223A5
:101880000371D1E9003105680B43296840F6FE7603
:101890009640B14393401943296001680B68C02505
:1018A0009540AB430B60047100214171084670BD47
:1018B000022070BD70B5040003D02079002510B15E
:1018C00005E0012070BD6571204600F007F8022098
:1018D0002071256101202071002070BD10B586B0F7
:1018E000044614216846FEF771FC114920688842BD
:1018F0001CD11048016841F000510160006800F0FF
:10190000005005900B480838016841F00101016062
:101910000068694600F00100059030200090032027
:10192000019000200290044800F01AF906B010BDA2
:1019300000740040243802400000024018B50468DA
:1019400000940068104421B114300090036000201E
:1019500018BD0830F9E7000001B582B040F6081163
:101960000298002248434FF47A71B0FBF1F11D4810
:1019700001F078FB1C48016841F08051016000686B
:1019800000F08050009000F023FD00F015FD154898
:10199000C838FFF799FD1348B03001F00FFF114828
:1019A000203001F061FD0F48603800F0BDF90F49AB
:1019B0004FF0FF3008600121084600F02DFD02F0D5
:1019C00009FD084801F010FB02F0EAFA02F002FB00
:1019D00002F092FA02F0E6F9BDE80E400148C8387C
:1019E000FFF70CBF300100202438024014040140EE
:1019F0002DE9F04F002301270F24DFF818A182E022
:101A000007FA03F616EA01027CD005684FEA43089C
:101A10004FF0030C0CFA08FC25EA0C050560DD0804
:101A200000EB8508C346D8F820905D074FEAD568DB
:101A300004FA08F529EA0509CBF82090856825EA1B
:101A40000C0585604568B5434560C56825EA0C0509
:101A5000C56023F0030606EB0A05D5F808C09E070B
:101A6000360F04FA06F909EA0C08DFF8ACC0604545
:101A700002D14FF0000C2BE0DFF8A0C0604502D18E
:101A80004FF0010C24E0DFF898C0604502D14FF020
:101A9000020C1DE0DFF88CC0604502D14FF0030C52
:101AA00016E0DFF884C0604502D14FF0040C0FE06F
:101AB000DFF878C0604502D14FF0050C08E0DFF890
:101AC00070C0604502D14FF0060C01E04FF0070CEA
:101AD0000CFA06FCC44515D1D5F808C02CEA090C4F
:101AE000C5F808C0134D2E6896432E602D1D2E6834
:101AF00096432E602D1D2E6896432E602D1D2E6858
:101B000096432E605B1C31FA03F27FF479AFBDE897
:101B1000F08F00000000014000000240000402407D
:101B200000080240000C0240001002400014024075
:101B30000018024000040140082802D10149012098
:101B4000087070475C000020044910B50A68024222
:101B500002D00860FFF7F0FF10BD00001404014040
:101B60002DE9F84FDFF880B100234FF0010C4FF062
:101B7000030A4FF00F090BF1040EAEE00CFA03F666
:101B800014EA060270D04C68022C01D0122C11D13C
:101B9000DC0800EB84073C6A5D07ED0E09FA05F8E6
:101BA00024EA0804D1F8108008FA05F848EA040885
:101BB000C7F8208007685D0091F804800AFA05F4F0
:101BC00008F00308A74308FA05F848EA0708C0F830
:101BD00000804F68012F05D0022F03D0112F01D0B4
:101BE000122F11D18768D1F80C80A74308FA05F8A5
:101BF00048EA0708C0F808804768B7430E79C6F37B
:101C000000169E403E434660C668A6438C68AC40C2
:101C10003443C4604C68E4005ED5344C256845F01C
:101C200001052560246823F0030504F001040094F5
:101C30002F4C2E19B4689D072F0F09FA07F5AC43F6
:101C40002C4DA84201D100251FE02B4DA84201D107
:101C500001251AE0294DA84201D1022515E0284DA1
:101C6000A84202D1032510E036E0264DA84201D15A
:101C700004250AE0244DA84201D1052505E0234DA5
:101C8000A84201D1062500E00725BD402543B560E7
:101C9000DBF800405D464E689443F60300D51443DC
:101CA0002C60DEF8004075464E689443B60300D5BC
:101CB00014432C600C4D08352C684E689443F60292
:101CC00000D514432C60084D0C352C684E689443A5
:101CD000B60200D514432C605B1C0A681446DA4037
:101CE0007FF44CAFBDE8F88F00040140203802407B
:101CF00000000140000002400004024000080240D1
:101D0000000C024000100240001402400018024083
:101D10000AB1816170470904FBE7000001480068CF
:101D2000704700006400002010B5040013D0242088
:101D300084F83D002068016821F00101016020461F
:101D400000F03AFA0020206484F83D0044F8300F97
:101D5000A073207310BD012010BD000070B50400F9
:101D60000DD094F83D00002520B984F83C50204661
:101D700000F038FA00F01AFD4649884201D20120ED
:101D800070BD242184F83D1021680A6822F0010208
:101D90000A6041492268B0FBF1F1536823F03F0328
:101DA0000B4353603D4A6368934206D94FF49673E0
:101DB00059434FF47A73B1FBF3F12368491C1E6A4F
:101DC00026F03F0631431962616891420BD8490001
:101DD000B0FBF1F2C2F30B02042A01D2042019E095
:101DE000B0FBF1F016E0A368F3B301EBC10202EB24
:101DF0000112B0FBF2F242F48042120543D0A3B3C9
:101E000001EBC10202EB0111B0FBF1F040F48040A4
:101E100040F400402168CA694CF6FF739A431043AE
:101E2000C861D4E90701084321680A6822F0C002AA
:101E300010430860D4E90310084321688A6848F217
:101E4000FF339A4310438860D4E9050108432168B1
:101E5000CA6822F0FF021043C8602068016841F0A0
:101E600001010160256401E008E00EE0202084F813
:101E70003D00256384F83E50002070BD01EB410217
:101E8000B0FBF2F2B9E70120C4E701EB4101B0FB7E
:101E9000F1F0BDE780841E0040420F00A0860100E3
:101EA0002DE9F84F1F4690468A460446DDF82890F3
:101EB000FFF734FF054694F83D00202870D1192320
:101EC00001224FF002112046009501F06CFE00281F
:101ED000F4D194F83C00012862D0012084F83C0041
:101EE00020680168C90703D1016841F00101016060
:101EF0002068016821F400610160222084F83D001F
:101F0000102084F83E0000262664C4F824806785EB
:101F10005A48E062608D20852B464A46514620464D
:101F200001F05DFD28B1206C84F83C60042841D0AC
:101F30004DE0208D524F68B1012814D0022820684E
:101F4000016816D041F480610160206841698069B0
:101F5000009085E02068416981690091016841F441
:101F6000007101607CE02068016821F480610160FB
:101F7000F0E721F4806101602068016841F40061AC
:101F8000E2E7032849D801280BD0022817D04B4696
:101F9000002239462046009501F005FEB8B92AE036
:101FA0006AE02A464946204601F072FE28B1206CBC
:101FB00020280CD00120BDE8F88F206845E04B4672
:101FC000002239462046009501F0EDFD08B10320BE
:101FD000F1E72068016841F400710160206801693F
:101FE000606A421C62620170208D401E2085608DF7
:101FF000401E6085E1E72068016821F4806101608E
:1020000020680169606A421C62620170208D401E76
:102010002085608D401E6085D1E72A4649462046CE
:1020200001F036FE0028C2D120680269606A411CB6
:1020300061620270208D401E2085608D401E60858B
:1020400020684169C94349070AD40169606A421C92
:1020500062620170208D401E2085608D401E60856B
:10206000208D00288DD1202084F83D0084F83E602A
:1020700084F83C6000209EE702209CE70000FFFF00
:10208000040001002DE9F84F1F4690468A46044699
:10209000DDF82890FFF742FE064694F83D00202820
:1020A0007ED1192301224FF002112046009601F043
:1020B0007AFD00287CD194F83C00012878D00120DA
:1020C00084F83C0020680168C90703D1016841F029
:1020D000010101602068016821F400610160212094
:1020E00084F83D00102084F83E0000252564C4F8E3
:1020F000248067852F48E062608D208533464A46FC
:102100005146204601F0DCFC28B1206C84F83C509C
:1021100004284BD00DE020684169806900902FE0D1
:1021200032464946204601F0E4FD28B1206C0428DF
:1021300037D00320BDE8F88F606A411C61622168D6
:1021400000780861608D401E6085208D401E2085CE
:1021500021684869C04340070BD457B1606A421CEC
:10216000626200780861608D401E6085208D401E8F
:10217000208532464946204601F0EEFC0028D5D1A4
:10218000208D0028CCD154F83D0B016841F400713A
:102190000160202004F81E09E57765770020C9E773
:1021A00006E02068016841F4007101600120C1E788
:1021B0000220BFE70000FFFF00680749884209D1FD
:1021C0000648016821F4001101604FF44071044891
:1021D000FFF70EBC70470000005400402438024056
:1021E0000004024010B586B0044614216846FDF78D
:1021F000EDFF14492068884221D11348016841F05D
:10220000020101600068694600F0020005904FF489
:102210004070009012200190012002900320039052
:10222000042004900948FFF79BFC07480830016828
:1022300041F400110160006800F40010059006B040
:1022400010BD0000005400401C3802400004024051
:1022500070B5040011D021684CF6CC4008602168AC
:1022600045F255500860D4E9000141602168A0683A
:102270008860FFF753FD054609E0012070BD00BFEF
:10228000FFF74CFD401B302801D9032070BD2068AA
:10229000C0680028F4D121684AF6AA20086000200E
:1022A00070BD00684AF6AA21016000207047000056
:1022B00002480168491C016070470000640000206A
:1022C00010B5032000F066F8002000F005F800F0DB
:1022D00017F8002010BD000010B5044607484FF461
:1022E0007A710068B0FBF1F001F0EAF800222146B3
:1022F000501E00F02FF8002010BD000060000020EC
:102300000D4808B5016841F000410160016801F025
:1023100000410091011F0A6842F001020A60096849
:1023200001F001010091016841F0805101600068F5
:1023300000F08050009008BD2438024000F01F02D9
:10234000012191404009800000F1E020C0F8001117
:1023500070470000F0B40E4B1B680C46C3F3022319
:10236000C3F10705042D00D90425191D072901D241
:10237000002300E0DB1E012606FA05F1491E21407C
:1023800099409E40761E16403143F0BC01F038BEA5
:102390000CED00E0064900F0070208684FF6FF0365
:1023A000184040EA0220034A1043086070470000CA
:1023B0000CED00E00000FA050120810291FAA1F184
:1023C000024AB1FA81F142F82100704700000E4242
:1023D0000120410291FAA1F1024AB1FA81F142F8D9
:1023E0002100704700000E42094A136823F00303DE
:1023F000034313600748026822F0040202600129C7
:1024000003D040BF20BF20BF704730BF70470000DF
:102410000070004010ED00E00B4A136823F0030346
:10242000034313600948026842F004020260012974
:1024300007D040BF20BF20BF016821F00401016028
:10244000704730BFF8E700000070004010ED00E07A
:102450002DE9F84F04460068C10701D1800778D5FF
:10246000DFF868810027D8F80000C0000BD4D8F846
:10247000001041F08051C8F80010D8F80000012782
:1024800000F080500090524D2868C00510D4286894
:1024900040F480702860FFF741FC064605E000BF6D
:1024A000FFF73CFC801B64285CD82868C005F7D582
:1024B000464E243E3068616800F0C04001F0C042E2
:1024C000824204D1A26802F0C042824209D0C1F324
:1024D0000140032805D13068800302D50120BDE802
:1024E000F88F3A4D1035286810F4403052D001F47E
:1024F0004031814202D02178C90707D1A16801F497
:102500004031814246D02078800743D528684FF477
:10251000000292FAA2F1B1FA81F14FEA810C2D4941
:102520004FF0010A8C4420F44030CCF880A692FA97
:10253000A2F2B2FA82F201EB82010023C1F88036E6
:102540002860C00526D5FFF7E9FB81464FF4007BE4
:102550000AE038E0FFF7E2FBA0EB090141F2883026
:10256000814201D90320BAE79BFAABF0B0FA80F0C0
:1025700040F04001BAEB511F01D1316800E02968F9
:102580009BFAABF2B2FA82F202F01F020AFA02F0F0
:102590000142DFD06068C0F30141032906D13168F0
:1025A00000F0C04021F0C0410143316028686168FB
:1025B00001F44031084328602FB1D8F8001021F011
:1025C0008051C8F80010002089E70000243802403C
:1025D00000700040000047422DE9F047DFF8BC8161
:1025E00005460E46D8F8000000F00100B04214D2B3
:1025F000012E05D1D8F8001041F00401C8F80010F0
:10260000D8F8001021F001013143C8F80010D8F8C3
:10261000000000F00100B04271D12878604C8007C2
:1026200005D52068A96820F0F000084320602878CC
:10263000C00771D05A4A5A4B69680120083A2C33B6
:10264000022910D003292ED001292FD05FEA40277C
:1026500097FAA7FCBCFA8CFC4CF0200C5FEA5C1CDF
:1026600004D0126803E04FF40037F1E71A6897FAD4
:10267000A7F3B3FA83F303F01F039840024262D03A
:10268000206820F0030008432060FFF747FB6968DB
:10269000074641F28830022910D003291CD00129B5
:1026A000814626D034E04FF00077D1E70227CFE70C
:1026B000FFF734FBC11B494501D926E0814620685C
:1026C000C0F381000228F3D126E000BFFFF726FB0C
:1026D000C11B494501D918E081462068C0F381003B
:1026E0000328F3D118E000BFFFF718FBC11B4945D1
:1026F0000BD82068C0F381000128F5D10CE022E05E
:10270000FFF70CFBC11B494502D90320BDE8F08748
:10271000206810F00C0FF3D1D8F80010404601F0FB
:102720000101B14211D9012E03D1016841F0040128
:102730000160016821F0010131430160006800F08F
:102740000100B04201D00120E0E72878400705D51C
:102750002068E96820F4E0600843206028780007DA
:1027600006D52068296920F4605040EAC100206045
:1027700000F04CF82168F02292FAA2F201F0F00188
:10278000B2FA82F2D140074A515CC840064908605B
:102790000020FFF7A1FD0020B8E70000003C024048
:1027A0000838024001540008600000200848094928
:1027B000006809684FF4E06292FAA2F201F4E06165
:1027C000B2FA82F2D140044A515CC840704700001E
:1027D00060000020083802401154000808480949E8
:1027E000006809684FF4605292FAA2F201F4605155
:1027F000B2FA82F2D140044A515CC84070470000EE
:102800006000002008380240115400081E4A116878
:1028100001F00C00042813D0082813D00C2813D082
:10282000101F006800F460414FF4604090FAA0F07F
:10283000B0FA80F0C1404FF40040491C8840704716
:1028400012487047124870474FF4701393FAA3F37D
:1028500001F47010B3FA83F3D8400E4B01F4400139
:102860001268185C4FF4400393FAA3F3B3FA83F3AE
:10287000D940491CD20301D5054A00E0034A504320
:10288000B0FBF1F070470000083802400024F4006B
:1028900000366E01F85300082DE9F84F074600781E
:1028A000FB4EFC4DC0074FF0010428D0F84808301B
:1028B00001684FF40038C1F38101022907D0016893
:1028C000C1F3810103291BD10068C00318D598FA10
:1028D000A8F0B0FA80F040F02000400901D0306844
:1028E00000E0286898FAA8F1B1FA81F101F01F011F
:1028F00004FA01F108425CD0786800287BD058E0E7
:10290000786801280AD008B1052811D0306820F471
:1029100080303060306820F4802002E0306840F47D
:1029200080303060786828B3FFF7F8F981460BE013
:10293000306840F480203060F0E700BFFFF7EEF928
:10294000A0EB0900642872D898FAA8F0B0FA80F0D9
:1029500040F02000400901D0306800E0286898FA73
:10296000A8F1B1FA81F101F01F0104FA01F1084266
:10297000E4D01EE0FFF7D2F9814605E0FFF7CEF97B
:10298000A0EB09006428DED898FAA8F0B0FA80F02D
:1029900040F02000400901D0306800E0286898FA33
:1029A000A8F1B1FA81F101F01F0104FA01F1084226
:1029B000E4D13878DFF8E08280074FF0000B4FF069
:1029C00002095FD5B24808300168C1F381010129CD
:1029D00007D00168C1F3810103291CD10068C0033D
:1029E00019D499FAA9F0B0FA80F040F0200040091B
:1029F00002D0306801E086E0286899FAA9F1B1FABE
:102A000081F101F01F0104FA01F108422BD0F868AE
:102A1000012878D127E0F868A8B394FAA4F0B0FAB6
:102A200080F048F82040FFF779F9824606E066E139
:102A3000FFF774F9A0EB0A00022884D899FAA9F1EB
:102A4000B1FA81F141F02001490901D0316800E07B
:102A5000296899FAA9F0B0FA80F000F01F0004FA92
:102A600000F00142E4D08A48001D01684FF4F85399
:102A700093FAA3F33A69B3FA83F321F4F8519A4035
:102A80001143016025E0FFE794FAA4F1B1FA81F166
:102A900048F821B0FFF742F9824605E0FFF73EF91A
:102AA000A0EB0A000228C8D899FAA9F0B0FA80F081
:102AB00040F02000400901D0306800E0286899FA11
:102AC000A9F1B1FA81F101F01F0104FA01F1084204
:102AD000E4D138784FF4007AC0067CD56C480830D1
:102AE000006810F00C0F0FD0B9694FF48070002906
:102AF00072D090FAA0F0B0FA80F048F82040FFF7CA
:102B00000DF900907EE087E09AFAAAF0B0FA80F022
:102B100040F02000400901D0306800E028689AFAAF
:102B2000AAF1B1FA81F101F01F0104FA01F10842A2
:102B300002D0B86900286FD05548396A001D006876
:102B400000F4604081421AD9084601F055FB002884
:102B500062D14F48001D01683A6A21F46041114377
:102B6000016001684FF07F4393FAA3F3FA69B3FA67
:102B700083F321F07F419A401143016018E04448FB
:102B8000001D026822F460420A43026001684FF0AF
:102B90007F4393FAA3F3FA69B3FA83F321F07F41F9
:102BA0009A4011430160386A01F026FB0028CFD11A
:102BB0004FF4604191FAA1F1386AB1FA81F1C8404D
:102BC0004FF40041401C8140314808300068F02239
:102BD00000F0F00001E070E040E092FAA2F2B2FAF8
:102BE00082F2D0402D4A105CC1402D480160002087
:102BF000FFF772FB61E000BFFFF790F80099401A01
:102C000002287CD89AFAAAF0B0FA80F040F02000AE
:102C1000400902D0306801E0BCE128689AFAAAF1C4
:102C2000B1FA81F101F01F0104FA01F10842E3D089
:102C30001748001D01683A6A21F4604111430160A0
:102C400001684FF07F4393FAA3F3FA69B3FA83F371
:102C500021F07F419A40114301602EE090FAA0F0EC
:102C6000B0FA80F048F820B0FFF758F8009005E07F
:102C7000FFF754F80099401A0228C2D89AFAAAF02D
:102C8000B0FA80F040F0200040090BD030680AE034
:102C90000038024034380240000047420154000826
:102CA0006000002028689AFAAAF1B1FA81F101F0D7
:102CB0001F0104FA01F10842DAD13878000753D530
:102CC000786948B394FAA4F0B0FA80F008EB800079
:102CD000C0F88046FFF722F8009005E0FFF71EF8E5
:102CE0000099401A02288CD899FAA9F0B0FA80F01D
:102CF00040F04000B4EB501F02D1306801E08EE09C
:102D0000286899FAA9F1B1FA81F101F01F0104FADA
:102D100001F21042E2D027E094FAA4F1B1FA81F175
:102D200008EB8101C1F880B6FEF7F8FF009005E0DE
:102D3000FEF7F4FF0099401A022870D899FAA9F01A
:102D4000B0FA80F040F04000B4EB501F01D1306881
:102D500000E0286899FAA9F1B1FA81F101F01F01A8
:102D600004FA01F21042E3D1387840077BD59B4842
:102D70004FF000090068C0000AD49848016841F08B
:102D80008051016000684FF0010900F08050009010
:102D900093480168C90511D4016841F4807101604C
:102DA000FEF7BCFF009005E0FEF7B8FF0099401A5F
:102DB000642834D88A480068C005F5D5B868012869
:102DC0000AD008B1052811D0286820F48070286046
:102DD000286820F4806002E0286840F48070286051
:102DE000B86848B3FEF79AFF00900DE0286840F4F9
:102DF00080602860F0E700BFFEF790FF0099411A5D
:102E000041F2883081420AD89AFAAAF0B0FA80F0EA
:102E100040F04000B4EB501F02D1306801E095E073
:102E200028689AFAAAF1B1FA81F101F01F0104FAB7
:102E300001F21042E0D022E0FEF770FF009007E0C0
:102E4000FEF76CFF0099411A41F2883081427DD82B
:102E50009AFAAAF0B0FA80F040F04000B4EB501FAC
:102E600002D1306801E012E028689AFAAAF1B1FABA
:102E700081F101F01F0104FA01F21042E0D1B9F131
:102E8000000F04D05548016821F080510160786A34
:102E9000E8B3DFF84891A9F11C09D9F80010C1F393
:102EA0008101032976D002284FF080714FF0007A1B
:102EB00058460BD091FAA1F1B1FA81F148F82100FE
:102EC000FEF72CFFB046074656466DE04FF0807186
:102ED00091FAA1F1B1FA81F18A0042495050FEF70E
:102EE0001DFFB3468046564606E000BFFEF716FFBC
:102EF000A0EB0800022854D896FAA6F0B0FA80F0A9
:102F000040F02000400903D0DBF8000001E061E060
:102F1000286896FAA6F1B1FA81F101F01F0104FACE
:102F200001F10842E2D1D7E90A103A6BD9F8003032
:102F3000014323F47D031A431143C9F800104FF0F5
:102F4000807090FAA0F0B0FA80F000E029E08100F3
:102F500024480C50FEF7E2FE074604E0FEF7DEFED2
:102F6000C01B02281DD896FAA6F0B0FA80F040F0F7
:102F70002000400902D0DBF8000000E0286896FA43
:102F8000A6F1B1FA81F101F01F0104FA01F1084242
:102F9000E4D01FE020E000BFFEF7C0FEC01B022807
:102FA00002D90320BDE8F88F96FAA6F0B0FA80F0B7
:102FB00040F02000400902D0D8F8000000E0286866
:102FC00096FAA6F1B1FA81F101F01F0104FA01F1BC
:102FD0000842E1D10020E5E70120E3E72438024080
:102FE00000700040000047422DE9F0470446007F92
:102FF00001281CD001262677022060772168CA208C
:1030000048622168532048622068816821F4806109
:1030100081602068816821F480418160FEF77EFE36
:10302000054600274FF0FF084FF47A790EE00220A2
:10303000BDE8F087FEF772FE401B484506D92168BF
:10304000C1F82480032060772777F1E72068C06803
:103050004007EFD52168C1F82480667727770020E4
:10306000E6E700002DE9F74F0446007F8B46012874
:103070001BD04FF0010884F81C8002206077216883
:10308000CA204862216853204862206880684FF057
:10309000000540054FF0FF064FF0030A4FF47A7920
:1030A0000FD5FEF73BFE074607E00220BDE8FE8F86
:1030B000FEF734FEC01B484519D82068C068400799
:1030C000F6D42068816821F4806181602068C1683D
:1030D00001F0800161F49061C160FEF71FFE0746B8
:1030E0000CE000BFFEF71AFEC01B484506D9206859
:1030F000466284F81DA025770320D7E72068C068C2
:103100004007EFD52168C1F814B02068816821F02C
:103110000701816020688168029A114381600E482E
:10312000016841F4801101600B480830016841F4E6
:10313000801101602068816841F4804181602068CD
:10314000816841F4806181602068466284F81D8056
:1031500025770020AAE70000000401407047000026
:1031600010B504460068C068400509D52046FFF741
:10317000F5FF2068C16801F0800161F49061C160D1
:1031800003494FF4801008600120607710BD0000F3
:103190001404014070B5040002D0607F10B106E055
:1031A000012070BD00202077204600F041F8022069
:1031B00060772168CA20486221685320486220460F
:1031C00001F06EF8FF210028206803D0416204203E
:1031D0006077E5E78268154B1A4082602268906844
:1031E00063681843D4E904352B4318439060226880
:1031F000E068106120680269238942EA03420261A3
:103200002068C26822F08002C2602068026C22F44A
:10321000802202642068026CA3691A430264206859
:10322000416201206077002070BD0000BFFF8FFF6A
:1032300010B500680C49884214D10120810591FA2B
:10324000A1F10A4AB1FA81F102EB8101C1F88006CD
:10325000002211460320FFF77DF8BDE8104003204F
:10326000FFF76CB810BD0000002800400000474286
:103270002DE9F0470446007F0B46012825D04FF08A
:10328000010984F81C9002206077587802B300F09E
:10329000F3FF987800F0F0FF9878D97840EA01457C
:1032A00058781978000240EA413005432168CA2065
:1032B0004862216853204862204600F0F1FF002652
:1032C000FF274FF0040838BB19E00220BDE8F08763
:1032D000C10603D500F0EF000A305870D87800F02E
:1032E000D4FF0204587800F0D0FF42EA0022987818
:1032F00000F0CBFF0243187842EA4035D6E70D488C
:103300000540206845602068C16821F08001C160E7
:10331000204600F085F830B12068476284F81D80AF
:1033200026770120D2E72068476284F81D9026772F
:103330000020CBE73FFFFF002DE9F0470446007F68
:103340000D46012811D04FF0010A84F81CA002207C
:1033500060772068002680684FEA406042B100280C
:103360001ADA287800F088FF17E00220BDE8F0871D
:10337000002800DBEE70287800F087FF02046878F0
:1033800000F083FF42EA0022A87800F07EFF0243AB
:10339000E87842EA00470AE0EE70A878297840EA27
:1033A00001476878E978000240EA01400743216854
:1033B000CA204862216853204862204600F070FF0E
:1033C0004FF0FF084FF00409C0B9144807402068C7
:1033D00007602068816821F480218160D5E90301BC
:1033E000084321688A68104388602068C16821F01A
:1033F0008001C160204600F013F838B12168C1F89F
:10340000248084F81D9026770120AFE72168C1F859
:10341000248084F81DA026770020A7E77F7F7F0007
:1034200070B5044600688168890614D4C16821F02B
:10343000A001C160FEF772FC05464FF47A7606E003
:10344000FEF76CFC401BB04201D9032070BD206820
:10345000C0688006F4D5002070BD4FF0E0200169FF
:1034600041F002010161704710B504000ED02068E0
:10347000016821F040010160204600F00BF80020B7
:10348000606584F8510084F8500010BD012010BD23
:103490000120704700680749884209D10648016841
:1034A00021F4804101604FF460410448FEF7A0BA66
:1034B00070470000003800402438024000040240F9
:1034C00010B5401EB0F1807F01D3012010BD4FF038
:1034D000E02460610F21601700F092FD0020A061E0
:1034E00007202061002010BD4FF0E020016921F08D
:1034F00002010161704710B5040003D094F8350053
:1035000010B107E0012010BD002084F834002046EF
:1035100000F00CF8022084F83500211D206800F02E
:10352000C3FF012084F83500002010BD08B50068F5
:103530000B49884212D10B48016841F00801016033
:103540000068002200F00800009011461A20FEF7E3
:1035500001FFBDE808401A20FEF7F0BE08BD0000DC
:10356000000C014020380240022180F8351001682B
:103570000A6842F001020A60012180F8351000203B
:1035800070470168CA6842F00102CA6000680168B9
:1035900041F0010101600020704770B5044690F8C9
:1035A0003400012817D0012584F83450022084F813
:1035B00035002068826822F0770222F47F42826020
:1035C0000868502837D00DDC202859D005DC88B396
:1035D000102841D151E0022070BD302853D040283E
:1035E0003AD13FE060282ED070280BD0B0F5805F34
:1035F00003D0B0F5005F2FD110E02068816821F082
:10360000070115E0CB68D1E90121206800F08AFFAD
:103610002168886840F0770088601DE0CB68D1E9B8
:103620000121206800F07EFF2068816841F480411C
:10363000816011E01EE0CA684968206800F084FFDC
:103640005021206806E0CA684968206800F08DFFB4
:103650006021206800F070FF84F83550002084F865
:10366000340070BDCA684968206800F06DFF4021D1
:103670002068EFE700212068ECE710212068E9E7E7
:1036800020212068E6E730212068E3E7704770B525
:103690000446006801694FF00005C943890715D445
:1036A000C168C943890711D4E91E01610120207551
:1036B000206880698007204602D0FFF7E7FF04E01A
:1036C00000F078F8204600F076F82575206801694A
:1036D000C943490717D4C168C943490713D46FF0D8
:1036E00004010161022020752068806910F4407F88
:1036F000204602D0FFF7CAFF04E000F05BF8204646
:1037000000F059F8257520680169C943090716D4E6
:10371000C168C943090712D46FF008010161042090
:1037200020752068C0698007204602D0FFF7AEFFF1
:1037300004E000F03FF8204600F03DF825752068D1
:103740000169C943C90617D4C168C943C90613D45E
:103750006FF010010161082020752068C06910F425
:10376000407F204602D0FFF791FF04E000F022F8EE
:10377000204600F020F8257520680169C943C90773
:1037800008D1C168C943C90704D1891E0161204617
:1037900000F012F820680169C943490609D4C168DC
:1037A000C943490605D46FF040010161204600F08D
:1037B00004F870BD704770477047704770B50400DB
:1037C00018D0022084F839002068C16821F4005123
:1037D000C16020680025C5602068056120684561DA
:1037E000204600F039F8E56384F8395084F8385001
:1037F000002070BD012070BD70B5040004D094F8A5
:103800003900002510B106E0012070BD84F8385061
:10381000204600F035F8022084F839002068C1689D
:1038200021F40051C160204600F0CCFE20680169FF
:1038300021F4904101612068416921F02A01416130
:103840002068C16841F40051C160E563012084F83B
:103850003900002070BD000000680649884208D188
:103860000548016821F4003101600C210348FEF78E
:10387000BFB87047004400402438024000000240B6
:1038800010B586B0044614216846FCF79FFC134926
:103890002068884220D11248016841F4003101605B
:1038A000006800F4003005900D480838016841F0C8
:1038B000010101600068694600F0010005900C20DC
:1038C0000090022001900020029003200390072026
:1038D00004900448FEF744F906B010BD00440040CF
:1038E00024380240000002402DE9F047044690F8D9
:1038F000390099460D46012801D0222858D12DB310
:1039000022B394F83800012852D0012684F8386098
:103910000027E76394F8390022281AD05FF01200DC
:1039200084F83900A284E2844FF48058E08C4B463E
:10393000401EE084A0684FF0000240454FF0800137
:10394000204613D100F08EFF08BB04E00120BDE843
:10395000F0873220E4E728882168C0F30800486037
:10396000206908B16D1C08E0AD1C06E000F07AFF8C
:1039700068B9216815F8010B4860E08C0028D5D1A2
:103980004B4600224021204600F06CFF08B1032086
:10399000DDE794F83900322806D084F8396000BF9A
:1039A00084F838700020D2E7222084F83900F7E745
:1039B0000220CCE7FEE701684A69D24352050CD4E5
:1039C0006FF480624A6104210164002140F8301FD5
:1039D00020224273017301207047002070472DE9B7
:1039E000F84F044600680D461E460168924641F4B1
:1039F00080610160E06A042809D0E06A012806D0ED
:103A0000E06A10F5803F02D0206B112804D12068B5
:103A1000016841F48071016013464FF001180022E3
:103A200041462046009600F0BEF8B8BB206908F178
:103A30000109B0F5804F12D00620216800EAD517A1
:103A400047F0F00008613346524608F1070120466E
:103A500000F0DAF838B1206C04282FD01EE0E8B26C
:103A600040F001001FE02068E9B201613346524690
:103A70004946204600F0C8F80028ECD1206841698A
:103A800081690091016841F4807101605346002210
:103A900041462046009600F086F810B10320BDE8AC
:103AA000F88F47F0F10021680861334652464946D5
:103AB000204600F0A9F80028CDD1F0E70120EEE77C
:103AC000F8B50446C06A1E460D461746042809D0BC
:103AD000E06A012806D0E06A10F5803F02D0206B32
:103AE000122804D12068016841F4807101601346F6
:103AF00000224FF001112046009600F054F8A0B9C2
:103B00002069B0F5804F12D00620216800EAD51058
:103B100040F0F000086133463A460E49204600F076
:103B200073F838B1206C042811D00320F8BD05F0DB
:103B3000FE0000E0E8B221680861064933463A46D3
:103B4000891F204600F060F80028EBD1F8BD012065
:103B5000F8BD00000800010070B516460D46044689
:103B60001AE02046FFF727FF08B1012070BD681C4E
:103B700012D025B1FEF7D2F8801BA8420CD954F818
:103B8000400F40F0200044F8100900202060202160
:103B900061732073032070BD20684069C0434007F3
:103BA000DFD4002070BD2DE9F0471E4690460D463B
:103BB0000446C1F30747DDF8209012E0701C10D0D6
:103BC0002EB1FEF7ABF8A0EB0900B04209D90020F6
:103BD00044F8300F20216173A07320730320BDE8E7
:103BE000F0872068012F0AD0806925EA00000004D0
:103BF000000C06D000214145E0D00020EFE74069ED
:103C0000F3E70121F7E700002DE9F0479A469146D6
:103C10000D46044600264FF02008C1F307472AE06E
:103C200020684069C043400512D42068016841F40F
:103C30000071016021686FF4806048610420206495
:103C4000266384F83D8084F83C600120BDE8F0875D
:103C5000B9F1FF3F0FD0B9F1000F05D0FEF75EF8C4
:103C6000A0EB0A01494506D944F8306F84F80D806D
:103C700026730320EAE72068012F07D0D0F8180048
:103C800025EA00000004000CE0D0C9E74069F7E72E
:103C90002DE9F041002590460E460446202721E0FC
:103CA0004069C043C0060CD421686FF01000486121
:103CB0002564256384F83D7084F83C500120BDE8FC
:103CC000F0812EB1FEF72AF8A0EB0800B04209D926
:103CD00054F8400F40F0200044F804096770257044
:103CE0000320ECE720684169C9434906D8D4002085
:103CF000E5E770B516460D4604461AE02046FFF784
:103D00005AFE08B1012070BD681C12D025B1FEF723
:103D100005F8801BA8420CD954F8400F40F0200051
:103D200044F81009002020602021617320730320D3
:103D300070BD20684069C0430006DFD4002070BD1C
:103D40008021FDF7ABB900001248417809B101208C
:103D50007047817809B106207047C2780E49022A5F
:103D600001D02AB10FE042688A420CDB052070477F
:103D70000A4B42689A4201DB02207047084B9A4284
:103D800001DC8A4204DA4068884201DA0420704784
:103D900003207047000000209A995940CDCC6C4018
:103DA000666666403EB500241148009401940F49B0
:103DB0000294C0E900148460C460046144618461B9
:103DC000C46101250462C0E909451021C462C0E94B
:103DD0000D14C463FDF700FC0A20CDE90005694617
:103DE00002940348FDF7C2FA3EBD000000240140E2
:103DF000680000202DE9F04387B014216846FCF7E5
:103E0000E5F93848016841F004010160016801F0FA
:103E100004010591016841F001010160016801F0B0
:103E200001010591016841F0020101600068DFF8BD
:103E3000B89000F002004FF4C654059000222146CD
:103E40004846FDF765FF294F0022A0213846FDF7BF
:103E50005FFFDFF89C8041F60206002231464046B3
:103E6000FDF756FF0125CDE900450024029469467F
:103E700048460394FDF774FEA0200090CDE901545C
:103E8000694638460394FDF76BFE0096CDE9015470
:103E9000694640460394FDF763FEA802009015486A
:103EA000CDE9010469464046FDF75AFE4FF4A07083
:103EB000CDE90004694638460294FDF751FE280218
:103EC000CDE90004694648460294FDF749FE002208
:103ED00011462820FEF73EFA2820FEF72FFA07B0F9
:103EE000BDE8F0831C380240000002400008024098
:103EF0000004024000001110094808494FF48042B4
:103F000001600849416000218160C0E903124161FC
:103F10008161C1610162FDF721BF000000540040D2
:103F2000D0000020A086010010B586B0142168469C
:103F3000FCF74CF91948002417490594C0E900140E
:103F40007F218160FF21C0E9031444618461FFF790
:103F500021F98DF800408DF801408DF8024003945E
:103F6000012269460D480494FFF7E6F901208DF817
:103F700014008DF815008DF8160002468DF81740D4
:103F800005A90648FFF774F9002211460348FFF718
:103F900069F806B010BD0000002800403001002084
:103FA0000B480A494FF4007201604FF4827141607E
:103FB00000218160C1600161C0E90512C161016237
:103FC000416281620A21C162FFF762BA0038004093
:103FD000500100200848074901604FF41651416024
:103FE000002181600C22C160C0E904128161C161BD
:103FF000FFF702BC00440040E0010020FEE77047EC
:104000000907090E002806DA00F00F0000F1E02091
:1040100080F8141D704700F1E02080F8001470470C
:104020001148417809B101207047817809B1062013
:104030007047C2780D49022A01D02AB10CE04268CB
:104040008A4209DB05207047094B42689A4208DC26
:104050008A4201DB032070474068884201DA04206D
:104060007047022070470000000000209A995940D4
:10407000666666402DE9F0474E4EDFF83C914F4FA3
:1040800004004FF400654FF480580DD0022C0BD083
:10409000032C09D0042C07D0052C05D00022802148
:1040A0004846FDF735FE11E0307810F0160F1AD0B3
:1040B000002280214846FDF72BFEB4B1022C14D01B
:1040C000032C12D0042C10D0052C0ED0062C0CD0B2
:1040D000002229464846FDF71BFE002229463846A5
:1040E000FDF716FE1BE00122E3E7307810F0140F15
:1040F00008D0002229464846FDF70AFE002229463C
:10410000384608E0012229463846FDF701FE34B161
:10411000012229464846FDF7FBFD062C07D0002268
:1041200040214846FDF7F4FD022C14D008E0307819
:1041300010F04C0F0DD0002240214846FDF7E8FD5D
:104140000022464641463846FDF7E2FD012C13D0D9
:1041500009E00122F0E7307880060BD000224146CA
:104160003846FDF7D5FD002241464846BDE8F047F8
:10417000FDF7CEBD0122F2E7012231464C4648460A
:10418000FDF7C6FD002231463846FDF7C1FD00228D
:1041900040212046FDF7BCFD002229462046FDF7C0
:1041A000B7FD002280212046FDF7B2FD00222946FE
:1041B0003846DBE7480000200000024000040240CF
:1041C0007047000010B50B4C04F1080C6060084605
:1041D0008CE80D0000F094F86068FFF7B1FD6068AE
:1041E000FDF708F82069FFF7BFF92069BDE8104026
:1041F000FFF7C7B94800002038B51C4900230968FB
:104200001B4A11F0F00F23D118491C310C68E5004E
:10421000184C03D5216801F4C0540EE00D6845F038
:1042200080550D600D6805F08055009524680D6877
:1042300004F4C05425F080550D60B4F5C05F07D17B
:10424000B0F5404F04D11068012340F00400106025
:10425000106820F0010018431060106800F00100A1
:10426000984201D0012038BD002038BD08380240F6
:10427000003C024000700040010901EB810100F0A8
:104280000F0000EB4100C0B27047002102E00A3885
:10429000C0B2491C0A28FAD2090740EA11607047E7
:1042A00070B504460068C168490614D44FF0FF3168
:1042B000C160FDF733FD05464FF47A7607E000BF95
:1042C000FDF72CFD401BB04201D9032070BD2068D2
:1042D000C0684006F4D5002070BD00000148FEF71C
:1042E0003FBF00003001002010B5FFF7FDF80121AD
:1042F0000020FEF779F8BDE81040FFF7AEB80000E7
:1043000010B5012220210548FDF702FD0122BDE87C
:10431000104002210248FDF7FBBC000000080240EB
:10432000000402407047000010B5174C072811D256
:10433000DFE800F004081119151D2100FFF79AFEAF
:1043400000201BE0FFF796FED4E90212012000F0E6
:104350001EF9012010BDFFF78DFE02200EE0FFF7D1
:1043600089FE04200AE0FFF785FE032006E0FFF740
:1043700081FE052002E0FFF77DFE0620D4E902124F
:10438000BDE8104000F003B9480000200D48417816
:1043900009B1012070470C4A4168914201DA0420BA
:1043A000704782781AB9C078022802D018B1062066
:1043B0007047052070470548814201DD02207047A3
:1043C00003207047000000209A99594066666640B5
:1043D000FDF76EBF30B595B034216846FBF7F6FEA9
:1043E00014210DA8FBF7F2FE002417481294139431
:1043F0001494016821F4C05141F4006101601A2055
:10440000009001251020CDE9035005954FF4404060
:104410000695CDE9074068460994FEF73DFA0F205E
:10442000CDE90D048020CDE90F044FF4E060119038
:1044300000210DA8FEF7D0F86804CDE9125012A8AB
:10444000FEF706F815B030BD007000400F48016857
:1044500041F4807101600D4908310A680C4B1A4023
:104460000A6002680B4B1A400260026822F4802244
:104470000260086820F47D0008600020091D0860C3
:1044800005494FF0006008607047000000380240A6
:104490000CC0FF88FEFFFEEE08ED00E00148FFF7CC
:1044A000F6B80000A8010020F0B502684FF0804C7B
:1044B000164B174C174D184E604507D0984205D043
:1044C000A04203D0A84201D0B04205D122F070072B
:1044D0004A683A4360450DD098420BD0A04209D0BB
:1044E000A84207D0B04205D00C4B984202D00C4BEA
:1044F000984203D122F44073CA681A4302608A6862
:10450000C2620968816201214161F0BD000400407E
:1045100000080040000C004000080140000C014071
:104520000010014010B5846842EA032224F47F445D
:104530000A432243826010BD826822F070020A435F
:1045400042F007018160704710B5036A046A24F0E5
:1045500001040462846924F0F00444EA021423F0A4
:104560000A020A438461026210BD10B5036A23F097
:10457000100303628369046A23F4704343EA02323E
:1045800024F0A00343EA01118261016210BD68B109
:10459000012815D002280BD004280BD003280BD0FB
:1045A00005280BD006280BD1FFF7F0BEFCF7C8BDDD
:1045B000FFF736BD00F0A0B9FFF7C6BBFCF7EEBDB4
:1045C000704700002DE9F041044600680169E26887
:1045D00021F44051114301612169A068E269084357
:1045E0006169114308432168CA6849F20C639A4320
:1045F0000243CA6020684169A26921F440711143F5
:104600004161E1696425B1F5004F954821684FF09B
:1046100032083DD081427AD1FEF7E0F800EBC001CC
:1046200001EB001061688900B0FBF1F6FEF7D6F8E7
:1046300000EBC00101EB001061688900B0FBF1F0F4
:10464000B0FBF5F06FF01801484306EB800108EB72
:104650000110B0FBF5F000F0F006FEF7BFF800EB3C
:10466000C00101EB001061688900B0FBF1F0B0FB04
:10467000F5F006EB0016FEF7B1F800EBC00101EB18
:10468000001061688900B0FBF1F7FEF7A7F8D0E0F1
:1046900081423DD1FEF7A2F800EBC00101EB001012
:1046A00061684900B0FBF1F0B0FBF5F00601FEF7E0
:1046B00095F800EBC00101EB001061684900B0FB08
:1046C000F1F7FEF78BF800EBC00101EB0010616819
:1046D0004900B0FBF1F0B0FBF5F06FF01801484372
:1046E00007EB800108EBC100B0FBF5F000F0F8002B
:1046F00006EB4006FEF772F800EBC00101EB00107C
:1047000061684900B0FBF1F7FEF768F83CE055E05E
:10471000FEF74CF800EBC00101EB001061684900A6
:10472000B0FBF1F0B0FBF5F00601FEF73FF800EB4F
:10473000C00101EB001061684900B0FBF1F7FEF722
:1047400035F800EBC00101EB001061684900B0FBD7
:10475000F1F0B0FBF5F06FF01801484307EB800172
:1047600008EBC100B0FBF5F000F0F80006EB4006E6
:10477000FEF71CF800EBC00101EB00106168490076
:10478000B0FBF1F7FEF712F800EBC00101EB0010EF
:1047900061684900B0FBF1F0B0FBF5F06FF0180173
:1047A000484307EB800108EBC100B0FBF5F000F0D7
:1047B0000700216830448860BDE8F081FDF7F6FF0E
:1047C00000EBC00101EB001061688900B0FBF1F65D
:1047D000FDF7ECFF00EBC00101EB00106168890000
:1047E000B0FBF1F0B0FBF5F06FF01801484306EBB9
:1047F000800108EB0110B0FBF5F000F0F006FDF7CA
:10480000D5FF00EBC00101EB001061688900B0FB2F
:10481000F1F0B0FBF5F006EB0016FDF7C7FF00EB7B
:10482000C00101EB001061688900B0FBF1F7FDF7F2
:10483000BDFF00EBC00101EB001061688900B0FB17
:10484000F1F0B0FBF5F06FF01801484307EB800181
:1048500008EB0110B0FBF5F000F00F00A9E7000035
:10486000003801402DE9F0471D4690460E460446AB
:10487000FDF754FA07465FEA08004FF000094FF0D1
:10488000010808D030E0681C05D095B1FDF746FA64
:10489000C01BA8420DD82068006836EA0000F2D19B
:1048A00027E0681C20D025B1FDF738FAC01BA842CC
:1048B0001AD92068C16821F08001C1602068C168F0
:1048C00021F02001C1602068C16821F48071C160BD
:1048D0002068416921F00101416184F8398084F840
:1048E00038900320BDE8F0872068006836EA0000B1
:1048F000D7D00020F6E700000E48417809B101202A
:104900007047C2780C49022A01D02AB10EE04268F1
:104910008A420BDD05207047084B42689A4201DD50
:10492000022070478A4201DD03207047406804205E
:10493000704700000000002000006040666666408E
:10494000FEE7000037B514460846064B6A46214686
:1049500000F0DCF804466946002000F06EFC2046BA
:104960003EBD00003B52000802E008C8121F08C10B
:10497000002AFAD170477047002001E001C1121FE0
:10498000002AFBD1704700002DE9FF5F82B00021B3
:10499000DDE90430020DDDF840B0034318D044F6E1
:1049A0001050A2F2FF3242431514119801281FD073
:1049B000A5EB0B00401C5FEA000A4FF000064E4FCB
:1049C000DFF83891B046504615D5CAF1000413E01F
:1049D000119801244AA3012801D16FEA0B01029822
:1049E000119AC0E90031C0E9024206B0BDE8F09F6B
:1049F000CBF10000DFE704460021404A491842EBB2
:104A00000450CDE9001012E0E00707D032463B46E3
:104A100040464946FBF7F7FC8046894632463B460E
:104A200010461946FBF7EFFC06460F466410002CB3
:104A3000EAD1DDE90401DDE90023BAF1000F06DA6D
:104A4000FBF7E1FC42464B46FBF7DDFC05E0FBF7DC
:104A50004CFD42464B46FBF748FD04460E460022FD
:104A6000284BFBF719FE03D84FF0FF30014607E053
:104A70000022254B20463146FBF71EFCFBF7E1FDEB
:104A8000102409E0002C0ADB0A220023FBF766FB56
:104A9000039B30321A55641E50EA0102F2D1641CA5
:104AA000039AC4F111031444119A012A03D001227C
:104AB00008430DD10AE0084304D000204FF0110B49
:104AC000119072E7A3EB0B056D1E0DE05B4504DD55
:104AD0004FF0000205F1010504E003DA4FF0000297
:104AE000A5F10105002AECD002981199C0E9023124
:104AF000C0E9004579E70000000014400000F03FE5
:104B0000300000000000F0430000E03F2DE9FF4FBF
:104B100095B09B468946064600250FE2252877D1A9
:104B200000242746F84A0121059400E0044316F8C2
:104B3000013F203B01FA03F01042F7D130782A28D8
:104B400011D06FF02F033078A0F13002092A16D867
:104B5000059A44F0020402EB820203EB4202104485
:104B6000761C0590EFE759F8042B0592002A03DA2A
:104B7000504244F40054059044F00204761C30780E
:104B80002E2816D116F8010F44F004042A280DD05F
:104B90006FF02F023078A0F13003092B09D807EB12
:104BA000870302EB4303C718761CF3E759F8047B2D
:104BB000761C30786C280FD006DC4C2817D068287B
:104BC0000DD06A2814D104E0742810D07A280FD1AF
:104BD0000DE044F400140AE044F4801401E044F4CD
:104BE00040147278824202D104F58014761C761C3F
:104BF000307866280BD013DC582877D009DC0028E1
:104C000075D04528F6D04628F4D047281AD19DE122
:104C100018E0632835D0642879D0652812D195E151
:104C2000702873D008DC6728F1D069286FD06E280F
:104C30000DD06F2806D1B5E073282CD0752875D01B
:104C4000782874D05A46179990476D1C75E1C4F3C3
:104C50000250022809D003280DD0D9F800100428EA
:104C60000DD00D6009F1040967E1D9F80010EA17C9
:104C7000C1E90052F6E7D9F800100D80F2E70D7097
:104C8000F0E719F8041B8DF8001000208DF80100E2
:104C9000EA46012003E059F804AB4FF0FF3061070A
:104CA0004FF0000102D40DE008F101018846B9423D
:104CB0000FDA8045F8DB1AF808100029F4D108E073
:104CC00008F1010188468142FADB1AF80810002930
:104CD000F6D105985B46A0EB080721463846179A9F
:104CE00000F094FA284400EB080507E04DE029E1C4
:104CF0000DE01AF8010B5A4617999047B8F10108D0
:104D0000F7D25B4621463846179A13E142E00A2261
:104D10000092C4F302524FF0000A022A08D059F858
:104D200004CB032A4FEAEC710AD00DE029E02AE017
:104D300009F1070121F00702F2E802C1914609E0FA
:104D40000FFA8CFC4FEAEC71042A03D14FFA8CFC69
:104D50004FEAEC71002907DA0A460021DCF1000C69
:104D600061EB02012D2202E0220504D52B228DF8F1
:104D70000420012203E0E20701D02022F7E7904659
:104D800059E00A2102E010220DE010214FF0000A44
:104D900000910BE010224FF0000A44F004040827B1
:104DA000009203E008224FF0000A0092C4F302527E
:104DB000022A05D059F804CB0021032A08D009E0C3
:104DC00009F1070121F00702F2E802C1914605E06E
:104DD0001FFA8CFC042A01D10CF0FF0C4FF00008E4
:104DE000220728D5702806D0009B83F0100353EAD1
:104DF0000A0305D00EE040228DF80420012208E0CD
:104E00005CEA010206D030228DF804208DF80500FE
:104E100002229046009B83F0080353EA0A030AD15A
:104E20005CEA010201D1620705D530228DF8042029
:104E30004FF001087F1E582804D034A003900EA81C
:104E400002900DE036A0F9E753466046009AFBF762
:104E500085F984460398825C0298401E0290027095
:104E60005CEA0100F0D1029806A9081A00F1200AB4
:104E7000600702D524F4803400E00127574502DDA5
:104E8000A7EB0A0000E0002000EB0A010090059863
:104E90004144401A0590E00306D45B462146179A28
:104EA000059800F0B3F90544002706E001A85A462A
:104EB000C05D179990476D1C7F1C4745F6DBE003EA
:104EC0000CD55B462146179A059800F09FF90544DA
:104ED00004E030205A46179990476D1C0099481EEF
:104EE00000900029F5DC08E0029802995A46007803
:104EF000491C0291179990476D1CBAF10001AAF163
:104F0000010AF1DC65E1000009280100303132338B
:104F100034353637383961626364656600000000F5
:104F200030313233343536373839414243444546DF
:104F30000000000000F058F90544761C3078002885
:104F40007FF4ECAD19B02846BDE8F08F620700D4BD
:104F5000062709F1070222F0070CFCE80223E146CC
:104F600003F000485FEA080C02D00FF2702C0DE04D
:104F70005FEA045C02D50FF2682C07E05FEAC47CAC
:104F800002D00FF2602C01E0AFF2700C4FF0FF384E
:104F900023F00043CDF850C065280CD006DC45282E
:104FA00009D046281DD047283DD13DE0662818D0BD
:104FB00067287ED138E00021112F01DB112000E0AD
:104FC000781CCDE9000106A90EA8FFF7DDFCDDE99C
:104FD0000F010E9A03910021009207F1010A04913A
:104FE0004DE04FF000400097CDE9011006A90EA852
:104FF000FFF7CAFCDDE90F0203920E9B1199002214
:10500000DDF80CA00093049211B9791C00EB010AA1
:10501000B7EB0A0004D4C0F1FF3007F1010A049095
:10502000AAEB0700019044E0012F00DA01270021DC
:10503000112F01DD112000E03846CDE9000106A95D
:105040000EA8FFF7A1FCDDE90F010E9A03910021E4
:1050500004910092BA4621070CD40399514500DA15
:105060008A46BAF1010F05DD009AAAF10101515CEF
:10507000302908D0B84202DA10F1040F06DA012113
:10508000CDE9011015E0AAF10101E9E7002805DCEE
:10509000049901440491AAEB000102E0411C51452E
:1050A00000DD8A460499401A401C01904FF00040F0
:1050B0000290200704D40198504501DBCDF804800C
:1050C00000208DF84F0002980DF14F07B0F1004F0E
:1050D00025D02B200E9002984FF0020800280CDA01
:1050E000404202902D200E9007E00A210298FBF723
:1050F00007FB3031029007F8011DB8F10001A8F15B
:105100000108F2DC02980028EFD1791E0E98087091
:10511000307800F0200040F0450007F8020D12A89A
:10512000C01B00F107081498007800B1012000EBC3
:105130000A01019801EBE07105984144401A401EB4
:105140000590E00306D45B462146179A059800F0C7
:105150005DF805441498007818B15A46179990479D
:105160006D1CE00324D55B462146179A059800F094
:105170004DF805441CE00498002807DBDDE9030135
:10518000884203DD0098405C179901E017993020B0
:105190005A469047049805F10105401C0490019877
:1051A000401E019004D12E205A46179990476D1C3D
:1051B000BAF10001AAF1010ADDDC05E017F8010BE4
:1051C0005A46179990476D1CB8F10001A8F10108E3
:1051D000F4DC5B462146179A0598ABE62D000000EB
:1051E0002B000000200000002DE9F04104460025BE
:1051F0001E461746880404D405E039462020B047EF
:105200006D1C641EF9D52846BDE8F0812DE9F041FA
:10521000044600251E469046C80301D5302700E00D
:105220002027880404D505E041463846B0476D1C68
:10523000641EF9D52846BDE8F0810A68531C0B604E
:10524000107070471FB54FF00009FDF739F8FFF7F0
:10525000C1F85648016841F000510160006800F053
:1052600000500090FEF7C6FDFEF79AFEFEF7B2FE74
:10527000FEF742FEFEF796FD00254E4800954C4C89
:1052800001950460FCF716FB009500226946494829
:105290000195FCF7EEFA102269464648FCF7E9FA58
:1052A000FEF742FE43480095EC30019502954249D5
:1052B0000395C0E900154FF6FF71C0E90251611571
:1052C0000161FEF718F9A01400903A486946EC30E5
:1052D000FEF763F9374839496830C0E9001540F6F0
:1052E000FF718160FCF7B4FF324BEC3303F13802FD
:1052F000A2F19001A1F18000FEF764FFFBF722FE0E
:105300002C485438FCF77AFA206840F001002060FD
:10531000206840F480302060FBF714FE284C002702
:10532000207808B1022631E0012F0BD04846FEF765
:10533000FBFF0746FBF760FB607025700A20FCF757
:105340000BFBEDE7052621E0A846207808B10326EF
:105350001CE0012FF6D04846FEF7E6FF0746FBF7B4
:105360004BFB607084F800800A20FCF7F5FAECE74C
:10537000207800B104260F486830FCF792FF05E062
:10538000207808B1012601E0FEF7AEFF25700A2063
:10539000FCF7E2FA052EF9D2DFE806F0070605046D
:1053A0000300EDE7E4E7CFE7BAE7EFE72438024090
:1053B00000740040BC000020000C014000300040A0
:1053C0005C0000200FB400B5E5B067AA6846669996
:1053D000FFF7B8FA002809DD6846FAF702FF82B243
:1053E0004FF47A7369460348FEF77EFA65B05DF8BC
:1053F00014FB0000E0010020030406080C10182034
:10540000300000000000000000010203040607084D
:105410000900000000010203040000005B25645D38
:1054200020525353493A2025662C204E6565646509
:1054300064204761696E3A2025660A446574656395
:10544000746F723A20256C75203D20256620562009
:1054500020205647413A256C75203D202566205670
:105460002C2056413A256C75203D20256620560A91
:105470000A0000005B256420616674657220646523
:105480006C61795D20525353493A2025662C204E99
:105490006565646564204761696E3A2025660A4443
:1054A00065746563746F723A20256C75203D202504
:1054B0006620562020205647413A256C75203D2015
:1054C000256620562C2056413A256C75203D202516
:1054D0006620560A0A000000F85400080000002068
:1054E0006800000068490008605500086800002056
:1054F000B805000078490008000000000000C8421C
:105500000000003F0000203E0AD7A338CDCCCC3AA3
:105510000000803B0000803B2C1A617D2080A001B0
:105520000000D10060051482583600000000000021
:10553000000000000000000000000000000000006B
:10554000000000000000000000000000000000005B
:10555000000000000000000068FF1F0000000000C5
:0400000508000125C9
:00000001FF
