:020000040800F2
:10000000500600203901000813120008CB10000828
:1000100011120008D1010008DD14000800000000E2
:10002000000000000000000000000000991200081D
:10003000D301000800000000151200089B12000800
:100040005301000853010008530100085301000840
:100050005301000853010008530100085301000830
:100060005301000853010008D5010008530100089E
:100070005301000853010008530100085301000810
:100080005301000853010008530100085301000800
:1000900053010008530100085301000853010008F0
:1000A00053010008530100085301000853010008E0
:1000B00053010008530100085301000853010008D0
:1000C00053010008530100085301000853010008C0
:1000D00053010008530100085301000853010008B0
:1000E00053010008530100085301000853010008A0
:1000F00053010008000000005301000853010008EC
:10010000530100085301000853010008530100087F
:1001100053010008530100085301000800000000CB
:1001200053010008DFF80CD000F040F80048004709
:10013000351700085006002006488047064800474B
:10014000FEE7FEE7FEE7FEE7FEE7FEE7FEE7FEE787
:10015000FEE7FEE7F912000825010008D2B201E02F
:1001600000F8012B491EFBD270470022F6E710B5BC
:1001700013460A4604461946FFF7F0FF204610BD15
:1001800030B50B46014600202022012409E021FA67
:1001900002F59D4205D303FA02F5491B04FA02F564
:1001A0002844151EA2F10102F1DC30BD064C074DBA
:1001B00006E0E06840F0010394E807009847103437
:1001C000AC42F6D3FFF7B2FF94180008B418000849
:1001D000FEE77047102000F013B8000010B5064C81
:1001E0002168002907D1102805D12021034800F0FB
:1001F000EBF80120206010BD00000020000002404C
:10020000044910B50A68024202D00860FFF7E6FF11
:1002100010BD0000140401402DE9F84FDFF880B153
:1002200000234FF0010C4FF0030A4FF00F090BF1C0
:10023000040EAEE00CFA03F614EA060270D04C6825
:10024000022C01D0122C11D1DC0800EB84073C6A8F
:100250005D07ED0E09FA05F824EA0804D1F81080CC
:1002600008FA05F848EA0408C7F8208007685D0026
:1002700091F804800AFA05F408F00308A74308FA85
:1002800005F848EA0708C0F800804F68012F05D03C
:10029000022F03D0112F01D0122F11D18768D1F86E
:1002A0000C80A74308FA05F848EA0708C0F8088058
:1002B0004768B7430E79C6F300169E403E4346603A
:1002C000C668A6438C68AC403443C4604C68E40004
:1002D0005ED5344C256845F001052560246823F07F
:1002E000030504F0010400942F4C2E19B4689D07F7
:1002F0002F0F09FA07F5AC432C4DA84201D1002578
:100300001FE02B4DA84201D101251AE0294DA8423A
:1003100001D1022515E0284DA84202D1032510E0A5
:1003200036E0264DA84201D104250AE0244DA8421A
:1003300001D1052505E0234DA84201D1062500E0A5
:100340000725BD402543B560DBF800405D464E689B
:100350009443F60300D514432C60DEF80040754644
:100360004E689443B60300D514432C600C4D0835F9
:100370002C684E689443F60200D514432C60084D57
:100380000C352C684E689443B60200D514432C609B
:100390005B1C0A681446DA407FF44CAFBDE8F88F66
:1003A00000040140203802400000014000000240EB
:1003B0000004024000080240000C0240001002400D
:1003C000001402400018024042690A4200D00904A9
:1003D000816170470AB1816170470904FBE7000041
:1003E00001488068704700000400002070B50400D8
:1003F0001BD094F83D00002520B984F83C502046DD
:1004000000F0AEF8242084F83D002068016821F057
:100410000101016000F05EFA4D4A6168914201D825
:100420004C4900E04C49884201D2012070BD4B4943
:100430002368B0FBF1F15E6826F03F060E435E6074
:100440006368934206D94FF4967359434FF47A7315
:10045000B1FBF3F12368491C1E6A26F03F063143C5
:1004600019626168914210D84900401EB0FBF1F258
:10047000521CC2F30B02042A01D2042022E0B0FB7A
:10048000F1F0401CC0F30B001CE0A368F3B301EBD8
:10049000C10202EB0116421EB2FBF6F2521C42F4FC
:1004A0008042120549D093B301EBC10202EB011166
:1004B000401EB0FBF1F0401CC0F30B0040F4804044
:1004C00040F400402168CA694CF6FF739A43104318
:1004D000C861D4E90701084321680A6822F0C00214
:1004E00010430860D4E9030101432068826848F2A0
:1004F000FF339A4311438160D4E905010843216821
:10050000CA6822F0FF021043C86001E00EE016E066
:100510002068016841F0010101602564202084F811
:100520003D00256384F83E50002070BD01EB41067C
:10053000421EB2FBF6F2521CB3E70120C2E701EB08
:100540004101401EB0FBF1F0401CC0F30B00B7E7C7
:10055000A086010080841E0000093D0040420F007B
:10056000F0B587B0044614216846FFF7FEFD276802
:10057000204CDFF87CC01F491222012303250426EA
:100580001D480834674515D10F6847F002070F6012
:10059000096801F002010591C0218DE86E006946ED
:1005A000FFF73AFE206840F400102060206800F455
:1005B000001019E0DFF844C0674516D10F6847F016
:1005C00002070F60096801F0020105914FF44061D4
:1005D0008DE86E006946FFF71FFE206840F480003A
:1005E0002060206800F48000059007B0F0BD000096
:1005F000005400401C3802400004024000580040F3
:1006000002488168426811448160704704000020FC
:1006100010B50024032000F079F8002000F008F85D
:1006200008B1012401E000F025F8204610BD0000CB
:1006300070B50E4E05460024706898B14FF47A717B
:10064000B1FBF0F00A490968B1FBF0F000F048FC9A
:1006500040B9102D06D200222946501E00F036F86F
:10066000356000E00124204670BD00000400002039
:10067000100000200D4808B5016841F000410160FC
:10068000016801F000410091011F0A6842F0010277
:100690000A60096801F001010091016841F0805190
:1006A0000160006800F08050009008BD24380240CE
:1006B000002809DB00F01F02012191404009800061
:1006C00000F1E020C0F8001170470000F0B40E4BBC
:1006D0001B680C46C3F30223C3F10705042D00D9A0
:1006E0000425191D072901D2002300E0DB1E012685
:1006F00006FA05F1491E214099409E40761E16409B
:100700003143F0BC00F004BF0CED00E0064900F0FE
:10071000070208684FF6FF03184040EA0220034A28
:1007200010430860704700000CED00E00000FA057F
:100730002DE9F0470E46050079D0DFF88481D8F81E
:10074000000000F00100B04214D2012E05D1D8F80B
:10075000001041F00401C8F80010D8F8001021F092
:1007600001013143C8F80010D8F8000000F0010082
:10077000B0425CD12878534C800705D52068A96821
:1007800020F0F000084320602878C0075CD04D4975
:100790006868083902281AD003281BD00968012884
:1007A0001BD08905002966DA216821F00301014385
:1007B0002160FFF715FE6968074641F2883002297B
:1007C00014D0032920D0012981462AD038E00968B5
:1007D0008903E7E709688901E4E78907E2E700BFE1
:1007E000FFF7FEFDC11B494501D926E0814620687F
:1007F000C0F381000228F3D126E000BFFFF7F0FD2F
:10080000C11B494501D918E081462068C0F3810029
:100810000328F3D118E000BFFFF7E2FDC11B4945F3
:100820000BD82068C0F381000128F5D10CE022E04C
:10083000FFF7D6FDC11B494502D90320BDE8F0876B
:10084000206810F00C0FF3D1D8F80010404601F0EA
:100850000101B14211D9012E03D1016841F0040117
:100860000160016821F0010131430160006800F07E
:100870000100B04201D00120E0E72878400705D50B
:100880002068E96820F4E0600843206028780007C9
:1008900006D52068296920F4605040EAC100206034
:1008A00000F038F82168084AC1F30311515CC840D0
:1008B0000649086006480068BDE8F047FFF7B8BE83
:1008C000003C02400838024079180008100000205F
:1008D000040000200448054900680968044AC1F37F
:1008E0000221515CC84070471000002008380240C7
:1008F000891800080448054900680968044AC1F3DA
:10090000C221515CC84070471000002008380240E6
:1009100089180008134A116801F00C0004280CD053
:1009200008280CD00C280CD0101F0068C0F34231EE
:100930004FF40040491C884070470B4870470B48F3
:1009400070470B48C1F383431268C05CC1F3815107
:10095000491CD20301D5054A00E0034A5043B0FBCD
:10096000F1F07047083802400024F40000366E01B0
:10097000701800082DE9F84F04007DD0FC4801688C
:10098000006801F00C0700F480362078F94DC007AC
:1009900041D0082F12D00C2F02D1B6F5803F0DD0D8
:1009A0006068012811D008B1052818D0286820F403
:1009B00080302860286820F4802009E028688003BF
:1009C00029D560680028D8D025E0286840F4803018
:1009D0002860606890B1FFF703FD80460AE0286850
:1009E00040F480202860F0E7FFF7FAFCA0EB080055
:1009F00064287BD828688003F6D50CE0FFF7F0FC6C
:100A0000804605E0FFF7ECFCA0EB08006428F0D876
:100A100028688003F6D42078DFF85CB3DFF85C83C5
:100A200080074FF001094FF0000A35D5042F0AD096
:100A30000C2F00D13EB1E068F8B1C8F80090FFF784
:100A4000CFFC06460BE0286880070BD5E06801283C
:100A500012D107E0FFF7C4FC801B0228C9D8286820
:100A60008007F7D5DBF80010226921F4F85141EA3C
:100A70000221CBF800100FE077E1C8F800A0FFF7E3
:100A8000AFFC064605E000BFFFF7AAFC801B02286A
:100A9000AFD828688007F7D42078C00674D53FB156
:100AA000A069E0B3C8F82090FFF79AFC06464AE038
:100AB0002868800502D5A069002884D0206ADBF868
:100AC00000105E4601F46041884210D900F0A4FB9A
:100AD0000028BDD13068216A20F4604008433060AE
:100AE000217F306861F31F6030600FE096E031686D
:100AF00021F4604101433160217F306861F31F6060
:100B00003060206A00F088FB0028A1D1216A4FF4F0
:100B1000004009EB513188409549096800E025E023
:100B2000974AC1F30311515CC84096490860964842
:100B30000068FFF77DFD00286FD125E0FFF750FC2E
:100B4000801B02286AD828688005F7D5DBF80010DA
:100B5000226A21F460411143CBF80010227FDBF8B8
:100B6000001062F31F61CBF800100DE0C8F820A060
:100B7000FFF736FC064604E0FFF732FC801B022834
:100B80004CD828688005F7D42078804E000722D5FD
:100B90007F48616981B1C0F80090FFF721FC83466E
:100BA00006E000BFFFF71CFCA0EB0B00022835D8C5
:100BB00030688007F6D50EE0C0F800A0FFF710FC03
:100BC000834605E0FFF70CFCA0EB0B00022825D8BC
:100BD00030688007F6D4207840076DD56B484FF019
:100BE000000B10380068C0000BD46848103801684A
:100BF00041F08051016000684FF0010B00F080501F
:100C0000009064480168C90514D4016841F48071FA
:100C10000160FFF7E5FB009008E08DE079E000BFA0
:100C2000FFF7DEFB0099401A642872D85948006823
:100C3000C005F5D5A06801280AD008B1052811D053
:100C4000306820F480703060306820F4806002E00A
:100C5000306840F480703060A068A8B1FFF7C0FB36
:100C600000900DE0306840F480603060F0E700BF35
:100C7000FFF7B6FB0099411A41F2883081425AD8F9
:100C800030688005F4D50EE0FFF7AAFB009007E07E
:100C9000FFF7A6FB0099411A41F2883081424AD8F9
:100CA00030688005F4D4BBF1000F05D03748103808
:100CB000016821F080510160606A58B30C2F41D067
:100CC0000228504605D0C8F86000FFF789FB0446AB
:100CD00034E04746C8F86000FFF782FB064604E0B0
:100CE000FFF77EFB801B022825D828688001F7D4F7
:100CF000D4E90A1001431E48226B036823F47D03E4
:100D00001A4311430160C7F86090FFF769FB04467E
:100D100007E010E040E000BFFFF762FB001B022885
:100D200009D828688001F7D536E000BFFFF758FBE7
:100D3000001B022802D90320BDE8F88F2868800133
:100D4000F4D429E00128F7D009480068A26A00F429
:100D50008031914209D1E26A00F47011914204D1CC
:100D6000216B00F44000884216D00120E4E7000027
:100D70000838024000380240043802400000474270
:100D800079180008100000200400002034380240C8
:100D900080064742007000400020CDE770B5040097
:100DA00005D00025A56294F8510010B106E001209D
:100DB00070BD84F85050204600F030F8022084F8CE
:100DC00051002068016821F040010160D4E901016F
:100DD0000843D4E903121143084361690843218B96
:100DE00001F400710843E1690843216A0843A16ADC
:100DF000084321680860A069042101EA1040616A83
:100E00000843216848602068C16921F40061C1611C
:100E10006565012084F85100002070BD2DE9F04186
:100E200086B0044614216846FFF79FF92849274BEE
:100E3000226800252648083902240326DFF894801A
:100E40009A4216D1026842F480420260006800F4BF
:100E500080400590086840F0020008600868694614
:100E600000F00200059098008DE8710005200490C4
:100E700026E0194B9A4226D1026842F400420260F1
:100E8000006800F400400590086840F00400086025
:100E9000086800F004000590086840F0020008604F
:100EA0000868062700F00200059098148DE8F1000C
:100EB00069460A48FFF7B0F918208DE8F100694645
:100EC0004046FFF7A9F906B0BDE8F08100380040C0
:100ED0002438024000040240003C00400008024068
:100EE00010B5401EB0F1807F01D3012010BD4FF03E
:100EF000E02460610F21601700F00AFB0020A06170
:100F000007202061002010BD70B5040004D094F8C3
:100F10003900002510B106E0012070BD84F838507A
:100F2000204600F023F8242084F839002068C168A6
:100F300021F40051C160204600F006FA20680169E2
:100F400021F4904101612068416921F02A01416149
:100F50002068C16841F40051C160E563202084F835
:100F6000390084F83A00002070BD0000F0B587B069
:100F7000044614216846FFF7F8F821481F4F2668F9
:100F800000221F490838022303240725BE4215D139
:100F90000E6846F400360E60096801F400310591D0
:100FA000016841F0010101600068694600F001003C
:100FB00005900C20CDE90003124818E0124FBE4204
:100FC0001AD10E6846F480260E60096801F480216B
:100FD0000591016841F0040101600068694600F074
:100FE000040005904FF44060CDE90003074802AECD
:100FF00086E83400FFF710F907B0F0BD0044004068
:10100000243802400000024000480040000802402E
:101010002DE9F843044690F839001F4616460D4660
:10102000202850D1A5B19EB194F8380001284AD0AB
:10103000012084F838004FF00008C4F83C802120DB
:1010400084F83900FFF7CCF9A6848146E68426E0CF
:101050000120BDE8F883E08C401EE084A0684B4688
:10106000B0F5805F4FF000024FF0800120460097FE
:1010700003D000F001FAE8B90DE000F0FDF9C8B9BD
:1010800028882168C0F308004860206908B16D1CF9
:1010900005E0AD1C03E0216815F8010B4860E08C09
:1010A0000028D8D14B46002240212046009700F06E
:1010B000E3F908B10320CCE7202084F8390084F854
:1010C00038800020C5E70220C3E7FEE7F0B587B00F
:1010D00014216846FFF749F82E48016841F00101E4
:1010E0000160016801F001010591016841F004010E
:1010F0000160016801F004010591016841F00201FD
:1011000001600068244E00F0020005900022E021FA
:101110003046FFF75FF9214F002280213846FFF764
:1011200059F9E020009001250024CDE901546946D9
:1011300030460394FFF770F8102000901848CDE96E
:10114000010469463846FFF767F82803CDE9000433
:10115000694614480294FFF75FF880200090CDE9BB
:101160000154694638460394FFF756F84FF4C050CF
:10117000CDE90004694630460294FFF74DF800229D
:1011800011460A20FFF7A2FA0A20FFF791FA07B0EA
:10119000F0BD00001C380240000002400008024080
:1011A00000002110000402400B480A494FF400726D
:1011B00001604FF48271416000218160C160016172
:1011C000C0E90512C1610162416281620A21C16206
:1011D000FFF7E4BD00380040200100200B480A4919
:1011E0004FF4007201604FF4827141600021816010
:1011F000C1600161C0E90512C161016241628162A1
:101200000A21C162FFF7CABD003C004078010020FE
:10121000FEE770477047000038B51C490023096895
:101220001B4A11F0F00F23D118491C310C68E5005E
:10123000184C03D5216801F4C0540EE00D6845F048
:1012400080550D600D6805F08055009524680D6887
:1012500004F4C05425F080550D60B4F5C05F07D18B
:10126000B0F5404F04D11068012340F00400106035
:10127000106820F0010018431060106800F00100B1
:10128000984201D0012038BD002038BD0838024006
:10129000003C0240007000407047FFF7B1B9000009
:1012A00010B592B034216846FEF75FFF14210DA8F7
:1012B000FEF75BFF0F48016821F4C05141F4006163
:1012C00001601020009001200024CDE906044FF4B5
:1012D0002040CDE908046846FFF74CFB0F20CDE91C
:1012E0000D040F94109400210DA81194FFF720FA1B
:1012F00012B010BD007000400F48016841F48071C9
:1013000001600D4908310A680C4B1A400A600268F6
:101310000B4B1A400260026822F4802202600868C7
:1013200020F47D0008600020091D086005494FF089
:101330000060086070470000003802400CC0FF8861
:10134000FEFFFEEE08ED00E02DE9F04104460068E6
:101350000169E26821F44051114301612169A068EB
:10136000E26908436169114322680843D16849F280
:101370000C6399430143D16020684169A26921F45B
:10138000407111434161E16964253226B1F5004F96
:101390003848216804D081423DD1FFF7ABFA3CE0E8
:1013A000814202D1FFF7A6FA01E0FFF793FA00EBC2
:1013B000C00101EB001160686FF0180C4000B1FB38
:1013C000F0F3B3FBF5F3B1FBF0F7B1FBF0F203FB85
:1013D0000CF307EB830306EBC303B2FBF5F2B3FB9D
:1013E000F5F3120103F0F80302EB4302B1FBF0F353
:1013F000B1FBF0F0B0FBF5F000FB0CF003EB80006C
:1014000006EBC000B0FBF5F000F0070021681044C7
:101410008860BDE8F081FFF75DFA00EBC00101EBE9
:10142000001160686FF018078000B1FBF0F2B2FBAA
:10143000F5F2B1FBF0F37A4303EB8202B1FBF0F378
:1014400006EB0212B2FBF5F2B3FBF5F302F0F00289
:1014500002EB0312B1FBF0F3B1FBF0F0B0FBF5F0DF
:10146000784303EB800006EB0010B0FBF5F000F0D2
:101470000F00CBE7003801402DE9F04198461746B0
:101480000E460446069D1DE0681C1BD02DB1FEF7DC
:10149000A7FFA0EB0800A84214D92068C16821F476
:1014A000D071C1602068416921F0010141612020B3
:1014B00084F8390084F83A00002084F838000320CA
:1014C000BDE8F0812068006836EA000004D0002002
:1014D000B842D9D00020F3E70120F9E7FEE7000089
:1014E0000FB41CB50246002007AC00290BD0491EE2
:1014F000CDE90021054B6A462146069800F028F800
:10150000009A002111701CBC5DF814FBA5160008A0
:101510000907090E002804DB00F1E02080F8001420
:10152000704700F00F0000F1E02080F8141D7047B4
:1015300002E008C8121F08C1002AFAD1704770479C
:10154000002001E001C1121F002AFBD170470000FA
:101550002DE9FF4F89B09B460446002506E025286B
:101560000BD05A460B999047641C6D1C20780028BC
:10157000F5D10DB02846BDE8F08F0027B84601220E
:10158000474900E0074314F8013F203B02FA03F00B
:101590000842F7D120782E2819D114F8010F47F00E
:1015A00004072A280ED06FF02F022078A0F1300116
:1015B00009290CD808EB880102EB410100EB010876
:1015C000641CF2E70A98641C50F8048B0A90207897
:1015D0000028CED0642808D0692806D075281ED0EF
:1015E0005A460B9990476D1C58E00A994FF00A092A
:1015F00001C90A91002802DA40422D2102E0390592
:1016000004D52B218DF82010012103E0F90704D027
:101610002021F7E78A4608AE0DE00021FAE70A9993
:101620004FF00A0901C90A91F7E74946FEF7A8FDFC
:10163000303106F8011D0028F7D1ADEB060000F1AE
:101640002009780701D44FF00108C84502DDA8EB56
:10165000090000E000208046002706E008A85A465E
:10166000C05D0B9990476D1C7F1C5745F6DB04E06D
:1016700030205A460B9990476D1CB8F10001A8F133
:101680000108F5DC05E016F8010B5A460B99904766
:101690006D1CB9F10001A9F10109F4DC641C65E7D6
:1016A000092801004A68002A06D00A68531C0B600A
:1016B00010704868401E48607047000010B50178FF
:1016C0001A481B4C062930D2DFE801F00309111734
:1016D000191F01228021FEF77DFE012201E0012277
:1016E00006E040212046FEF775FE012217E00022A9
:1016F0008021FEF76FFE0022F3E7002200E00122C6
:101700008021FEF767FE012204E000228021FEF71F
:1017100061FE002240212046FEF75CFE00222046AA
:10172000BDE810408021FEF755BE10BD0008024004
:10173000000002401CB500248DF80440FEF768FF4D
:10174000FFF7AEFDFFF7C2FC3B483A494FF4E135E5
:101750000160C0E901540C26C460C0E904468461FC
:10176000C461FFF7D1FB36483449DFF8D880016007
:10177000C0E901840F14C0E9034744618461C46176
:101780000462FEF733FE2E482F4954300160C0E951
:101790000184C0E9034744618461C4610462FEF7C7
:1017A00025FEFFF701FDFFF719FD234827494030CB
:1017B0000160C0E90154C460C0E904468461C461A9
:1017C000FFF7A2FB224D012602274FF003084FF03E
:1017D000040900BF9DF80400009019481DA264216F
:1017E00064382B68FFF77CFE1549012364226439B5
:1017F0001148FFF70DFC2868012817D12C609DF8CF
:101800000400052812D2DFE800F00306090C0F00DF
:101810008DF804600AE08DF8047007E08DF804800C
:1018200004E08DF8049001E08DF8044001A8FFF772
:1018300045FFCFE700440040D001002000540040A5
:1018400078000020A08601000058004000480040B9
:10185000000000200D0A547269676765723A2025FE
:10186000642C2053746174653A2025640D0A0000CD
:10187000030406080C1018203000000000000000CF
:10188000000102030406070809000000000102032A
:1018900004000000B418000800000020140000003C
:1018A00030150008C8180008140000203C0600008D
:1018B00040150008000000001000000001000000BA
:0818C0000000000068FF1F009A
:0400000508000125C9
:00000001FF
