:020000040800F2
:100000005804002039010008830D00087F0D000806
:10001000810D0008A50100084D1000080000000037
:10002000000000000000000000000000090E0008B1
:10003000A701000800000000850D00080B0E000855
:100040005301000853010008530100085301000840
:100050005301000853010008530100085301000830
:100060005301000853010008530100085301000820
:100070005301000853010008530100085301000810
:100080005301000853010008530100085301000800
:1000900053010008530100085301000853010008F0
:1000A00053010008530100085301000853010008E0
:1000B00053010008530100085301000853010008D0
:1000C00053010008530100085301000853010008C0
:1000D00053010008530100085301000853010008B0
:1000E00053010008530100085301000853010008A0
:1000F00053010008000000005301000853010008EC
:10010000530100085301000853010008530100087F
:1001100053010008530100085301000800000000CB
:1001200053010008DFF80CD000F02AF8004800471F
:100130008D100008580400200648804706480047F4
:10014000FEE7FEE7FEE7FEE7FEE7FEE7FEE7FEE787
:10015000FEE7FEE7690E000825010008D2B201E0C3
:1001600000F8012B491EFBD270470022F6E710B5BC
:1001700013460A4604461946FFF7F0FF204610BD15
:10018000064C074D06E0E06840F0010394E80700E4
:1001900098471034AC42F6D3FFF7C8FF941100081B
:1001A000B4110008FEE7704770B5044600F0ECF8A3
:1001B0000546601C02D004484068044400F0E4F89E
:1001C000401BA042FAD370BD080000202DE9F84F73
:1001D000DFF880B100234FF0010C4FF0030A4FF01D
:1001E0000F090BF1040EAEE00CFA03F614EA060256
:1001F00070D04C68022C01D0122C11D1DC0800EB1D
:1002000084073C6A5D07ED0E09FA05F824EA080444
:10021000D1F8108008FA05F848EA0408C7F82080E9
:1002200007685D0091F804800AFA05F408F00308F5
:10023000A74308FA05F848EA0708C0F800804F68A5
:10024000012F05D0022F03D0112F01D0122F11D171
:100250008768D1F80C80A74308FA05F848EA070830
:10026000C0F808804768B7430E79C6F300169E4071
:100270003E434660C668A6438C68AC403443C460C5
:100280004C68E4005ED5344C256845F001052560D6
:10029000246823F0030504F0010400942F4C2E1968
:1002A000B4689D072F0F09FA07F5AC432C4DA842FF
:1002B00001D100251FE02B4DA84201D101251AE0F4
:1002C000294DA84201D1022515E0284DA84202D1AE
:1002D000032510E036E0264DA84201D104250AE0AE
:1002E000244DA84201D1052505E0234DA84201D1A6
:1002F000062500E00725BD402543B560DBF800403A
:100300005D464E689443F60300D514432C60DEF836
:10031000004075464E689443B60300D514432C60E4
:100320000C4D08352C684E689443F60200D51443F2
:100330002C60084D0C352C684E689443B60200D5ED
:1003400014432C605B1C0A681446DA407FF44CAFFF
:10035000BDE8F88F00040140203802400000014051
:10036000000002400004024000080240000C02406D
:100370000010024000140240001802400AB18161DE
:1003800070470904FBE700000148806870470000DF
:10039000080000200248816842681144816070476B
:1003A0000800002010B50024032000F06BF80020A6
:1003B00000F008F808B1012401E000F025F820461B
:1003C00010BD000070B50E4E05460024706898B14F
:1003D0004FF47A71B1FBF0F00A490968B1FBF0F013
:1003E00000F098FB40B9102D06D200222946501E7D
:1003F00000F028F8356000E00124204670BD0000C0
:1004000008000020140000200D4808B5016841F0E4
:1004100000410160016801F000410091011F0A687C
:1004200042F001020A60096801F0010100910168CF
:1004300041F080510160006800F08050009008BDDC
:1004400024380240F0B40E4B1B680C46C3F3022361
:10045000C3F10705042D00D90425191D072901D270
:10046000002300E0DB1E012606FA05F1491E2140AB
:1004700099409E40761E16403143F0BC00F0E7BD27
:100480000CED00E0064900F0070208684FF6FF0394
:10049000184040EA0220034A1043086070470000F9
:1004A0000CED00E00000FA052DE9F0470E460500CE
:1004B00079D0DFF88481D8F8000000F00100B04264
:1004C00014D2012E05D1D8F8001041F00401C8F86B
:1004D0000010D8F8001021F001013143C8F80010D5
:1004E000D8F8000000F00100B0425CD12878534CED
:1004F000800705D52068A96820F0F0000843206037
:100500002878C0075CD04D496868083902281AD09D
:1005100003281BD0096801281BD08905002966DA49
:10052000216821F0030101432160FFF72DFF696875
:10053000074641F28830022914D0032920D001292E
:1005400081462AD038E009688903E7E7096889010C
:10055000E4E78907E2E700BFFFF716FFC11B494543
:1005600001D926E081462068C0F381000228F3D13A
:1005700026E000BFFFF708FFC11B494501D918E07D
:1005800081462068C0F381000328F3D118E000BF42
:10059000FFF7FAFEC11B49450BD82068C0F3810064
:1005A0000128F5D10CE022E0FFF7EEFEC11B494522
:1005B00002D90320BDE8F087206810F00C0FF3D1BA
:1005C000D8F80010404601F00101B14211D9012EC6
:1005D00003D1016841F004010160016821F00101CB
:1005E00031430160006800F00100B04201D00120F9
:1005F000E0E72878400705D52068E96820F4E06046
:10060000084320602878000706D52068296920F46F
:10061000605040EAC100206000F038F82168084AC4
:10062000C1F30311515CC8400649086006480068E0
:10063000BDE8F047FFF7C6BE003C02400838024064
:100640007911000814000020080000200448054922
:1006500000680968044AC1F30221515CC840704730
:100660001400002008380240891100080448054998
:1006700000680968044AC1F3C221515CC840704750
:10068000140000200838024089110008134A11683C
:1006900001F00C0004280CD008280CD00C280CD039
:1006A000101F0068C0F342314FF40040491C8840DD
:1006B00070470B4870470B4870470B48C1F38343A2
:1006C0001268C05CC1F38151491CD20301D5054AAF
:1006D00000E0034A5043B0FBF1F070470838024095
:1006E0000024F40000366E01701100082DE9F84F67
:1006F00004007DD0FC480168006801F00C0700F49C
:1007000080362078F94DC00741D0082F12D00C2F29
:1007100002D1B6F5803F0DD06068012811D008B134
:10072000052818D0286820F480302860286820F434
:10073000802009E02868800329D560680028D8D087
:1007400025E0286840F480302860606890B1FFF7A9
:100750001BFE80460AE0286840F480202860F0E70D
:10076000FFF712FEA0EB080064287BD828688003FE
:10077000F6D50CE0FFF708FE804605E0FFF704FE23
:10078000A0EB08006428F0D828688003F6D420780D
:10079000DFF85CB3DFF85C8380074FF001094FF0AE
:1007A000000A35D5042F0AD00C2F00D13EB1E068E5
:1007B000F8B1C8F80090FFF7E7FD06460BE028689F
:1007C00080070BD5E068012812D107E0FFF7DCFDB8
:1007D000801B0228C9D828688007F7D5DBF80010ED
:1007E000226921F4F85141EA0221CBF800100FE010
:1007F00077E1C8F800A0FFF7C7FD064605E000BF97
:10080000FFF7C2FD801B0228AFD828688007F7D405
:100810002078C00674D53FB1A069E0B3C8F8209035
:10082000FFF7B2FD06464AE02868800502D5A069B8
:10083000002884D0206ADBF800105E4601F4604195
:10084000884210D900F0A0FA0028BDD13068216A92
:1008500020F4604008433060217F306861F31F60FE
:1008600030600FE096E0316821F46041014331606F
:10087000217F306861F31F603060206A00F084FAE5
:100880000028A1D1216A4FF4004009EB5131884082
:100890009549096800E025E0974AC1F30311515CCE
:1008A000C8409649086096480068FFF78BFD00280D
:1008B0006FD125E0FFF768FD801B02286AD8286801
:1008C0008005F7D5DBF80010226A21F4604111435E
:1008D000CBF80010227FDBF8001062F31F61CBF829
:1008E00000100DE0C8F820A0FFF74EFD064604E01A
:1008F000FFF74AFD801B02284CD828688005F7D4F2
:100900002078804E000722D57F48616981B1C0F808
:100910000090FFF739FD834606E000BFFFF734FD86
:10092000A0EB0B00022835D830688007F6D50EE022
:10093000C0F800A0FFF728FD834605E0FFF724FD7F
:10094000A0EB0B00022825D830688007F6D4207869
:1009500040076DD56B484FF0000B10380068C000A1
:100960000BD468481038016841F08051016000687C
:100970004FF0010B00F08050009064480168C905F9
:1009800014D4016841F480710160FFF7FDFC009010
:1009900008E08DE079E000BFFFF7F6FC0099401A0F
:1009A000642872D859480068C005F5D5A0680128A8
:1009B0000AD008B1052811D0306820F4807030606A
:1009C000306820F4806002E0306840F4807030606D
:1009D000A068A8B1FFF7D8FC00900DE0306840F4A3
:1009E00080603060F0E700BFFFF7CEFC0099411A4D
:1009F00041F2883081425AD830688005F4D50EE043
:100A0000FFF7C2FC009007E0FFF7BEFC0099411A17
:100A100041F2883081424AD830688005F4D4BBF175
:100A2000000F05D037481038016821F0805101606F
:100A3000606A58B30C2F41D00228504605D0C8F840
:100A40006000FFF7A1FC044634E04746C8F86000A8
:100A5000FFF79AFC064604E0FFF796FC801B02288D
:100A600025D828688001F7D4D4E90A1001431E482C
:100A7000226B036823F47D031A4311430160C7F816
:100A80006090FFF781FC044607E010E040E000BF03
:100A9000FFF77AFC001B022809D828688001F7D5E7
:100AA00036E000BFFFF770FC001B022802D90320CC
:100AB000BDE8F88F28688001F4D429E00128F7D038
:100AC00009480068A26A00F48031914209D1E26AC3
:100AD00000F47011914204D1216B00F4400088426F
:100AE00016D00120E4E70000083802400038024038
:100AF0000438024000004742791100081400002029
:100B00000800002034380240800647420070004050
:100B10000020CDE710B5401EB0F1807F01D3012049
:100B200010BD4FF0E02460610F21601700F08FFAD4
:100B30000020A06107202061002010BD70B50400D6
:100B400004D094F83900002510B106E0012070BDF2
:100B500084F83850204600F023F8242084F8390027
:100B60002068C16821F40051C160204600F0A4F95A
:100B70002068016921F4904101612068416921F0F8
:100B80002A0141612068C16841F40051C160E563F8
:100B9000202084F8390084F83A00002070BD00005D
:100BA00010B586B0044614216846FFF7DEFA1449F2
:100BB0002068884221D11348016841F480410160D6
:100BC000006800F4804005900E48001F016841F065
:100BD000010101600068694600F0010005904FF4D2
:100BE000F05000900220019000200290032003901A
:100BF000072004900448FFF7E9FA06B010BD000092
:100C00000038014020380240000002402DE9F8433E
:100C1000044690F83A00994616460D4620284FD1D2
:100C200095B18EB194F83800012849D0012084F89C
:100C300038000027E763222084F83A00FFF7A4FB7E
:100C4000A6858046E68531E00120BDE8F883E08D89
:100C5000401EE085A0684346B0F5805F4FF000027B
:100C60004FF020012046CDF8009004D000F0BCF9F0
:100C700098B10320E9E700F0B7F90028F9D120691D
:100C800000282068406803D0C1B225F8011B0DE0A0
:100C9000C0F3080125F8021B08E02069002820683D
:100CA000406801D000F07F0005F8010BE08D0028BE
:100CB000CDD1202084F83A0084F838700020C4E7B1
:100CC0000220C2E72DE9F843044690F839001F4698
:100CD00016460D46202850D1A5B19EB194F8380093
:100CE00001284AD0012084F838004FF00008C4F8E9
:100CF0003C80212084F83900FFF746FBA68481461A
:100D0000E68426E00120BDE8F883E08C401EE08404
:100D1000A0684B46B0F5805F4FF000024FF08001B5
:100D20002046009703D000F05FF9E8B90DE000F02D
:100D30005BF9C8B928882168C0F3080048602069B9
:100D400008B16D1C05E0AD1C03E0216815F8010B2E
:100D50004860E08C0028D8D14B4600224021204634
:100D6000009700F041F908B10320CCE7202084F877
:100D7000390084F838800020C5E70220C3E7FEE789
:100D8000FEE770477047000038B51C49002309682A
:100D90001B4A11F0F00F23D118491C310C68E500F3
:100DA000184C03D5216801F4C0540EE00D6845F0DD
:100DB00080550D600D6805F08055009524680D681C
:100DC00004F4C05425F080550D60B4F5C05F07D120
:100DD000B0F5404F04D11068012340F004001060CA
:100DE000106820F0010018431060106800F0010046
:100DF000984201D0012038BD002038BD083802409B
:100E0000003C0240007000407047FFF7C3BA00008A
:100E100010B592B034216846FFF7A7F914210DA848
:100E2000FFF7A3F90F48016821F4C05141F40061B4
:100E300001601020009001200024CDE906044FF449
:100E40002040CDE908046846FFF750FC0F20CDE9AB
:100E50000D040F94109400210DA81194FFF724FBAA
:100E600012B010BD007000400F48016841F480715D
:100E700001600D4908310A680C4B1A400A6002688B
:100E80000B4B1A400260026822F48022026008685C
:100E900020F47D0008600020091D086005494FF01E
:100EA0000060086070470000003802400CC0FF88F6
:100EB000FEFFFEEE08ED00E02DE9F041044600687B
:100EC0000169E26821F44051114301612169A06880
:100ED000E26908436169114322680843D16849F215
:100EE0000C6399430143D16020684169A26921F4F0
:100EF000407111434161E16964253226B1F5004F2B
:100F00003848216804D081423DD1FFF7AFFB3CE077
:100F1000814202D1FFF7AAFB01E0FFF797FB00EB4C
:100F2000C00101EB001160686FF0180C4000B1FBCC
:100F3000F0F3B3FBF5F3B1FBF0F7B1FBF0F203FB19
:100F40000CF307EB830306EBC303B2FBF5F2B3FB31
:100F5000F5F3120103F0F80302EB4302B1FBF0F3E7
:100F6000B1FBF0F0B0FBF5F000FB0CF003EB800000
:100F700006EBC000B0FBF5F000F00700216810445C
:100F80008860BDE8F081FFF761FB00EBC00101EB79
:100F9000001160686FF018078000B1FBF0F2B2FB3F
:100FA000F5F2B1FBF0F37A4303EB8202B1FBF0F30D
:100FB00006EB0212B2FBF5F2B3FBF5F302F0F0021E
:100FC00002EB0312B1FBF0F3B1FBF0F0B0FBF5F074
:100FD000784303EB800006EB0010B0FBF5F000F067
:100FE0000F00CBE7003801402DE9F0419846174645
:100FF0000E460446069D1DE0681C1BD02DB1FFF770
:10100000C3F9A0EB0800A84214D92068C16821F4F4
:10101000D071C1602068416921F001014161202047
:1010200084F8390084F83A00002084F8380003205E
:10103000BDE8F0812068006836EA000004D0002096
:10104000B842D9D00020F3E70120F9E7FEE709070D
:10105000090E002804DB00F1E02080F8001470473E
:1010600000F00F0000F1E02080F8141D704702E04E
:1010700008C8121F08C1002AFAD170477047002023
:1010800001E001C1121F002AFBD17047334D86B029
:1010900001262E704FF0020885F80180FFF782F9D3
:1010A000FFF7B6FE14216846FFF75FF82C48016889
:1010B00041F00101016000682A4F00F00100059035
:1010C000002220213846FFF759F920200090002403
:1010D000CDE90164694638460394FFF777F8234861
:1010E000214901604FF4E131C0E901140C21C460D1
:1010F000C0E904418901C0E90614FFF71FFD6C1E19
:10110000C14604F103084FF4FA7A14490A23022273
:10111000891C1648FFF77AFD0028F6D120780128AF
:101120000AD198F80100012802D0022803D003E078
:1011300085F8019000E06E70002220213846FFF70C
:101140001DF90A23022205490848FFF7BBFD0028C4
:10115000F7D15046FFF728F8D7E70000010000203C
:101160001C380240000002400038014018000020F6
:10117000030406080C1018203000000000000000D6
:101180000001020304060708090000000001020331
:1011900004000000B4110008000000201800000046
:1011A0006E100008CC110008180000204004000058
:1011B0007E10000801000000000000001000000088
:0C11C000010000000000000068FF1F009C
:0400000508000125C9
:00000001FF
