:020000040800F2
:100000006004002039010008830F0008E70E000893
:10001000810F0008A5010008791300080000000006
:1000200000000000000000000000000009100008AF
:10003000A701000800000000850F00080B10000851
:100040005301000853010008530100085301000840
:100050005301000853010008530100085301000830
:100060005301000853010008530100085301000820
:100070005301000853010008530100085301000810
:100080005301000853010008530100085301000800
:1000900053010008530100085301000853010008F0
:1000A00053010008530100085301000853010008E0
:1000B00053010008530100085301000853010008D0
:1000C00053010008530100085301000853010008C0
:1000D00053010008530100086D1300085301000884
:1000E000A90100085301000853010008530100084A
:1000F00053010008000000005301000853010008EC
:10010000530100085301000853010008530100087F
:1001100053010008530100085301000800000000CB
:1001200053010008DFF80CD000F02AF8004800471F
:100130001D14000860040020064880470648004758
:10014000FEE7FEE7FEE7FEE7FEE7FEE7FEE7FEE787
:10015000FEE7FEE76110000825010008D2B201E0C9
:1001600000F8012B491EFBD270470022F6E710B5BC
:1001700013460A4604461946FFF7F0FF204610BD15
:10018000064C074D06E0E06840F0010394E80700E4
:1001900098471034AC42F6D3FFF7C8FF08150008A3
:1001A00028150008FEE770474FF4005000F046B8ED
:1001B00010B500F03AFD0121002000F0CDF9BDE8B6
:1001C000104000F017BD10B590F82110002402294E
:1001D00003D00421816301241AE001680A6822F037
:1001E0000E020A6001680A6822F001020A6090F8B3
:1001F0004010C36B01F01C02012101FA02F25A60A7
:1002000080F82110002180F82010416B01B188474F
:10021000204610BD70B5044600F000F90546601C8C
:1002200002D004484068044400F0F8F8401BA042A3
:10023000FAD370BD0000002070470000044910B5DB
:100240000A68024202D00860FFF7F6FF10BD000006
:10025000140401402DE9F84FDFF880B100234FF07E
:10026000010C4FF0030A4FF00F090BF1040EAEE042
:100270000CFA03F614EA060270D04C68022C01D086
:10028000122C11D1DC0800EB84073C6A5D07ED0EEF
:1002900009FA05F824EA0804D1F8108008FA05F8EC
:1002A00048EA0408C7F8208007685D0091F80480D8
:1002B0000AFA05F408F00308A74308FA05F848EA23
:1002C0000708C0F800804F68012F05D0022F03D027
:1002D000112F01D0122F11D18768D1F80C80A743BC
:1002E00008FA05F848EA0708C0F808804768B743E5
:1002F0000E79C6F300169E403E434660C668A6438C
:100300008C68AC403443C4604C68E4005ED5344C27
:10031000256845F001052560246823F0030504F0F5
:10032000010400942F4C2E19B4689D072F0F09FA71
:1003300007F5AC432C4DA84201D100251FE02B4D01
:10034000A84201D101251AE0294DA84201D1022578
:1003500015E0284DA84202D1032510E036E0264DD5
:10036000A84201D104250AE0244DA84201D1052567
:1003700005E0234DA84201D1062500E00725BD4038
:100380002543B560DBF800405D464E689443F603B4
:1003900000D514432C60DEF8004075464E68944347
:1003A000B60300D514432C600C4D08352C684E68FC
:1003B0009443F60200D514432C60084D0C352C688C
:1003C0004E689443B60200D514432C605B1C0A6847
:1003D0001446DA407FF44CAFBDE8F88F00040140CA
:1003E00020380240000001400000024000040240AA
:1003F00000080240000C02400010024000140240BD
:100400000018024042690A4200D009048161704725
:100410000AB1816170470904FBE700000148806868
:1004200070470000000000200248816842681144C3
:10043000816070470000002010B50024032000F008
:1004400079F8002000F008F808B1012401E000F07C
:1004500025F8204610BD000070B50E4E054600245C
:10046000706898B14FF47A71B1FBF0F00A490968ED
:10047000B1FBF0F000F0C5FB40B9102D06D2002210
:100480002946501E00F036F8356000E00124204671
:1004900070BD0000000000200C0000200D4808B5D1
:1004A000016841F000410160016801F000410091E4
:1004B000011F0A6842F001020A60096801F00101A7
:1004C0000091016841F080510160006800F08050A7
:1004D000009008BD24380240002809DB00F01F020C
:1004E000012191404009800000F1E020C0F8001196
:1004F00070470000F0B40E4B1B680C46C3F3022398
:10050000C3F10705042D00D90425191D072901D2BF
:10051000002300E0DB1E012606FA05F1491E2140FA
:1005200099409E40761E16403143F0BC00F03ABF21
:100530000CED00E0064900F0070208684FF6FF03E3
:10054000184040EA0220034A104308607047000048
:100550000CED00E00000FA05094A136823F00303DC
:10056000034313600748026822F004020260012975
:1005700003D040BF20BF20BF704730BF704700008E
:100580000070004010ED00E02DE9F0470E46050038
:1005900079D0DFF88481D8F8000000F00100B04283
:1005A00014D2012E05D1D8F8001041F00401C8F88A
:1005B0000010D8F8001021F001013143C8F80010F4
:1005C000D8F8000000F00100B0425CD12878534C0C
:1005D000800705D52068A96820F0F0000843206056
:1005E0002878C0075CD04D496868083902281AD0BD
:1005F00003281BD0096801281BD08905002966DA69
:10060000216821F0030101432160FFF707FF6968BA
:10061000074641F28830022914D0032920D001294D
:1006200081462AD038E009688903E7E7096889012B
:10063000E4E78907E2E700BFFFF7F0FEC11B494589
:1006400001D926E081462068C0F381000228F3D159
:1006500026E000BFFFF7E2FEC11B494501D918E0C3
:1006600081462068C0F381000328F3D118E000BF61
:10067000FFF7D4FEC11B49450BD82068C0F38100A9
:100680000128F5D10CE022E0FFF7C8FEC11B494567
:1006900002D90320BDE8F087206810F00C0FF3D1D9
:1006A000D8F80010404601F00101B14211D9012EE5
:1006B00003D1016841F004010160016821F00101EA
:1006C00031430160006800F00100B04201D0012018
:1006D000E0E72878400705D52068E96820F4E06065
:1006E000084320602878000706D52068296920F48F
:1006F000605040EAC100206000F038F82168084AE4
:10070000C1F30311515CC8400649086006480068FF
:10071000BDE8F047FFF7A0BE003C024008380240A9
:10072000ED1400080C0000200000002004480549DA
:1007300000680968044AC1F30221515CC84070474F
:100740000C00002008380240FD1400080448054948
:1007500000680968044AC1F3C221515CC84070476F
:100760000C00002008380240FD140008134A1168EC
:1007700001F00C0004280CD008280CD00C280CD058
:10078000101F0068C0F342314FF40040491C8840FC
:1007900070470B4870470B4870470B48C1F38343C1
:1007A0001268C05CC1F38151491CD20301D5054ACE
:1007B00000E0034A5043B0FBF1F0704708380240B4
:1007C0000024F40080969800E41400082DE9F84F06
:1007D00004007DD0FC480168006801F00C0700F4BB
:1007E00080362078F94DC00741D0082F12D00C2F49
:1007F00002D1B6F5803F0DD06068012811D008B154
:10080000052818D0286820F480302860286820F453
:10081000802009E02868800329D560680028D8D0A6
:1008200025E0286840F480302860606890B1FFF7C8
:10083000F5FD80460AE0286840F480202860F0E753
:10084000FFF7ECFDA0EB080064287BD82868800344
:10085000F6D50CE0FFF7E2FD804605E0FFF7DEFD90
:10086000A0EB08006428F0D828688003F6D420782C
:10087000DFF85CB3DFF85C8380074FF001094FF0CD
:10088000000A35D5042F0AD00C2F00D13EB1E06804
:10089000F8B1C8F80090FFF7C1FD06460BE02868E4
:1008A00080070BD5E068012812D107E0FFF7B6FDFD
:1008B000801B0228C9D828688007F7D5DBF800100C
:1008C000226921F4F85141EA0221CBF800100FE02F
:1008D00077E1C8F800A0FFF7A1FD064605E000BFDC
:1008E000FFF79CFD801B0228AFD828688007F7D44B
:1008F0002078C00674D53FB1A069E0B3C8F8209055
:10090000FFF78CFD06464AE02868800502D5A069FD
:10091000002884D0206ADBF800105E4601F46041B4
:10092000884210D900F030FB0028BDD13068216A20
:1009300020F4604008433060217F306861F31F601D
:1009400030600FE096E0316821F46041014331608E
:10095000217F306861F31F603060206A00F014FB73
:100960000028A1D1216A4FF4004009EB51318840A1
:100970009549096800E025E0974AC1F30311515CED
:10098000C8409649086096480068FFF765FD002852
:100990006FD125E0FFF742FD801B02286AD8286846
:1009A0008005F7D5DBF80010226A21F4604111437D
:1009B000CBF80010227FDBF8001062F31F61CBF848
:1009C00000100DE0C8F820A0FFF728FD064604E05F
:1009D000FFF724FD801B02284CD828688005F7D437
:1009E0002078804E000722D57F48616981B1C0F828
:1009F0000090FFF713FD834606E000BFFFF70EFDF2
:100A0000A0EB0B00022835D830688007F6D50EE041
:100A1000C0F800A0FFF702FD834605E0FFF7FEFCEB
:100A2000A0EB0B00022825D830688007F6D4207888
:100A300040076DD56B484FF0000B10380068C000C0
:100A40000BD468481038016841F08051016000689B
:100A50004FF0010B00F08050009064480168C90518
:100A600014D4016841F480710160FFF7D7FC009055
:100A700008E08DE079E000BFFFF7D0FC0099401A54
:100A8000642872D859480068C005F5D5A0680128C7
:100A90000AD008B1052811D0306820F48070306089
:100AA000306820F4806002E0306840F4807030608C
:100AB000A068A8B1FFF7B2FC00900DE0306840F4E8
:100AC00080603060F0E700BFFFF7A8FC0099411A92
:100AD00041F2883081425AD830688005F4D50EE062
:100AE000FFF79CFC009007E0FFF798FC0099411A83
:100AF00041F2883081424AD830688005F4D4BBF195
:100B0000000F05D037481038016821F0805101608E
:100B1000606A58B30C2F41D00228504605D0C8F85F
:100B20006000FFF77BFC044634E04746C8F86000ED
:100B3000FFF774FC064604E0FFF770FC801B0228F8
:100B400025D828688001F7D4D4E90A1001431E484B
:100B5000226B036823F47D031A4311430160C7F835
:100B60006090FFF75BFC044607E010E040E000BF48
:100B7000FFF754FC001B022809D828688001F7D52C
:100B800036E000BFFFF74AFC001B022802D9032011
:100B9000BDE8F88F28688001F4D429E00128F7D057
:100BA00009480068A26A00F48031914209D1E26AE2
:100BB00000F47011914204D1216B00F4400088428E
:100BC00016D00120E4E70000083802400038024057
:100BD0000438024000004742ED1400080C000020D9
:100BE0000000002034380240800647420070004078
:100BF0000020CDE74FF0E020016941F002010161E2
:100C0000704710B5401EB0F1807F01D3012010BDA8
:100C10004FF0E02460610F21601700F0C3FB00205B
:100C2000A06107202061002010BD4FF0E020016985
:100C300021F00201016170477047000070B5026841
:100C400004461068D168536910F00F0F50D003F0BC
:100C5000010501F4907635435DD0C20705D0CA0581
:100C600003D5E26B42F00102E263420705D5DA07E1
:100C700003D0E26B42F00202E263820705D5DA0795
:100C800003D0E26B42F00402E263020705D5DA0703
:100C900003D0E26B42F00802E263E26B002A33D039
:100CA000800604D5880602D5204600F017FA206891
:100CB0004069E16BC0F38010090700D428B32046D7
:100CC00000F0FEF92068416949061AD5416921F012
:100CD00040014161606BA0B11B494163606BFFF74C
:100CE00072FA002810D0606B416BBDE87040084775
:100CF000830610D58B060ED52046BDE8704000F067
:100D0000EDB92046FFF798FF70BD2046FFF794FF2E
:100D10000020E06370BD030606D50B0604D520460F
:100D2000BDE8704000F0BEBA4006F3D54806F1D5E4
:100D3000D168204621F04001D160202184F839108B
:100D400000F0D0F870BD0000B110000870B50400CC
:100D500004D094F83900002510B106E0012070BDE0
:100D600084F83850204600F023F8242084F8390015
:100D70002068C16821F40051C160204600F0FAF9F2
:100D80002068016921F4904101612068416921F0E6
:100D90002A0141612068C16841F40051C160E563E6
:100DA000202084F8390084F83A00002070BD00004B
:100DB00010B586B0044614216846FFF7D6F91749E6
:100DC0002068884228D11648016841F4003101604A
:100DD000006800F40030059011480838016841F0BF
:100DE000010101600068694600F0010005900C20D7
:100DF0000090022001900020029003200390072021
:100E000004900848FFF726FA002211462620FFF733
:100E100071FB2620FFF760FB06B010BD00440040C8
:100E2000243802400000024070472DE9F843044690
:100E300090F839001F4616460D46202850D1A5B11E
:100E40009EB194F8380001284AD0012084F8380077
:100E50004FF00008C4F83C80212084F83900FFF7E7
:100E6000DDFAA6848146E68426E00120BDE8F88309
:100E7000E08C401EE084A0684B46B0F5805F4FF0E8
:100E800000024FF080012046009703D000F03BFAAB
:100E9000E8B90DE000F037FAC8B928882168C0F336
:100EA00008004860206908B16D1C05E0AD1C03E036
:100EB000216815F8010B4860E08C0028D8D14B461A
:100EC000002240212046009700F01DFA08B10320BF
:100ED000CCE7202084F8390084F838800020C5E76A
:100EE0000220C3E77047FEE730B587B0142168469B
:100EF000FFF73BF91E48016841F0040101600168F9
:100F000001F004010591016841F0200101600168D0
:100F100001F020010591016841F0010101600068C4
:100F2000144D00F001000590002220212846FFF713
:100F30006FFA4FF4005000900F480024CDE90104EF
:100F400069460E48FFF786F9202000900120CDE980
:100F50000104694628460394FFF77CF900221146F4
:100F60002820FFF7C7FA2820FFF7B6FA07B030BDF0
:100F70001C3802400000024000001110000802402E
:100F8000FEE770477047000038B51C490023096828
:100F90001B4A11F0F00F23D118491C310C68E500F1
:100FA000184C03D5216801F4C0540EE00D6845F0DB
:100FB00080550D600D6805F08055009524680D681A
:100FC00004F4C05425F080550D60B4F5C05F07D11E
:100FD000B0F5404F04D11068012340F004001060C8
:100FE000106820F0010018431060106800F0010044
:100FF000984201D0012038BD002038BD0838024099
:10100000003C0240007000407047FFF70DBA00003E
:1010100010B592B034216846FFF7A7F814210DA847
:10102000FFF7A3F80D48016821F4C05141F40061B5
:101030000160012000900024019009946846FFF7A8
:10104000C5FB0F200D900220CDE90E041094002165
:101050000DA81194FFF798FA12B010BD007000406F
:101060000F48016841F4807101600D4908310A6838
:101070000C4B1A400A6002680B4B1A40026002686F
:1010800022F480220260086820F47D0008600020BD
:10109000091D086005494FF00060086070470000B6
:1010A000003802400CC0FF88FEFFFEEE08ED00E0B5
:1010B00010B5406A0021C185C184FFF7BDFD10BD98
:1010C0000168CA6822F49072CA6001684A6922F015
:1010D00001024A61202180F83A10704710B590F85B
:1010E0003A10222901D0022010BD8168B1F5805F3D
:1010F00011D00169002901681FD0496801F07F0300
:10110000816A4A1C82620B70C18D491E0904090C58
:10111000C18518D02BE00269816A002A02685268F2
:1011200005D0D2B20A80816A491C8162ECE7C2F321
:1011300008020A80816A891CF7E74A68816A4B1CA9
:1011400083620A70E0E70168CA6822F02002CA6080
:101150000168CA6822F48072CA6001684A6922F094
:1011600001024A61202180F83A10FFF75DFE00205D
:1011700010BD00002DE9F041044600680169E268F5
:1011800021F44051114301612169A068E2690843DB
:101190006169114322680843D16849F20C6399439D
:1011A0000143D16020684169A26921F44071114373
:1011B0004161E16964253226B1F5004F3848216864
:1011C00004D081423DD1FFF7C1FA3CE0814202D117
:1011D000FFF7BCFA01E0FFF7A9FA00EBC00101EB51
:1011E000001160686FF0180C4000B1FBF0F3B3FB26
:1011F000F5F3B1FBF0F7B1FBF0F203FB0CF307EBF7
:10120000830306EBC303B2FBF5F2B3FBF5F3120164
:1012100003F0F80302EB4302B1FBF0F3B1FBF0F093
:10122000B0FBF5F000FB0CF003EB800006EBC00018
:10123000B0FBF5F000F00700216810448860BDE8BD
:10124000F081FFF773FA00EBC00101EB0011606859
:101250006FF018078000B1FBF0F2B2FBF5F2B1FBC2
:10126000F0F37A4303EB8202B1FBF0F306EB0212D8
:10127000B2FBF5F2B3FBF5F302F0F00202EB03125E
:10128000B1FBF0F3B1FBF0F0B0FBF5F0784303EB0A
:10129000800006EB0010B0FBF5F000F00F00CBE78C
:1012A0000038014090F83910212901D00220704700
:1012B0008168B1F5805F016A0BD04A1C0262026846
:1012C00009785160C18C491E0904090CC1840ED0F3
:1012D00017E009880268C1F308015160016900291B
:1012E000016A02D0491C0162ECE7891CFBE7016836
:1012F000CA6822F08002CA600068C16841F04001FB
:10130000C160002070472DE9F041984617460E460F
:101310000446069D1DE0681C1BD02DB1FFF77EF82A
:10132000A0EB0800A84214D92068C16821F4D0714C
:10133000C1602068416921F001014161202084F8E9
:10134000390084F83A00002084F838000320BDE812
:10135000F0812068006836EA000004D00020B8421E
:10136000D9D00020F3E70120F9E700000148FFF79A
:1013700065BC000020000020FEE700001CB503460D
:101380000020144600290AD0491ECDE90031044A44
:101390006946204600F025F8009A002111701CBD16
:1013A000051400080907090E002804DB00F1E020FD
:1013B00080F80014704700F00F0000F1E02080F882
:1013C000141D704702E008C8121F08C1002AFAD194
:1013D00070477047002001E001C1121F002AFBD1B5
:1013E00070472DE9F04116460F460446002503E0FC
:1013F0003946B047641C6D1C20780028F8D1284677
:10140000BDE8F0814A68002A06D00A68531C0B60C8
:1014100010704868401E486070470000FFF70CF8E5
:10142000FFF7F6FDFFF760FD244823490C22016019
:101430004FF4E131416000218160C160C0E90412D4
:101440008161C161FFF782FC1D4D40F6C4161B4847
:101450001CA20F211038FFF791FF184901230F221A
:1014600010391648FFF7E1FC012220212846FEF73B
:10147000CFFF3046FEF7CEFE002220212846FEF7A1
:10148000C7FFFEF795FE0D4812A20F211038FFF797
:1014900075FF0A4901230F2210390848FFF7C5FCE0
:1014A000002420212846FEF7ADFF9620FEF7B2FE6D
:1014B000641C052CF5DBCAE7004400402000002036
:1014C000000002400D0A536C65657020736F6F6EEB
:1014D0000D0A00000D0A20576F6B652055700D0A2C
:1014E00000000000030406080C1018203000000063
:1014F00000000000000102030406070809000000C4
:10150000000102030400000028150008000000206C
:1015100010000000C4130008381500081000002057
:1015200050040000D4130008100000000100000067
:081530000000000068FF1F002D
:0400000508000125C9
:00000001FF
