:020000040800F2
:10000000C8050020390100085F290008AD23000859
:100010005D290008B10A00086D2E000800000000EC
:100020000000000000000000000000009D2A000801
:10003000CB0B000800000000DD290008052C00089B
:100040005301000853010008530100085301000840
:100050005301000853010008530100085301000830
:100060005301000853010008530100085301000820
:100070005301000853010008530100085301000810
:100080005301000853010008530100085301000800
:1000900053010008530100085301000853010008F0
:1000A00053010008530100085301000853010008E0
:1000B00053010008530100085301000853010008D0
:1000C00053010008530100085301000853010008C0
:1000D00053010008530100085301000853010008B0
:1000E000210C0008530100085301000853010008C7
:1000F00053010008000000005301000853010008EC
:10010000530100085301000853010008530100087F
:1001100053010008530100085301000800000000CB
:1001200053010008DFF80CD000F030FB0048004716
:10013000AD2E0008C8050020064880470648004745
:10014000FEE7FEE7FEE7FEE7FEE7FEE7FEE7FEE787
:10015000FEE7FEE7712C000825010008D2B201E09D
:1001600000F8012B491EFBD270470022F6E710B5BC
:1001700013460A4604461946FFF7F0FF204610BD15
:10018000F0B480EA0102D40F4200B2EB410F02D278
:100190000246084611464A0042D0C30DDDB2C1F303
:1001A000C752AD1A202D35DAC1F3160141F4000211
:1001B00004B15242C5F1200602FA06F12A41104468
:1001C000B3EBD05F23D0C4B1012DA0EBC35009DC49
:1001D000F0BC4FF0004202EAC352DBB200F500006F
:1001E00000F049BA400000F1807000EBC350A0F16C
:1001F000807040EAD170490009E0490841EAC071C5
:10020000A0EBC35000F50000400800EBC350F0BC69
:1002100000F028BA6142012202EB4101001BF6E71F
:10022000F0BC704781F00041AAE780F00040A7E7EA
:10023000420005D0C0F3C7525242914201DC002077
:10024000704700EBC15070472DE9FE4F804681EAB0
:100250000300C00F0C46009021F0004123F0004540
:10026000B8EB0200A94105D24046214690461C4603
:100270000B46024623F00040104347D0270DC7F33A
:100280000A00C3F30A510290401A019040286BDA29
:10029000C3F3130040F4801B0098924620B1002362
:1002A000D2EB030A63EB0B0B01985946C0F14002F5
:1002B000504600F0A6F906460D4650465946019AAA
:1002C00000F0BEF910EB08006141002487EA1152EA
:1002D00084EAE7731A4340D0009A62B3019A012A74
:1002E0004FEA075215DC001B61EB02014FF00042A0
:1002F00002EA0752CDE90042001C41F58011324666
:100300002B4600F0F5F903B0BDE8F08F40462146DA
:10031000F9E7001B61EB0201001C41F58013001896
:100320005B412018A2F5001747EB030140EAD570A6
:10033000B6196D4111E06D084FEA360645EAC07501
:100340004FEA0752001B61EB0201001C41F58011CE
:1003500049084FEA30000019514132462B4603B09C
:10036000BDE8F04F00F0B5B900980122400000232D
:10037000D0EB020263EBE073009821464FEAE07491
:10038000B8EB000061EB0401E9E783F000435BE7B1
:1003900081F0004158E72DE9FE4F81EA030404F0A3
:1003A000004421F0004100944FF0000B23F0004383
:1003B00050EA01045ED052EA03045BD0C3F30A544E
:1003C000C1F30A552C44A4F2F3340194A0FB025467
:1003D000C1F3130141F48011C3F3130343F48013F9
:1003E00001FB024400FB034E840A970A44EA81544D
:1003F00047EA8357A4FB076802958D0A05FB07852A
:100400004FEA932C04FB0C542705029D4FEA065833
:1004100047EA1637B5EB08056EEB070C870E920E10
:1004200047EA811742EA8312A7FB0201B6EB0B01F0
:1004300064EB00042B0D43EA0C335E1844EB1C50B4
:10044000DA465146E7FB0201C5F313044FEA0B33CA
:1004500043EA14534FEA0432019C43EA0603A4F131
:100460000C040294009CCDE900B400F041F903B003
:10047000BDE8F08F00200146F9E72DE9F04D81EA53
:10048000030404F0004B21F0004514464FF0000A2D
:1004900023F0004150EA050220D054EA01021DD0A9
:1004A000C5F30A570246C5F31303C1F31300C1F3A2
:1004B0000A5640F4801543F48013A7EB0608101B7E
:1004C000D64608F2FD3873EB050002D308F10108A7
:1004D00001E092185B41B8F1000F03DA00200146F9
:1004E000BDE8F08D00204FF48011064684460EE0F2
:1004F000171B73EB050705D3121B63EB05030643BC
:100500004CEA010C49084FEA300092185B4150EA6E
:100510000107EDD152EA030012D082EA040083EA17
:100520000501084305D0101BAB4106D20122002370
:1005300006E000224FF0004302E06FF0010253108A
:100540001AEB06004CEB085110EB0A0041EB0B01D3
:10055000BDE8F04D00F0BDB80EB540F23341029158
:100560000021CDE900110A460B4600F0C1F803B0A6
:1005700000BDC1F30A5210B5C1F3130140F2FF33BD
:1005800041F480119A4201DA002010BD40F2334359
:100590009A42A2F2334203DC524200F041F810BD0D
:1005A000904010BD00F0004230F000400AD0C10D74
:1005B00001F56071C0F3160042EA0151C20840071C
:1005C0001143704700200146704701F0004330B4EA
:1005D00021F0004150EA010206D00A0DA2F5607236
:1005E000C1F31301002A02DC30BC00207047440F25
:1005F00044EAC104C100E01830BC00EBC25000F076
:1006000031B8202A04DB203A00FA02F100207047BA
:100610009140C2F1200320FA03F319439040704740
:10062000202A04DB203A21FA02F00021704721FA47
:1006300002F3D040C2F120029140084319467047AE
:10064000202A06DBCB17203A41FA02F043EAE07396
:1006500006E041FA02F3D040C2F120029140084383
:10066000194670470029A8BF7047401C490008BFC1
:1006700020F00100704710B4B0FA80FC00FA0CF0D2
:1006800050EA010404BF10BC704749B1CCF120040A
:1006900021FA04F411FA0CF118BF01212143084397
:1006A000A3EB0C01CB1D4FEA00614FEA102042BFC3
:1006B000002010BC704700EBC35010440029A4BFB9
:1006C00010BC7047401C490008BF20F0010010BC5E
:1006D000704710B5141E73F1000408DA401C41F194
:1006E000000192185B411A4301D120F0010010BDB6
:1006F0002DE9F04D92469B4611B1B1FA81F202E02C
:10070000B0FA80F220329046FFF77BFF04460F4696
:1007100040EA0A0041EA0B0153465A46084313D007
:10072000114653EA010019D0C8F140025046FFF7C4
:1007300077FF05460E46504659464246FFF761FF91
:10074000084305D0012004E020463946BDE8F08D7D
:100750000020054346EAE0762C4337430A986305B8
:10076000E40AA0EB08000022FD0A44EA47540A30DC
:1007700002D500200146E9E7010510196941DDE9CC
:10078000084500196941BDE8F04DA2E7064C074D48
:1007900006E0E06840F0010394E807009847103451
:1007A000AC42F6D3FFF7C2FC5430000874300008A6
:1007B000F8B500260446009600680168C94349065A
:1007C0002AD5816841F0010181601448144900680C
:1007D000B0FBF1F000EB400000E0401E009000286C
:1007E000FBD100F083FE054611E000BF00F07EFE65
:1007F000401B02280BD9E06C40F01000E064206D33
:1008000040F00100206584F848600120F8BD2068B0
:100810000068C0434006E9D40020F8BD6C00002009
:1008200040420F0010B5FFF797FE4FF066320D4BB8
:10083000FFF7B1FD00220C4BFFF71FFEFFF7C5FECF
:100840000A4948604868FFF7ADFE094A094BFFF7BF
:10085000A2FD094A094BFFF798FDBDE81040FFF7DC
:10086000B4BE000066660A4000FEAF4008000020EB
:100870002F015361C73C4A40297C32D6692B414045
:100880002DE9F84F00F0A2F8414C002605460096ED
:100890002078DFF80091DFF80081DFF800A103275E
:1008A0004FF47A7B50B101282AD002283ED0032889
:1008B00055D000F0E3F92078BDE8F88F454507D919
:1008C000484600F0CFF8A168884201D9012008E02D
:1008D000454508D2504600F0C5F8A168884202D2CA
:1008E0000220207008E0454506D2504600F0BAF8D4
:1008F000A168884200D32770584600F0E5FCDAE78B
:1009000029464046FFF78EFC009000F0ABF8A0604F
:1009100000F06EF8584600F0D7FC00F057F840455C
:1009200034D9484600F09EF8A1682DE0294640469B
:10093000FFF778FC009000F095F8A06000F058F800
:10094000584600F0C1FC00F041F840451ED2504628
:1009500000F088F8A1688842ADD32770ABE729463C
:100960004046FFF75FFC009000F056F8E06000F0B2
:100970003FF8584600F0A8FC00F028F8404505D2A2
:10098000074800F049F8E168884294D8267092E759
:1009900008000020000048420000F0C10000A0C193
:1009A000000060C010B5064800F036F8054CE06065
:1009B000054800F057F8A060BDE8104000F018B8F6
:1009C0000000A0C1080000200000484210B5064801
:1009D00000F0C4FB044800F0BDFA0449086108694E
:1009E000BDE81040FFF71EBF700000200800002087
:1009F00010B5074CE36800221021064800F056FCB1
:100A0000A3680022BDE810401146024800F04EBC29
:100A100008000020C400002010B5FFF7C3FD0C4AF9
:100A20000C4BFFF7B8FC0C4A0C4BFFF70DFCFFF723
:100A3000CCFD0C21FFF7FCFBFFF7B4FD4FF0663255
:100A4000074BFFF71AFDBDE81040FFF792BD00000D
:100A5000BF04A1CE725F9E3FAF01F38B705904407B
:100A600066660A4010B5FFF79DFD0C4A0C4BFFF778
:100A700092FC0C4A0C4BFFF7E7FBFFF7A6FD0C219D
:100A8000FFF7D6FBFFF78EFD4FF06632074BFFF7FF
:100A9000F4FCBDE81040FFF76CBD00004AA505530B
:100AA000C082873FBD29590C2677F13F66660A4010
:100AB000FEE7000008480168C1F34071002909D031
:100AC000016841F080710160044948680128FDD146
:100AD00000204860704700003438024000000020C9
:100AE000FFB583B0074600200A25CDE900501E4619
:100AF0001446012304AA3146384600F0A7FE02231B
:100B000001AA31463846009500F0B0FD20789DF8E6
:100B1000041008434FF6FF7101EA002020809DF881
:100B200005100843208007B0F0BDFEB507460E460D
:100B3000052000F0C9FB44F63F74ADF80040334691
:100B40006A460021384600F02DF8052000F0BCFB75
:100B500040F22155ADF8005033466A46052138462B
:100B600000F020F80A2000F0AFFB0020ADF80400F0
:100B7000ADF808000146334601AA3846FFF7B0FF3A
:100B8000334602AA05213846FFF7AAFFBDF8040044
:100B9000A04205D1BDF80800A84201D10120FEBD48
:100BA0000020FEBD1CB51C468DF8041011880323DF
:100BB000090A8DF8051011788DF806100A210091A8
:100BC00001AA214600F042FE1CBD70471148417841
:100BD00009B1012070470178012919D1C2780E4965
:100BE000022A01D02AB10EE042688A420BDB0520BE
:100BF00070470A4B42689A4201DD022070478A42E0
:100C000001DB032070474068884201DA0420704706
:100C100000207047580000209A9959406666664047
:100C20004FF4005000F072BB1148417809B1012027
:100C30007047817809B106207047C2780D49022AB1
:100C400001D022B10DE042688A420FDA09E00A4B76
:100C500042689A4201DD022070478A4201DB03208C
:100C600070474068884201DA0420704705207047C9
:100C7000580000209A995940666666407047000007
:100C80007CB500240546ADF800406A46214600F0D8
:100C90007DF8BDF80000800775D56A463D212846DD
:100CA00000F074F8BDF80000C007F6D1364ABA214A
:100CB0001646284600F06AF89020ADF8040001AA14
:100CC0006021284600F086F8ADF8044001AABA2158
:100CD000284600F07FF801AA6021284600F07AF843
:100CE000294A1821083A284600F074F8264C3A217F
:100CF000083CA21C284600F06DF8A21D1E212846C3
:100D000000F068F804F10E021D21284600F062F898
:100D100004F11002BB21284600F05CF804F10A023D
:100D20004521284600F056F804F10C0246212846D9
:100D300000F050F8221DDB21284600F04BF86A46EF
:100D4000DB21284600F022F8BDF800000004F6D4AC
:100D50003246BA21284600F03DF80BE020F00200B0
:100D6000ADF800006A460021284600F033F8012063
:100D700000F0AAFA6A460021284600F007F8BDF8FC
:100D800000008107EAD47CBD3C00002077B583B029
:100D9000064600200A25CDE900501446012304AA86
:100DA0006C21304600F052FD022301AA6C2130462E
:100DB000009500F05BFC20789DF8051008434FF685
:100DC000FF7101EA002020809DF804100843208074
:100DD00006B070BD1CB503238DF8041011788DF892
:100DE0000510118801AA090A8DF806100A21009140
:100DF0006C2100F02BFD1CBDF8B50024009490F888
:100E000048202546012A12D0012280F848204A684D
:100E10001F23072A0DD207683E6C521E02EB820286
:100E200093409E430B6893401E433E6435E002208E
:100E3000F8BD0D2A0BD20668F76BD21F02EB8202B7
:100E400093409F430B6893401F43F76325E0132AA9
:100E50000BD20668B76B0D3A02EB820293409F43B8
:100E60000B6893401F43B76317E00668192A0AD23C
:100E7000776B133A02EB820293409F430B689340D7
:100E80001F43776309E0376B193A02EB8202934004
:100E90009F430B6893401F4337630A6807230A2A5E
:100EA0000AD20668776902EB420293409F438B683F
:100EB00093401F43776125E0142A0BD207683E69EF
:100EC0000A3A02EB420293409E438B6893401E43D2
:100ED0003E6117E007681D2A0AD8FE68143A02EB43
:100EE000420293409E438B6893401E43FE6009E09C
:100EF000FE6D1E3A02EB420293409E438B68934084
:100F00001E43FE650A68102A01D0112A17D10E4A25
:100F100013681B0213D4136843F4000313600968B9
:100F200010290CD109490A4A0968B1FBF2F101EB19
:100F30008101490000E0491E00910029FBD180F8A1
:100F400048502046F8BD0000042701406C000020F6
:100F500040420F000068806D70470000F8B5040043
:100F60004FF0000503D0E06C002610B110E0012026
:100F7000F8BD26655C4884F84860016841F00101CD
:100F80000160006800F001000090204600F0B6F813
:100F9000E06CC0067AD4E06C20F4885040F0020087
:100FA000E06452480168626821F4403111430160F5
:100FB0006169E0684FF40073084394F83C2093FAA9
:100FC000A3F3B3FA83F3216A9A4011430843022141
:100FD00094F8242091FAA1F1B1FA81F102FA01F119
:100FE0000843616B102902D0A36B1943084323689F
:100FF00019684FF48077C943490629D5A169D4F807
:101000001CC00843A168D4F810E041EA0C01BE45B9
:101010000CD0BEF1010F09D04FF0000C41EA0C01D9
:1010200094F82CC0BCF1010F02D00AE0BC46F5E7F1
:101030006AB3E26C42F02002E264226D42F00102E7
:1010400022655A68DFF8A8C002EA0C020A435A6017
:1010500021688A68274B1A4002438A602169B94295
:1010600024D0012922D021680A6B22F0F8720A6389
:1010700021688968204A1140814227D12665E06CA9
:1010800020F0020040F00100E0642AE028E0FFE7E1
:101090004FF4604C226B9CFAACFCBCFA8CFC521EE8
:1010A00002FA0CF20A4342F40061CAE721680A6BB3
:1010B0004FF0F87722F0F873A26A97FAA7F7B7FA19
:1010C00087F7521EBA4013430B63D1E7E06C20F060
:1010D000020040F01000E064206D40F00100206547
:1010E00001252846F8BD00002038024004270140B1
:1010F000FF16FCFC89F1FFC0FEFF80BF10B586B073
:10110000044614216846FFF730F8114920688842E8
:101110001CD11048016841F400710160006800F4BE
:10112000007005900B48001F016841F00401016048
:101130000068694600F0040005900120009003203B
:10114000019000200290044800F0ECF806B010BDB9
:1011500000240140203802400008024010B5044637
:1011600090F84800012822D0012084F84800204649
:10117000FFF71EFB00281BD1E16C40F20162914396
:1011800041F48071E16421684A68520505D5E26C3A
:1011900022F4005242F48052E264E26CD3044FF035
:1011A000000206D5236D23F00603236502E002202A
:1011B00010BD226584F848206FF022020A60216881
:1011C0008A6812F0405FF3D18A6842F080428A60F8
:1011D00010BD70B54379012B22D001254571022342
:1011E00003710668346840F6FE7393409C43D1E96E
:1011F00000310B4393402343336003681C68C021D4
:1012000001FA02F6B4431C6003681C6802F0100285
:1012100091408C431C60057100214171084670BDEE
:10122000022070BD70B5040003D02079002510B1F4
:1012300005E0012070BD6571204600F007F802202E
:101240002071256101202071002070BD10B586B08D
:10125000044614216846FEF788FF11492068884239
:101260001CD11048016841F000510160006800F095
:10127000005005900B480838016841F001010160F9
:101280000068694600F001000590302000900320BE
:10129000019000200290044800F044F806B010BD10
:1012A00000740040243802400000024018B5046871
:1012B00000940068104421B11430009003600020B5
:1012C00018BD0830F9E7000070B5044600F00EF9CB
:1012D0000546601C02D004484068044400F006F94A
:1012E000401BA042FAD370BD6000002010B5B0F5DD
:1012F000005F06D12021034800F0ECF802490120EC
:10130000486010BD0000024000000020044910B5F4
:101310000A68024202D00860FFF7E8FF10BD000033
:10132000140401402DE9F84FDFF880B100234FF09D
:10133000010C4FF0030A4FF00F090BF1040EAEE061
:101340000CFA03F614EA060270D04C68022C01D0A5
:10135000122C11D1DC0800EB84073C6A5D07ED0E0E
:1013600009FA05F824EA0804D1F8108008FA05F80B
:1013700048EA0408C7F8208007685D0091F80480F7
:101380000AFA05F408F00308A74308FA05F848EA42
:101390000708C0F800804F68012F05D0022F03D046
:1013A000112F01D0122F11D18768D1F80C80A743DB
:1013B00008FA05F848EA0708C0F808804768B74304
:1013C0000E79C6F300169E403E434660C668A643AB
:1013D0008C68AC403443C4604C68E4005ED5344C47
:1013E000256845F001052560246823F0030504F015
:1013F000010400942F4C2E19B4689D072F0F09FA91
:1014000007F5AC432C4DA84201D100251FE02B4D20
:10141000A84201D101251AE0294DA84201D1022597
:1014200015E0284DA84202D1032510E036E0264DF4
:10143000A84201D104250AE0244DA84201D1052586
:1014400005E0234DA84201D1062500E00725BD4057
:101450002543B560DBF800405D464E689443F603D3
:1014600000D514432C60DEF8004075464E68944366
:10147000B60300D514432C600C4D08352C684E681B
:101480009443F60200D514432C60084D0C352C68AB
:101490004E689443B60200D514432C605B1C0A6866
:1014A0001446DA407FF44CAFBDE8F88F00040140E9
:1014B00020380240000001400000024000040240C9
:1014C00000080240000C02400010024000140240DC
:1014D0000018024042690A4200D009048161704745
:1014E0000AB1816170470904FBE700000148806888
:1014F000704700006000002070B504001BD094F815
:101500003D00002520B984F83C50204600F034FA14
:10151000242084F83D002068016821F00101016069
:1015200000F0E2FB4D4A6168914201D84C4900E06D
:101530004C49884201D2012070BD4B492368B0FB61
:10154000F1F15E6826F03F060E435E6063689342E9
:1015500006D94FF4967359434FF47A73B1FBF3F104
:101560002368491C1E6A26F03F06314319626168F0
:10157000914210D84900401EB0FBF1F2521CC2F358
:101580000B02042A01D2042022E0B0FBF1F0401C3F
:10159000C0F30B001CE0A368F3B301EBC10202EB44
:1015A0000116421EB2FBF6F2521C42F480421205B2
:1015B00049D093B301EBC10202EB0111401EB0FB15
:1015C000F1F0401CC0F30B0040F4804040F40040B8
:1015D0002168CA694CF6FF739A431043C861D4E985
:1015E0000701084321680A6822F0C002104308601E
:1015F000D4E9030101432068826848F2FF339A432B
:1016000011438160D4E9050108432168CA6822F0CA
:10161000FF021043C86001E00EE016E02068016898
:1016200041F0010101602564202084F83D0025631C
:1016300084F83E50002070BD01EB4106421EB2FB13
:10164000F6F2521CB3E70120C2E701EB4101401E54
:10165000B0FBF1F0401CC0F30B00B7E7A08601001F
:1016600080841E0000093D0040420F002DE9F84F24
:101670001F4690468A460446DDF82890FFF736FF5D
:10168000054694F83D00202875D1192301226C49A4
:101690002046009500F076FF0028F5D194F83C0034
:1016A000012868D0012084F83C0020680168C9073F
:1016B00003D1016841F0010101602068016821F453
:1016C00000610160222084F83D00102084F83E0073
:1016D00000262664C4F824806785608D20855948DB
:1016E000E0622B464A465146204600F077FE00282D
:1016F00078D1208D544F68B1012814D00228206879
:10170000016816D041F480610160206841698069F8
:10171000009087E02068416981690091016841F487
:10172000007101607EE02068016821F48061016041
:10173000F0E721F4806101602068016841F40061F4
:10174000E2E7032848D801280AD0022814D04B46E3
:10175000002239462046009500F014FFD8BB27E050
:101760002A464946204600F08CFFA0BB206800694D
:10177000616A08704DE061E04B4600223946204620
:10178000009500F0FFFE30BB2068016841F4007155
:10179000016020680069616A0870606A401C6062CC
:1017A000218D491E2185618D491E618521682EE0AC
:1017B0002068016821F48061016020680069616A25
:1017C0000870606A401C6062208D401E2085608D1C
:1017D000401E6085D0E705E02A464946204600F0D5
:1017E00050FF10B10120BDE8F88F20680069616AE0
:1017F0000870606A401C6062218D491E2185618DE0
:10180000491E618521684A69D24352070AD4096991
:101810000170606A401C6062208D401E2085608DD2
:10182000401E6085208D00288BD1202084F83D004B
:1018300084F83E6084F83C600020D4E70220D2E7C0
:10184000020010000000FFFF040001002DE9F84F26
:101850001F4690468A460446DDF82890FFF746FE6C
:10186000054694F83D0020287FD1192301224049E4
:101870002046009500F086FE002876D194F83C00C2
:10188000012872D0012084F83C0020680168C90753
:1018900003D1016841F0010101602068016821F471
:1018A00000610160212084F83D00102084F83E0092
:1018B00000262664C4F824806785608D20852D4825
:1018C000E0622B464A465146204600F0F1FD90B9B1
:1018D000206841698069009036E02A4649462046E2
:1018E00000F002FF50B1206C042804D12068016888
:1018F00041F4007101600120BDE8F88F606A216841
:1019000000780861606A401C6062618D491E6185D3
:10191000218D491E89B2218522685369DB435B070B
:101920000BD451B100781061606A401C6062608D18
:10193000401E6085208D401E20852A46494620464F
:1019400000F0FAFD0028CED1208D0028C5D154F832
:101950003D0B016841F400710160202004F81E096C
:10196000E67766770020C7E7FFE70220C4E70000BC
:10197000020010000000FFFF10B586B004461421DD
:101980006846FEF7F2FB14492068884221D11348CB
:10199000016841F0020101600068694600F0020040
:1019A00005904FF4407000901220019001200290A9
:1019B00003200390042004900948FFF7B3FC074874
:1019C0000830016841F400110160006800F4001063
:1019D000059006B010BD0000005400401C380240C5
:1019E00000040240024881684268114481607047E7
:1019F0006000002010B50024032000F079F80020DA
:101A000000F008F808B1012401E000F025F82046B4
:101A100010BD000070B50E4E05460024706898B1E8
:101A20004FF47A71B1FBF0F00A490968B1FBF0F0AC
:101A300000F03CFC40B9102D06D200222946501E71
:101A400000F036F8356000E00124204670BD00004B
:101A5000600000206C0000200D4808B5016841F0CE
:101A600000410160016801F000410091011F0A6816
:101A700042F001020A60096801F001010091016869
:101A800041F080510160006800F08050009008BD76
:101A900024380240002809DB00F01F020121914098
:101AA0004009800000F1E020C0F8001170470000FC
:101AB000F0B40E4B1B680C46C3F30223C3F10705B9
:101AC000042D00D90425191D072901D2002300E0A7
:101AD000DB1E012606FA05F1491E214099409E4071
:101AE000761E16403143F0BC01F0C1B90CED00E0A8
:101AF000064900F0070208684FF6FF03184040EA65
:101B00000220034A10430860704700000CED00E01B
:101B10000000FA05094A136823F003030343136026
:101B20000748026822F004020260012903D040BF86
:101B300020BF20BF704730BF7047000000700040DA
:101B400010ED00E02DE9F0470E46050079D0DFF8F2
:101B50008481D8F8000000F00100B04214D2012EB8
:101B600005D1D8F8001041F00401C8F80010D8F8E9
:101B7000001021F001013143C8F80010D8F800002E
:101B800000F00100B0425CD12878534C800705D5A5
:101B90002068A96820F0F000084320602878C0077A
:101BA0005CD04D496868083902281AD003281BD038
:101BB000096801281BD08905002966DA216821F00F
:101BC000030101432160FFF791FC6968074641F278
:101BD0008830022914D0032920D0012981462AD037
:101BE00038E009688903E7E709688901E4E78907BC
:101BF000E2E700BFFFF77AFCC11B494501D926E0A7
:101C000081462068C0F381000228F3D126E000BF9E
:101C1000FFF76CFCC11B494501D918E081462068DB
:101C2000C0F381000328F3D118E000BFFFF75EFC8A
:101C3000C11B49450BD82068C0F381000128F5D1AC
:101C40000CE022E0FFF752FCC11B494502D90320FA
:101C5000BDE8F087206810F00C0FF3D1D8F8001021
:101C6000404601F00101B14211D9012E03D10168B2
:101C700041F004010160016821F00101314301607C
:101C8000006800F00100B04201D00120E0E72878B0
:101C9000400705D52068E96820F4E060084320602B
:101CA0002878000706D52068296920F4605040EAAA
:101CB000C100206000F038F82168084AC1F3031120
:101CC000515CC8400649086006480068BDE8F04716
:101CD000FFF7A0BE003C0240083802403B3000083D
:101CE0006C00002060000020044805490068096875
:101CF000044AC1F30221515CC84070476C000020C7
:101D0000083802404B30000804480549006809685B
:101D1000044AC1F3C221515CC84070476C000020E6
:101D2000083802404B300008134A116801F00C00DB
:101D300004280CD008280CD00C280CD0101F0068E8
:101D4000C0F342314FF40040491C884070470B48B3
:101D500070470B4870470B48C1F383431268C05C5F
:101D6000C1F38151491CD20301D5054A00E0034A61
:101D70005043B0FBF1F07047083802400024F400F3
:101D800000366E01323000082DE9F84F04007DD096
:101D9000FC480168006801F00C0700F480362078E8
:101DA000F94DC00741D0082F12D00C2F02D1B6F543
:101DB000803F0DD06068012811D008B1052818D0E7
:101DC000286820F480302860286820F4802009E00A
:101DD0002868800329D560680028D8D025E02868C5
:101DE00040F480302860606890B1FFF77FFB804648
:101DF0000AE0286840F480202860F0E7FFF776FBCF
:101E0000A0EB080064287BD828688003F6D50CE096
:101E1000FFF76CFB804605E0FFF768FBA0EB0800CE
:101E20006428F0D828688003F6D42078DFF85CB303
:101E3000DFF85C8380074FF001094FF0000A35D5C9
:101E4000042F0AD00C2F00D13EB1E068F8B1C8F8D9
:101E50000090FFF74BFB06460BE0286880070BD588
:101E6000E068012812D107E0FFF740FB801B022841
:101E7000C9D828688007F7D5DBF80010226921F45B
:101E8000F85141EA0221CBF800100FE077E1C8F8E1
:101E900000A0FFF72BFB064605E000BFFFF726FB7F
:101EA000801B0228AFD828688007F7D42078C006A6
:101EB00074D53FB1A069E0B3C8F82090FFF716FBD6
:101EC00006464AE02868800502D5A069002884D02B
:101ED000206ADBF800105E4601F46041884210D9A8
:101EE00000F07EFD0028BDD13068216A20F46040FA
:101EF00008433060217F306861F31F6030600FE07D
:101F000096E0316821F4604101433160217F3068FF
:101F100061F31F603060206A00F062FD0028A1D1EB
:101F2000216A4FF4004009EB513188409549096816
:101F300000E025E0974AC1F30311515CC84096497F
:101F4000086096480068FFF765FD00286FD125E01E
:101F5000FFF7CCFA801B02286AD828688005F7D5DD
:101F6000DBF80010226A21F460411143CBF8001025
:101F7000227FDBF8001062F31F61CBF800100DE048
:101F8000C8F820A0FFF7B2FA064604E0FFF7AEFA61
:101F9000801B02284CD828688005F7D42078804E12
:101FA000000722D57F48616981B1C0F80090FFF732
:101FB0009DFA834606E000BFFFF798FAA0EB0B00FE
:101FC000022835D830688007F6D50EE0C0F800A0AA
:101FD000FFF78CFA834605E0FFF788FAA0EB0B00C9
:101FE000022825D830688007F6D4207840076DD5C0
:101FF0006B484FF0000B10380068C0000BD46848E5
:102000001038016841F08051016000684FF0010B09
:1020100000F08050009064480168C90514D401683C
:1020200041F480710160FFF761FA009008E08DE0F3
:1020300079E000BFFFF75AFA0099401A642872D875
:1020400059480068C005F5D5A06801280AD008B134
:10205000052811D0306820F480703060306820F49A
:10206000806002E0306840F480703060A068A8B101
:10207000FFF73CFA00900DE0306840F4806030607B
:10208000F0E700BFFFF732FA0099411A41F28830B9
:1020900081425AD830688005F4D50EE0FFF726FA61
:1020A000009007E0FFF722FA0099411A41F28830C8
:1020B00081424AD830688005F4D4BBF1000F05D0C6
:1020C00037481038016821F080510160606A58B3C8
:1020D0000C2F41D00228504605D0C8F86000FFF709
:1020E00005FA044634E04746C8F86000FFF7FEF9F9
:1020F000064604E0FFF7FAF9801B022825D8286875
:102100008001F7D4D4E90A1001431E48226B03680A
:1021100023F47D031A4311430160C7F86090FFF771
:10212000E5F9044607E010E040E000BFFFF7DEF904
:10213000001B022809D828688001F7D536E000BFC7
:10214000FFF7D4F9001B022802D90320BDE8F88F5D
:1021500028688001F4D429E00128F7D009480068F4
:10216000A26A00F48031914209D1E26A00F4701150
:10217000914204D1216B00F44000884216D0012026
:10218000E4E700000838024000380240043802400A
:10219000000047423B3000086C0000206000002037
:1021A0003438024080064742007000400020CDE7EE
:1021B0004FF0E020016941F002010161704770B504
:1021C000040005D00025A56294F8510010B106E086
:1021D000012070BD84F85050204600F031F80220F4
:1021E00084F851002068016821F040010160D4E9C1
:1021F00001010843D4E9031211430843616908430C
:10220000218B01F400710843E1690843216A084306
:10221000A16A084321680860A069042101EA10400E
:10222000616A0843216848602068C16921F400613F
:10223000C1616565012084F85100002070BD000077
:1022400010B586B0044614216846FDF78EFF144988
:102250002068884221D11348016841F4804101601F
:10226000006800F4804005900E480838016841F08D
:10227000020101600068694600F0020005904FF419
:102280006040009002200190002002900320039003
:10229000052004900448FFF745F806B010BD000083
:1022A00000380040243802400004024010B5401EAF
:1022B000B0F1807F01D3012010BD4FF0E0246061B8
:1022C0000F21601700F0D3FD0020A06107202061DE
:1022D000002010BD4FF0E020016921F002010161F2
:1022E000704770B5040004D094F83900002510B18F
:1022F00006E0012070BD84F83850204600F022F836
:10230000242084F839002068C16821F40051C1609C
:10231000204600F0EFFC2068016921F49041016142
:102320002068416921F02A0141612068C16841F4B7
:102330000051C160E563202084F8390084F83A0038
:10234000002070BD10B586B0044614216846FDF724
:102350000CFF13492068884220D11248016841F4DB
:1023600000310160006800F4003005900D48083825
:10237000016841F0010101600068694600F0010058
:1023800005900C2000900220019000200290032074
:102390000390072004900448FEF7C4FF06B010BD68
:1023A000004400402438024000000240FEE701687B
:1023B0004A69D24352050FD46FF480624A6100210A
:1023C00040F8301F202242738173026942F00402F8
:1023D0000261017301207047002070472DE9F84F1A
:1023E0000446C06A1E4692460D4621680A6842F4B9
:1023F00080620A60082807D0012805D010F5803FC8
:1024000002D0206B112804D12068016841F480714A
:1024100001604FF0011853460022414620460096C5
:1024200000F0B0F8F0BB206908F10109B0F5804F69
:102430000FD00620216800EAD51747F0F0000861A8
:102440003346524608F10701204600F0CFF848BB5A
:1024500003E0E8B240F001001BE02168E8B2086147
:10246000334652464946204600F0C0F8D0B92068AD
:10247000416981690091016841F4807101605346AE
:10248000002241462046009600F07CF850B947F003
:10249000F10021680861334652464946204600F063
:1024A000A5F800E001E0002800D00120BDE8F88F89
:1024B000F8B50446C06A1E460D461746082807D0E0
:1024C000012805D010F5803F02D0206B122804D1DE
:1024D0002068016841F480710160134600224FF0CA
:1024E00001112046009600F04DF808BB2069B0F5B8
:1024F000804F0ED00620216800EAD51040F0F00091
:10250000086133463A460B49204600F06FF878B927
:1025100002E005F0FE0000E0E8B22168086105492C
:1025200033463A46891F204600F060F8002800D064
:102530000120F8BD0800010070B516460D4604469E
:102540000DE02046FFF733FF08B1012070BD681C85
:1025500005D0FEF7CBFF801BA84207D835B1206815
:102560004069C0434007ECD4002070BD002044F80F
:10257000300F20216173A073216941F02001216196
:102580002073E2E72DE9F0471E4690460D460446CB
:10259000C1F30747DDF8209008E0701C06D0FEF775
:1025A000A5FFA0EB0900B0420FD876B12068012F3B
:1025B00018D0806925EA00000004000C14D0002126
:1025C0004145EAD00020BDE8F087002044F8300FF4
:1025D00020216173A073216941F0200121612073E2
:1025E0000120F0E74069E5E70121E9E72DE9F0473F
:1025F0009A4691460E46044600254FF02008C1F346
:10260000074725E020684069C043400514D420688E
:10261000016841F40071016021686FF480604861D5
:10262000256384F83D8084F83E50206C40F004001F
:10263000206484F83C501FE0B9F1FF3F08D0FEF75A
:1026400055FFA0EB0A0149450CD8B9F1000F09D09C
:102650002068012F13D0806926EA00000004000CD6
:102660000BD0CFE744F8305F84F80D80A573206964
:1026700040F02000206125730120BDE8F08740690B
:10268000EAE72DE9F041002590460E460446202752
:1026900017E04069C043C0060CD454F8301B6FF0FB
:1026A0001000486144F810596777A577206A2062C6
:1026B000257717E0FEF71AFFA0EB0800B04208D814
:1026C0003EB120684169C9434906E2D40020BDE813
:1026D000F08144F8305F6773A573206940F02000F3
:1026E000206125730120F2E770B516460D460446B9
:1026F0000DE02046FFF75BFE08B1012070BD681CAD
:1027000005D0FEF7F3FE801BA84207D835B120683C
:102710004069C0430006ECD4002070BD002044F89E
:10272000300F20216173A073216941F020012161E4
:102730002073E2E78021FEF7F8B9000012484178E3
:1027400009B101207047817809B106207047C2782D
:102750000E49022A01D02AB10FE042688A420CDBFE
:10276000052070470A4B42689A4201DB02207047FD
:10277000084B9A4201DC8A4204DA4068884201DA56
:102780000420704703207047580000209A99594050
:10279000CDCC6C40666666403EB50024124800947D
:1027A000019410490294C0E900148460C46004617B
:1027B00044618461C461046280F82440012585621B
:1027C00080F82C401021C0E90D1480F83C40FEF741
:1027D000C5FB0A20CDE90005694602940248FEF7D0
:1027E0000BFB3EBD00240140700000202DE9F04F9E
:1027F00087B014216846FDF7B8FC4548016841F0F0
:1028000004010160016801F004010591016841F0D3
:1028100001010160016801F001010591016841F0C9
:1028200002010160016801F002010591016841F0B7
:10283000080101600068DFF8DCA000F008004CF639
:10284000C0450590002229465046FEF749FEDFF8B4
:10285000C8904FF4E157002239464846FEF740FE43
:10286000DFF8B8B041F20A08002241465846FEF7A8
:1028700037FE002204212A48FEF732FE294E4FF48B
:102880000050CDE900060024694602944846FEF750
:1028900049FD00950125CDE9015469465046039450
:1028A000FEF740FD0097CDE9015469464846039480
:1028B000FEF738FDCDF80080CDE901546946584651
:1028C0000394FEF72FFD4FF4A070CDE90004694694
:1028D00048460294FEF726FD2802CDE90006694627
:1028E00002945046FEF71EFD04200090CDE90154ED
:1028F00069460B480394FEF715FD00221146282077
:10290000FFF7D6F82820FFF7C5F807B0BDE8F08F2D
:102910001C3802400000024000080240000402404F
:10292000000C0240000011100B480A494FF40072DD
:1029300001604FF48271416000218160C1600161DA
:10294000C0E90512C1610162416281620A21C1626E
:10295000FFF735BC003800402C010020FEE770472F
:102960001148417809B101207047817809B10620EA
:102970007047C2780D49022A01D02AB10CE04268A2
:102980008A4209DB05207047094B42689A4208DCFD
:102990008A4201DB032070474068884201DA042044
:1029A0007047022070470000580000209A99594053
:1029B000666666400749084B02280A784FF4805142
:1029C00001D1900601D0002200E001221846FEF756
:1029D00087BD00004800002000040240704700004E
:1029E00038B51C49002309681B4A11F0F00F23D1A8
:1029F00018491C310C68E500184C03D5216801F416
:102A0000C0540EE00D6845F080550D600D6805F06E
:102A10008055009524680D6804F4C05425F0805555
:102A20000D60B4F5C05F07D1B0F5404F04D1106818
:102A3000012340F004001060106820F001001843EA
:102A40001060106800F00100984201D0012038BDEC
:102A5000002038BD08380240003C024000700040B1
:102A600010B5FFF737FC01210020FFF753F8BDE850
:102A70001040FFF79DBB000010B501222021054842
:102A8000FEF72EFD0122BDE8104002210248FEF7AC
:102A900027BD00000008024000040240704700000B
:102AA00010B5174C072811D2DFE800F004081119FF
:102AB000151D2100FFF77EFF00201BE0FFF77AFFC6
:102AC000D4E90212012000F0FBF8012010BDFFF74D
:102AD00071FF02200EE0FFF76DFF04200AE0FFF710
:102AE00069FF032006E0FFF765FF052002E0FFF71E
:102AF00061FF0620D4E90212BDE8104000F0E0B802
:102B00004800002010B5074C6060C4E90212084676
:102B1000FFF7B2FF6068FFF70DFE6068BDE8104088
:102B2000FEF7AEB8480000200D48417809B10120F9
:102B300070470C4A4168914201DA0420704782785C
:102B40001AB9C078022802D018B1062070470520B3
:102B500070470548814201DD02207047032070471D
:102B6000580000209A995940666666402DE9F04762
:102B7000204D81460346072206264FF48041284611
:102B800000F04CFA05244B4632464FF400412846EB
:102B900000F044FA184F2E1522464FF004084B4619
:102BA0003146384600F03AFA03244B464246E914CF
:102BB000384600F033FA22464FF002084B46A9147B
:102BC000384600F02BFA01244B46424604210B48BC
:102BD00000F024FA002722464B460821084800F05E
:102BE0001DFA4B463A4631462846BDE8F04700F00C
:102BF00015BA00000000024000080240000C02402C
:102C000000040240FEF7EEBE10B592B034216846D3
:102C1000FDF7ABFA14210DA8FDF7A7FA13480168D8
:102C200021F4C05141F4006101601A20009001209C
:102C30001021CDE903010024CDE9060405904FF4ED
:102C40004040CDE908046846FFF79EF80F20CDE923
:102C50000D048020CDE90F044FF4E06011900021B5
:102C60000DA8FEF76FFF12B010BD0000007000400D
:102C70000F48016841F4807101600D4908310A680C
:102C80000C4B1A400A6002680B4B1A400260026843
:102C900022F480220260086820F47D000860002091
:102CA000091D086005494FF000600860704700008A
:102CB000003802400CC0FF88FEFFFEEE08ED00E089
:102CC00068B1012815D002280BD004280BD00328A6
:102CD0000BD005280BD006280BD1FFF725BFFDF739
:102CE00075BFFFF73DBE00F09DB8FFF727BDFDF7AC
:102CF0009BBF70472DE9F041044600680169E26816
:102D000021F44051114301612169A068E26908433F
:102D10006169114322680843D16849F20C63994301
:102D20000143D16020684169A26921F440711143D7
:102D30004161E16964253226B1F5004F38482168C8
:102D400004D081423DD1FEF7DFFF3CE0814202D159
:102D5000FEF7DAFF01E0FEF7C7FF00EBC00101EB71
:102D6000001160686FF0180C4000B1FBF0F3B3FB8A
:102D7000F5F3B1FBF0F7B1FBF0F203FB0CF307EB5B
:102D8000830306EBC303B2FBF5F2B3FBF5F31201C9
:102D900003F0F80302EB4302B1FBF0F3B1FBF0F0F8
:102DA000B0FBF5F000FB0CF003EB800006EBC0007D
:102DB000B0FBF5F000F00700216810448860BDE822
:102DC000F081FEF791FF00EBC00101EB001160689C
:102DD0006FF018078000B1FBF0F2B2FBF5F2B1FB27
:102DE000F0F37A4303EB8202B1FBF0F306EB02123D
:102DF000B2FBF5F2B3FBF5F302F0F00202EB0312C3
:102E0000B1FBF0F3B1FBF0F0B0FBF5F0784303EB6E
:102E1000800006EB0010B0FBF5F000F00F00CBE7F0
:102E2000003801400E48417809B101207047C2784E
:102E30000C49022A01D02AB10EE042688A420BDD19
:102E400005207047084B42689A4201DD0220704716
:102E50008A4201DD0320704740680420704700006B
:102E6000580000200000604066666640FEE70907E3
:102E7000090E002804DB00F1E02080F80014704700
:102E800000F00F0000F1E02080F8141D704702E010
:102E900008C8121F08C1002AFAD1704770470020E5
:102EA00001E001C1121F002AFBD170471CB5FEF7DB
:102EB000A1FDFFF7A9FEFFF799FCFFF76DFC0024C9
:102EC0004F4900944D48019408600846FEF7AAF95E
:102ED0000094002269464A480194FEF77AF91022CC
:102EE00069464748FEF775F9454846491430016080
:102EF0004549C0E901144FF48041C0E903414461F0
:102F00008461C4610462FEF7F7FA4048016841F049
:102F1000010101600168C1F340010029FAD03C4879
:102F20004CF6CC41016045F255510160446040F6D9
:102F3000FF718160C1688907FCD14AF6AA2101604E
:102F4000FFF7F2FC2E483349C03001604FF4E13105
:102F5000C0E901140C21C460C0E904418461C4616A
:102F6000FFF7BFF9264AC032A2F15801A1F154007F
:102F7000FFF7C8FDFDF716FD0126274D0027304657
:102F8000FFF7F4FD3846FFF78BFDFDF779FC28705D
:102F90006868012823D102266C603046FFF7E6FD01
:102FA0003846FFF77DFDFDF76BFC01462970696827
:102FB000012914D103266C60FDF77CFD69680129A5
:102FC0000DD10426C5F80440FFF74AFD69680129C0
:102FD00005D101266C60D2E73046FFF7C7FD6C6073
:102FE000062EFCD2DFE806F0080706050403F3E727
:102FF000EAE7E1E7D1E7C2E7F1E70000007400404B
:10300000C400002000540040A08601003438024073
:1030100000300040004400400000002030B4012493
:1030200094401C4201D0012200E0002230BCFEF797
:1030300057BA030406080C101820300000000000E6
:103040000000000102030406070809000000000157
:10305000020304007430000800000020700000002B
:103060008E2E0008E4300008700000205805000093
:103070009E2E00080000000000000000000000007C
:103080000000000000000000000000000000000040
:103090000000003F0000203E0AD7A338CDCCCC3A38
:1030A0000000803B0000803B2C1A617D2080A00145
:1030B0000000D100600514825836000000000000B6
:1030C0000000000000000000000000000000000000
:1030D0000000C842100000000100000000000000D5
:0430E00068FF1F0066
:0400000508000125C9
:00000001FF
