:020000040800F2
:10000000A0040020390100086313000855120008FD
:1000100061130008A5010008E518000800000000B1
:100020000000000000000000000000008F15000824
:10003000A7010008000000008513000891150008C2
:100040005301000853010008530100085301000840
:100050005301000853010008530100085301000830
:100060005301000853010008530100085301000820
:100070005301000853010008530100085301000810
:100080005301000853010008530100085301000800
:1000900053010008530100085301000853010008F0
:1000A00053010008530100085301000853010008E0
:1000B00053010008530100085301000853010008D0
:1000C00053010008530100085301000853010008C0
:1000D00053010008530100085301000853010008B0
:1000E00053010008530100085301000853010008A0
:1000F00053010008000000005301000853010008EC
:10010000530100085301000853010008530100087F
:1001100053010008530100085301000800000000CB
:1001200053010008DFF80CD000F02AF8004800471F
:1001300011190008A004002006488047064800471F
:10014000FEE7FEE7FEE7FEE7FEE7FEE7FEE7FEE787
:10015000FEE7FEE7F515000825010008D2B201E030
:1001600000F8012B491EFBD270470022F6E710B5BC
:1001700013460A4604461946FFF7F0FF204610BD15
:10018000064C074D06E0E06840F0010394E80700E4
:1001900098471034AC42F6D3FFF7C8FF481B00085D
:1001A000681B0008FEE770472DE9F05F00244FF45C
:1001B0008076DFF88CA0DFF88C801546B70025B17B
:1001C0002046641CE4B2A84237D83146504600F0BD
:1001D0001FF90028F3D03946404600F019F90028ED
:1001E000EDD04FF4007900224946504600F015F951
:1001F000B3465646BA4614E001224F4649463046B9
:1002000000F00BF90220401C3228FCDB00223946AA
:10021000304600F002F925B12046641CE4B2A84241
:100220000BD85946304600F0F3F80028E4D0514688
:10023000404600F0EDF80028DED0BDE8F09F000059
:10024000000002400004024031B500F0EBF8044623
:1002500000F0E8F80099001B8842F9D338BD00008F
:100260002DE9F84FDFF880B100234FF0010C4FF07B
:10027000030A4FF00F090BF1040EAEE00CFA03F67F
:1002800014EA060270D04C68022C01D0122C11D155
:10029000DC0800EB84073C6A5D07ED0E09FA05F8FF
:1002A00024EA0804D1F8108008FA05F848EA04089E
:1002B000C7F8208007685D0091F804800AFA05F409
:1002C00008F00308A74308FA05F848EA0708C0F849
:1002D00000804F68012F05D0022F03D0112F01D0CD
:1002E000122F11D18768D1F80C80A74308FA05F8BE
:1002F00048EA0708C0F808804768B7430E79C6F394
:1003000000169E403E434660C668A6438C68AC40DB
:100310003443C4604C68E4005ED5344C256845F035
:1003200001052560246823F0030504F0010400940E
:100330002F4C2E19B4689D072F0F09FA07F5AC430F
:100340002C4DA84201D100251FE02B4DA84201D120
:1003500001251AE0294DA84201D1022515E0284DBA
:10036000A84202D1032510E036E0264DA84201D173
:1003700004250AE0244DA84201D1052505E0234DBE
:10038000A84201D1062500E00725BD402543B56000
:10039000DBF800405D464E689443F60300D51443F5
:1003A0002C60DEF8004075464E689443B60300D5D5
:1003B00014432C600C4D08352C684E689443F602AB
:1003C00000D514432C60084D0C352C684E689443BE
:1003D000B60200D514432C605B1C0A681446DA4050
:1003E0007FF44CAFBDE8F88F000401402038024094
:1003F00000000140000002400004024000080240EA
:10040000000C02400010024000140240001802409C
:100410000069084000D0012070470AB1816170472F
:100420000904FBE701480068704700000000002055
:1004300002480168491C016070470000000000206C
:1004400010B5032000F05EF8002000F005F800F081
:1004500017F8002010BD000010B5044607484FF4FF
:100460007A710068B0FBF1F000F07DFE00222146B9
:10047000501E00F027F8002010BD000004000020EE
:100480000F4882B0016841F000410160016801F04D
:1004900000410091011F0A6842F001020A600968E8
:1004A00001F001010091016841F080510160006894
:1004B00000F080500090072002B000F023B8000048
:1004C00024380240F0B40E4B1B680C46C3F30223E1
:1004D000C3F10705042D00D90425191D072901D2F0
:1004E000002300E0DB1E012606FA05F1491E21402B
:1004F00099409E40761E16403143F0BC00F032BF5A
:100500000CED00E0064900F0070208684FF6FF0313
:10051000184040EA0220034A104308607047000078
:100520000CED00E00000FA052DE9F047DFF8BC8192
:1005300005460E46D8F8000000F00100B04214D283
:10054000012E05D1D8F8001041F00401C8F80010C0
:10055000D8F8001021F001013143C8F80010D8F894
:10056000000000F00100B04271D12878604C800793
:1005700005D52068A96820F0F0000843206028789D
:10058000C00771D05A4A5A4B69680120083A2C3387
:10059000022910D003292ED001292FD05FEA40274D
:1005A00097FAA7FCBCFA8CFC4CF0200C5FEA5C1CB0
:1005B00004D0126803E04FF40037F1E71A6897FAA5
:1005C000A7F3B3FA83F303F01F039840024262D00B
:1005D000206820F0030008432060FFF723FF6968CC
:1005E000074641F28830022910D003291CD0012986
:1005F000814626D034E04FF00077D1E70227CFE7DD
:10060000FFF710FFC11B494501D926E0814620684C
:10061000C0F381000228F3D126E000BFFFF702FFFC
:10062000C11B494501D918E081462068C0F381000B
:100630000328F3D118E000BFFFF7F4FEC11B4945C2
:100640000BD82068C0F381000128F5D10CE022E02E
:10065000FFF7E8FEC11B494502D90320BDE8F0873A
:10066000206810F00C0FF3D1D8F80010404601F0CC
:100670000101B14211D9012E03D1016841F00401F9
:100680000160016821F0010131430160006800F060
:100690000100B04201D00120E0E72878400705D5ED
:1006A0002068E96820F4E0600843206028780007AB
:1006B00006D52068296920F4605040EAC100206016
:1006C00000F04CF82168F02292FAA2F201F0F00159
:1006D000B2FA82F2D140074A515CC840064908602C
:1006E0000020FFF7B9FE0020B8E70000003C024000
:1006F000083802402D1B0008040000200848094962
:10070000006809684FF4E06292FAA2F201F4E06135
:10071000B2FA82F2D140044A515CC84070470000EE
:1007200004000020083802403D1B00080848094921
:10073000006809684FF4605292FAA2F201F4605125
:10074000B2FA82F2D140044A515CC84070470000BE
:1007500004000020083802403D1B00081E4A1168B2
:1007600001F00C00042813D0082813D00C2813D053
:10077000101F006800F460414FF4604090FAA0F050
:10078000B0FA80F0C1404FF40040491C88407047E7
:1007900012487047124870474FF4701393FAA3F34E
:1007A00001F47010B3FA83F3D8400E4B01F440010A
:1007B0001268185C4FF4400393FAA3F3B3FA83F37F
:1007C000D940491CD20301D5054A00E0034A5043F1
:1007D000B0FBF1F070470000083802400024F4003C
:1007E00000127A00241B00082DE9F84F0746007814
:1007F000FB4EFC4DC0074FF0010428D0F8480830EC
:1008000001684FF40038C1F38101022907D0016863
:10081000C1F3810103291BD10068C00318D598FAE0
:10082000A8F0B0FA80F040F02000400901D0306814
:1008300000E0286898FAA8F1B1FA81F101F01F01EF
:1008400004FA01F108425CD0786800287BD058E0B7
:10085000786801280AD008B1052811D0306820F442
:1008600080303060306820F4802002E0306840F44E
:1008700080303060786828B3FFF7D4FD81460BE004
:10088000306840F480203060F0E700BFFFF7CAFD19
:10089000A0EB0900642872D898FAA8F0B0FA80F0AA
:1008A00040F02000400901D0306800E0286898FA44
:1008B000A8F1B1FA81F101F01F0104FA01F1084237
:1008C000E4D01EE0FFF7AEFD814605E0FFF7AAFD8C
:1008D000A0EB09006428DED898FAA8F0B0FA80F0FE
:1008E00040F02000400901D0306800E0286898FA04
:1008F000A8F1B1FA81F101F01F0104FA01F10842F7
:10090000E4D13878DFF8E08280074FF0000B4FF039
:1009100002095FD5B24808300168C1F3810101299D
:1009200007D00168C1F3810103291CD10068C0030D
:1009300019D499FAA9F0B0FA80F040F020004009EB
:1009400002D0306801E086E0286899FAA9F1B1FA8E
:1009500081F101F01F0104FA01F108422BD0F8687F
:10096000012878D127E0F868A8B394FAA4F0B0FA87
:1009700080F048F82040FFF755FD824606E066E12A
:10098000FFF750FDA0EB0A00022884D899FAA9F1DC
:10099000B1FA81F141F02001490901D0316800E04C
:1009A000296899FAA9F0B0FA80F000F01F0004FA63
:1009B00000F00142E4D08A48001D01684FF4F8536A
:1009C00093FAA3F33A69B3FA83F321F4F8519A4006
:1009D0001143016025E0FFE794FAA4F1B1FA81F137
:1009E00048F821B0FFF71EFD824605E0FFF71AFD2B
:1009F000A0EB0A000228C8D899FAA9F0B0FA80F052
:100A000040F02000400901D0306800E0286899FAE1
:100A1000A9F1B1FA81F101F01F0104FA01F10842D4
:100A2000E4D138784FF4007AC0067CD56C480830A1
:100A3000006810F00C0F0FD0B9694FF480700029D6
:100A400072D090FAA0F0B0FA80F048F82040FFF79A
:100A5000E9FC00907EE087E09AFAAAF0B0FA80F014
:100A600040F02000400901D0306800E028689AFA80
:100A7000AAF1B1FA81F101F01F0104FA01F1084273
:100A800002D0B86900286FD05548396A001D006847
:100A900000F4604081421AD9084600F075FC002835
:100AA00062D14F48001D01683A6A21F46041114348
:100AB000016001684FF07F4393FAA3F3FA69B3FA38
:100AC00083F321F07F419A401143016018E04448CC
:100AD000001D026822F460420A43026001684FF080
:100AE0007F4393FAA3F3FA69B3FA83F321F07F41CA
:100AF0009A4011430160386A00F046FC0028CFD1CB
:100B00004FF4604191FAA1F1386AB1FA81F1C8401D
:100B10004FF40041401C8140314808300068F02209
:100B200000F0F00001E070E040E092FAA2F2B2FAC8
:100B300082F2D0402D4A105CC1402D480160002057
:100B4000FFF78AFC61E000BFFFF76CFC0099401AD8
:100B500002287CD89AFAAAF0B0FA80F040F020007F
:100B6000400902D0306801E0BCE128689AFAAAF195
:100B7000B1FA81F101F01F0104FA01F10842E3D05A
:100B80001748001D01683A6A21F460411143016071
:100B900001684FF07F4393FAA3F3FA69B3FA83F342
:100BA00021F07F419A40114301602EE090FAA0F0BD
:100BB000B0FA80F048F820B0FFF734FC009005E070
:100BC000FFF730FC0099401A0228C2D89AFAAAF01E
:100BD000B0FA80F040F0200040090BD030680AE005
:100BE0000038024034380240000047422D1B000804
:100BF0000400002028689AFAAAF1B1FA81F101F004
:100C00001F0104FA01F10842DAD13878000753D500
:100C1000786948B394FAA4F0B0FA80F008EB800049
:100C2000C0F88046FFF7FEFB009005E0FFF7FAFBF7
:100C30000099401A02288CD899FAA9F0B0FA80F0ED
:100C400040F04000B4EB501F02D1306801E08EE06C
:100C5000286899FAA9F1B1FA81F101F01F0104FAAB
:100C600001F21042E2D027E094FAA4F1B1FA81F146
:100C700008EB8101C1F880B6FFF7D4FB009005E0D6
:100C8000FFF7D0FB0099401A022870D899FAA9F012
:100C9000B0FA80F040F04000B4EB501F01D1306852
:100CA00000E0286899FAA9F1B1FA81F101F01F0179
:100CB00004FA01F21042E3D1387840077BD59B4813
:100CC0004FF000090068C0000AD49848016841F05C
:100CD0008051016000684FF0010900F080500090E1
:100CE00093480168C90511D4016841F4807101601D
:100CF000FFF798FB009005E0FFF794FB0099401A7E
:100D0000642834D88A480068C005F5D5B868012839
:100D10000AD008B1052811D0286820F48070286016
:100D2000286820F4806002E0286840F48070286021
:100D3000B86848B3FFF776FB00900DE0286840F4F0
:100D400080602860F0E700BFFFF76CFB0099411A54
:100D500041F2883081420AD89AFAAAF0B0FA80F0BB
:100D600040F04000B4EB501F02D1306801E095E044
:100D700028689AFAAAF1B1FA81F101F01F0104FA88
:100D800001F21042E0D022E0FFF74CFB009007E0B8
:100D9000FFF748FB0099411A41F2883081427DD823
:100DA0009AFAAAF0B0FA80F040F04000B4EB501F7D
:100DB00002D1306801E012E028689AFAAAF1B1FA8B
:100DC00081F101F01F0104FA01F21042E0D1B9F102
:100DD000000F04D05548016821F080510160786A05
:100DE000E8B3DFF84891A9F11C09D9F80010C1F364
:100DF0008101032976D002284FF080714FF0007AEC
:100E000058460BD091FAA1F1B1FA81F148F82100CE
:100E1000FFF708FBB046074656466DE04FF080717D
:100E200091FAA1F1B1FA81F18A0042495050FFF7DD
:100E3000F9FAB3468046564606E000BFFFF7F2FADD
:100E4000A0EB0800022854D896FAA6F0B0FA80F079
:100E500040F02000400903D0DBF8000001E061E031
:100E6000286896FAA6F1B1FA81F101F01F0104FA9F
:100E700001F10842E2D1D7E90A103A6BD9F8003003
:100E8000014323F47D031A431143C9F800104FF0C6
:100E9000807090FAA0F0B0FA80F000E029E08100C4
:100EA00024480C50FFF7BEFA074604E0FFF7BAFAF1
:100EB000C01B02281DD896FAA6F0B0FA80F040F0C8
:100EC0002000400902D0DBF8000000E0286896FA14
:100ED000A6F1B1FA81F101F01F0104FA01F1084213
:100EE000E4D01FE020E000BFFFF79CFAC01B0228FF
:100EF00002D90320BDE8F88F96FAA6F0B0FA80F088
:100F000040F02000400902D0D8F8000000E0286836
:100F100096FAA6F1B1FA81F101F01F0104FA01F18C
:100F20000842E1D10020E5E70120E3E72438024050
:100F3000007000400000474270B5040004D094F8EF
:100F40005100002510B106E0012070BD84F850501A
:100F5000204600F033F8022084F851002068016830
:100F600021F040010160D4E901010843D4E90312F2
:100F70001143084361690843218B01F40071084360
:100F8000E1690843216A0843A16A084321680860AF
:100F9000A069042101EA1040616A084321684860A1
:100FA0002168E06A08612068C16921F40061C161BB
:100FB0006565012084F85100002070BD10B586B031
:100FC000044614216846FFF7D0F813492068884288
:100FD00020D11248016841F480510160006800F49A
:100FE000805005900D48001F016841F0010101602B
:100FF0000068694600F001000590E02000900220A2
:1010000001900020029003200390052004900448E2
:10101000FFF726F906B010BD00300140203802402D
:10102000000002402DE9F843044690F8510098462C
:1010300001286ED139B332B394F85000012868D03A
:10104000012684F85060122084F85100002565655F
:101050002163A286E286E564A564A563A587E5878A
:10106000A06A7703B84209D12068016821F40051D1
:1010700001602068016841F400510160A068B0F58A
:10108000004F03D007E00120BDE8F8832068016825
:1010900041F48041016020680168490603D4016879
:1010A00041F040010160E0680028606804D0D0B1E0
:1010B000E08E012817D020E010B1E08E012808D181
:1010C000206B411C216321680078C860E08E401EBF
:1010D000E086E08EF0B1434600220221204600F077
:1010E00007FAA0B9ECE7206B21680088C860206B84
:1010F000801C2063E08E401EE086E08E50B14346A7
:1011000000220221204600F0F3F90028EBD0032052
:10111000BAE726E0A06AB84204D12068016841F429
:1011200080510160434600220221204600F0E0F990
:1011300030B9434601228021204600F0D9F920B180
:10114000606D40F020006065E1E7A06818B9206894
:10115000C1688068009084F8516084F85050002085
:1011600092E7022090E710B5401EB0F1807F01D3D6
:10117000012010BD4FF0E02460610F21601700F0E6
:10118000F1F80020A06107202061002010BD70B59B
:10119000040004D094F83900002510B106E00120C5
:1011A00070BD84F83850204600F020F8022084F802
:1011B00039002068C16821F40051C160204600F068
:1011C00041FA2068016921F4904101612068416978
:1011D00021F02A0141612068C16841F40051C160D9
:1011E000E563012084F83900002070BD10B586B099
:1011F000044614216846FEF7B8FF13492068884268
:1012000020D11248016841F400310160006800F407
:10121000003005900D480838016841F00101016077
:101220000068694600F0010005900C200090022043
:1012300001900020029003200390072004900448AE
:10124000FFF70EF806B010BD0044004024380240FD
:1012500000000240FEE70000F0B587B014216846A8
:10126000FEF783FF2B48016841F00101016001682E
:1012700001F001010591016841F00401016001687C
:1012800001F004010591016841F00201016000686C
:10129000214E00F002004FF46245059000222946DD
:1012A0003046FFF7BAF81D4F002240213846FFF7BD
:1012B000B4F8102000901A480024CDE901046946D2
:1012C0001848FEF7CDFF4FF47440CDE9000469469D
:1012D00038460294FEF7C4FF4FF4C850CDE900042D
:1012E000694630460294FEF7BBFF00950125CDE923
:1012F0000154694630460394FEF7B2FF4020009047
:10130000CDE90154694638460394FEF7A9FF07B0BA
:10131000F0BD00001C380240000002400004024002
:1013200000001110000802400C480B494FF40072F5
:1013300001604FF48271416000218160C1600161F0
:10134000C0E905122822C0E90721416281620A2111
:10135000C162FFF7F1BD000000300140080000202D
:10136000FEE770470907090E002806DA00F00F00B3
:1013700000F1E02080F8141D704700F1E02080F8B3
:10138000001470477047000038B51C4900230968F5
:101390001B4A11F0F00F23D118491C310C68E500ED
:1013A000184C03D5216801F4C0540EE00D6845F0D7
:1013B00080550D600D6805F08055009524680D6816
:1013C00004F4C05425F080550D60B4F5C05F07D11A
:1013D000B0F5404F04D11068012340F004001060C4
:1013E000106820F0010018431060106800F0010040
:1013F000984201D0012038BD002038BD0838024095
:10140000003C02400070004010B501225102054826
:10141000FFF703F80122BDE8104040210248FEF723
:10142000FCBF000000000240000402402DE9FC4126
:1014300017460D46DDE908121C468046FEF7B4FE4D
:10144000284E002240213046FEF7E7FF26A00A235F
:1014500000680090280A8DF802008DF803500122E0
:1014600069464046FFF7DEFD012240213046FEF787
:10147000D4FF0120FEF7E8FE002240213046FEF7AF
:10148000CCFF0A23032240460DF1010103E0391984
:101490000A2301224046FFF7C5FD641EF7D501224D
:1014A00040213046FEF7B9FF0120FEF7CDFE0022B5
:1014B00040213046FEF7B1FF04208DF804000A23D6
:1014C000012201A94046FFF7ADFD0122402130462F
:1014D000FEF7A3FF012251020448FEF79EFFBDE87C
:1014E000FC810000000402400602000000000240EF
:1014F0002DE9F0471D4690460E460446FEF792FF42
:1015000007465FEA08004FF000084FF4005A4FF01A
:10151000010926D034E0681C23D025B1FEF782FFF4
:10152000C01BA8421DD92068416821F0E00141603C
:101530002068016821F040010160A06A504509D18E
:101540002068016821F4005101602068016841F4BD
:101550000051016084F8519084F850800320BDE868
:10156000F0872068806836EA0000D4D10DE0681C5E
:1015700006D0002DD7D0FEF755FFC01BA842D2D809
:101580002068806836EA0000F1D00020E7E7704765
:10159000FEF74EBF10B592B034216846FEF7E5FD68
:1015A00014210DA8FEF7E1FD1148016821F4C05196
:1015B00041F400610160012103910220102100909B
:1015C00000240491CDE9090480040B9000010C90E3
:1015D0006846FFF709F90F200D900320CDE90E04AE
:1015E000109401210DA81194FEF79EFF12B010BDBA
:1015F000007000400F48016841F4807101600D499E
:1016000008310A680C4B1A400A6002680B4B1A40FA
:101610000260026822F480220260086820F47D00E3
:1016200008600020091D086005494FF0006008604F
:1016300070470000003802400CC0FF88FEFFFEEE3D
:1016400008ED00E02DE9F041044600680169E26818
:1016500021F44051114301612169A068E269084306
:101660006169114308432168CA6849F20C639A43CF
:101670000243CA6020684169A26921F440711143A4
:101680004161E1696425B1F5004F954821684FF04B
:1016900032083DD081427AD1FFF748F800EBC00113
:1016A00001EB001061688900B0FBF1F6FFF73EF82E
:1016B00000EBC00101EB001061688900B0FBF1F0A4
:1016C000B0FBF5F06FF01801484306EB800108EB22
:1016D0000110B0FBF5F000F0F006FFF727F800EB83
:1016E000C00101EB001061688900B0FBF1F0B0FBB4
:1016F000F5F006EB0016FFF719F800EBC00101EB5F
:10170000001061688900B0FBF1F7FFF70FF8D0E037
:1017100081423DD1FFF70AF800EBC00101EB001058
:1017200061684900B0FBF1F0B0FBF5F00601FEF78F
:10173000FDFF00EBC00101EB001061684900B0FB48
:10174000F1F7FEF7F3FF00EBC00101EB0010616859
:101750004900B0FBF1F0B0FBF5F06FF01801484321
:1017600007EB800108EBC100B0FBF5F000F0F800DA
:1017700006EB4006FEF7DAFF00EBC00101EB0010BC
:1017800061684900B0FBF1F7FEF7D0FF3CE055E09F
:10179000FEF7B4FF00EBC00101EB001061684900E7
:1017A000B0FBF1F0B0FBF5F00601FEF7A7FF00EB90
:1017B000C00101EB001061684900B0FBF1F7FEF7D2
:1017C0009DFF00EBC00101EB001061684900B0FB18
:1017D000F1F0B0FBF5F06FF01801484307EB800122
:1017E00008EBC100B0FBF5F000F0F80006EB400696
:1017F000FEF784FF00EBC00101EB001061684900B7
:10180000B0FBF1F7FEF77AFF00EBC00101EB00102F
:1018100061684900B0FBF1F0B0FBF5F06FF0180122
:10182000484307EB800108EBC100B0FBF5F000F086
:101830000700216830448860BDE8F081FEF75EFF54
:1018400000EBC00101EB001061688900B0FBF1F60C
:10185000FEF754FF00EBC00101EB00106168890046
:10186000B0FBF1F0B0FBF5F06FF01801484306EB68
:10187000800108EB0110B0FBF5F000F0F006FEF778
:101880003DFF00EBC00101EB001061688900B0FB77
:10189000F1F0B0FBF5F006EB0016FEF72FFF00EBC2
:1018A000C00101EB001061688900B0FBF1F7FEF7A1
:1018B00025FF00EBC00101EB001061688900B0FB5F
:1018C000F1F0B0FBF5F06FF01801484307EB800131
:1018D00008EB0110B0FBF5F000F00F00A9E70000E5
:1018E00000380140FEE702E008C8121F08C1002AC4
:1018F000FAD170477047002001E001C1121F002A91
:10190000FBD170471060516070470860704700005D
:10191000F2B0FEF795FDFFF73DFEFFF79DFCFFF7E8
:1019200003FD794C7748002520604FF4E130C4E98D
:1019300001050C20E560C4E90450A5612046E5617D
:10194000FFF725FCA4F15800FFF75EFDC82102A8AF
:10195000FEF70BFCC82134A8FEF707FC68956695D6
:101960006A4868A96795FFF7D0FF0525042368AA90
:101970001946A4F15800CDE90045FFF757FD0120B5
:10198000FEF762FC624868A9FFF7BFFF042368AA5C
:101990000021A4F15800CDE90045FFF747FD0120E3
:1019A000FEF752FC5B4868A9FFF7AFFF042368AA63
:1019B0000821A4F15800CDE90045FFF737FD0120CB
:1019C000FEF742FC554E66AA53483146FFF79AFF90
:1019D000082366AA6421A4F15800CDE90045FFF769
:1019E00025FD0120FEF730FC33208DF8A4010123F2
:1019F00069AAC821A4F15800CDE90045FFF716FDFA
:101A00000120FEF721FC02208DF8A80101236AAA1B
:101A10004FF49671A4F15800CDE90045FFF706FD9B
:101A20000120FEF711FC66AA3D483146FFF76AFF28
:101A3000082366AA4FF4C871A4F15800CDE9004507
:101A4000FFF7F4FC0120FEF7FFFBD3268DF8AC6115
:101A500001236BAA4FF4FA71A4F15800CDE90045B7
:101A6000FFF7E4FC0120FEF7EFFB8DF8B0610123E6
:101A70006CAA4FF41671A4F15800CDE90045FFF7A8
:101A8000D5FC0120FEF7E0FB01268DF8B46133465A
:101A90006DAA4FF42F71A4F15800CDE90045FFF76E
:101AA000C5FC0120FEF7D0FBA9208DF8BC01012365
:101AB0006FAA4FF44871A4F15800CDE90045FFF733
:101AC000B5FC0120FEF7C0FB8DF8C061012370AAB0
:101AD0004FF46171A4F15800CDE90045FFF7A6FC71
:101AE0000120FEF7B1FB03208DF8B80101236EAA97
:101AF0004FF47A71A4F15800CDE90045FFF796FC48
:101B0000FEE70000004400406000002000E00A44BE
:101B10003333DE4366A6A6431DE90C5CFCC142419B
:101B2000DA386261030406080C1018203000000047
:101B3000000000000001020304060708090000007D
:101B40000001020304000000681B000800000020E0
:101B500008000000E6180008701B000808000020BC
:101B600098040000F61800080000000068FF1F003D
:0400000508000125C9
:00000001FF
