:020000040800F2
:10000000A80400203901000803180008D5160008CC
:1000100001180008C1060008CF1C000800000000FD
:10002000000000000000000000000000E5180008CB
:10003000C30600080000000025180008E7180008A3
:100040005301000853010008530100085301000840
:100050005301000853010008530100085301000830
:100060005301000853010008CD06000853010008A1
:100070005301000853010008530100085301000810
:100080005301000853010008530100085301000800
:1000900053010008530100085301000853010008F0
:1000A00053010008530100085301000853010008E0
:1000B00053010008530100085301000853010008D0
:1000C00053010008530100085301000853010008C0
:1000D00053010008530100085301000853010008B0
:1000E000C506000853010008530100085301000829
:1000F00053010008000000005301000853010008EC
:10010000530100085301000853010008530100087F
:1001100053010008530100085301000800000000CB
:1001200053010008DFF80CD000F0B8FA004800478F
:100130005D260008A80400200648804706480047BE
:10014000FEE7FEE7FEE7FEE7FEE7FEE7FEE7FEE787
:10015000FEE7FEE74D190008250100082DE9F05FD4
:100160000546002092469B46884606468146402426
:100170001BE0284641464746224600F0A0F9534678
:100180005A46C01A914110D311461846224600F033
:1001900087F92D1A67EB01084F46224601200021FE
:1001A00000F07EF917EB00094E41201EA4F1010476
:1001B000DFDC484631462A464346BDE8F09FD2B2CE
:1001C00001E000F8012B491EFBD270470022F6E740
:1001D00010B513460A4604461946FFF7F0FF2046BD
:1001E00010BD2DE9FE4F804681EA0300C00F0C468A
:1001F000009021F0004123F00045B8EB0200A94136
:1002000005D24046214690461C460B46024623F046
:100210000040104347D0270DC7F30A00C3F30A512B
:100220000290401A019040286BDAC3F3130040F4A7
:10023000801B0098924620B10023D2EB030A63EBA7
:100240000B0B01985946C0F14002504600F028F9C6
:1002500006460D4650465946019A00F040F910EB0B
:1002600008006141002487EA115284EAE7731A43C7
:1002700040D0009A62B3019A012A4FEA075215DC76
:10028000001B61EB02014FF0004202EA0752CDE988
:100290000042001C41F5801132462B4600F040F927
:1002A00003B0BDE8F08F40462146F9E7001B61EB43
:1002B0000201001C41F5801300185B412018A2F5D3
:1002C000001747EB030140EAD570B6196D4111E004
:1002D0006D084FEA360645EAC0754FEA0752001B23
:1002E00061EB0201001C41F5801149084FEA300022
:1002F0000019514132462B4603B0BDE8F04F00F0E3
:1003000000B90098012240000023D0EB020263EB09
:10031000E073009821464FEAE074B8EB000061EB0F
:100320000401E9E783F000435BE781F0004158E70F
:100330002DE9FE4F81EA030404F0004421F000415E
:1003400000944FF0000B23F0004350EA01045ED00C
:1003500052EA03045BD0C3F30A54C1F30A552C4498
:10036000A4F2F3340194A0FB0254C1F3130141F44D
:100370008011C3F3130343F4801301FB024400FB19
:10038000034E840A970A44EA815447EA8357A4FB40
:10039000076802958D0A05FB07854FEA932C04FB3D
:1003A0000C542705029D4FEA065847EA1637B5EB6D
:1003B00008056EEB070C870E920E47EA811742EA9A
:1003C0008312A7FB0201B6EB0B0164EB00042B0DBB
:1003D00043EA0C335E1844EB1C50DA465146E7FB07
:1003E0000201C5F313044FEA0B3343EA14534FEAF7
:1003F0000432019C43EA0603A4F10C040294009C1D
:10040000CDE900B400F08CF803B0BDE8F08F002017
:100410000146F9E7C1F30A52C1F3130140F2FF3379
:1004200041F480119A4202DA00200146704740F2FE
:1004300033439A42A2F2334202DC524200F03FB808
:1004400000F02EB830B5041E71F1000404DB4FF04B
:100450000044404264EB0101141E73F1000405DB0B
:100460001C464FF00043524263EB0403994208BF1D
:10047000904230BD30B50B460146002020220124B9
:1004800009E021FA02F59D4205D303FA02F5491B62
:1004900004FA02F52844151EA2F10102F1DC30BD78
:1004A000202A04DB203A00FA02F100207047914034
:1004B000C2F1200320FA03F3194390407047202A29
:1004C00004DB203A21FA02F00021704721FA02F3FE
:1004D000D040C2F120029140084319467047202ABB
:1004E00006DBCB17203A41FA02F043EAE07306E05C
:1004F00041FA02F3D040C2F120029140084319466C
:10050000704710B5141E73F1000408DA401C41F165
:10051000000192185B411A4301D120F0010010BD87
:100520002DE9F04D92469B4611B1B1FA81F202E0FD
:10053000B0FA80F220329046FFF7B2FF04460F4631
:1005400040EA0A0041EA0B0153465A46084313D0D9
:10055000114653EA010019D0C8F140025046FFF796
:10056000AEFF05460E46504659464246FFF798FFF5
:10057000084305D0012004E020463946BDE8F08D4F
:100580000020054346EAE0762C4337430A9863058A
:10059000E40AA0EB08000022FD0A44EA47540A30AE
:1005A00002D500200146E9E7010510196941DDE99E
:1005B000084500196941BDE8F04DA2E72DE9F04D6D
:1005C00081EA030404F0004B21F0004514464FF08B
:1005D000000A23F0004150EA050220D054EA01024B
:1005E0001DD0C5F30A570246C5F31303C1F3130028
:1005F000C1F30A5640F4801543F48013A7EB0608B4
:10060000101BD64608F2FD3873EB050002D308F143
:10061000010801E092185B41B8F1000F03DA0020F5
:100620000146BDE8F08D00204FF480110646844657
:100630000EE0171B73EB050705D3121B63EB0503D5
:1006400006434CEA010C49084FEA300092185B411E
:1006500050EA0107EDD152EA030012D082EA040009
:1006600083EA0501084305D0101BAB4106D20122E5
:10067000002306E000224FF0004302E06FF0010289
:1006800053101AEB06004CEB085110EB0A0041EB3B
:100690000B01BDE8F04DFFF734BF0000064C074DDD
:1006A00006E0E06840F0010394E807009847103442
:1006B000AC42F6D3FFF73AFDE4270008042800080F
:1006C000FEE770474FF4005000F00AB8102000F029
:1006D00007B80000014901200860704700000020B1
:1006E000044910B50A68024202D00860FFF7F2FF21
:1006F00010BD0000140401402DE9F84FDFF880B16F
:1007000000234FF0010C4FF0030A4FF00F090BF1DB
:10071000040EAEE00CFA03F614EA060270D04C6840
:10072000022C01D0122C11D1DC0800EB84073C6AAA
:100730005D07ED0E09FA05F824EA0804D1F81080E7
:1007400008FA05F848EA0408C7F8208007685D0041
:1007500091F804800AFA05F408F00308A74308FAA0
:1007600005F848EA0708C0F800804F68012F05D057
:10077000022F03D0112F01D0122F11D18768D1F889
:100780000C80A74308FA05F848EA0708C0F8088073
:100790004768B7430E79C6F300169E403E43466055
:1007A000C668A6438C68AC403443C4604C68E4001F
:1007B0005ED5344C256845F001052560246823F09A
:1007C000030504F0010400942F4C2E19B4689D0712
:1007D0002F0F09FA07F5AC432C4DA84201D1002593
:1007E0001FE02B4DA84201D101251AE0294DA84256
:1007F00001D1022515E0284DA84202D1032510E0C1
:1008000036E0264DA84201D104250AE0244DA84235
:1008100001D1052505E0234DA84201D1062500E0C0
:100820000725BD402543B560DBF800405D464E68B6
:100830009443F60300D514432C60DEF8004075465F
:100840004E689443B60300D514432C600C4D083514
:100850002C684E689443F60200D514432C60084D72
:100860000C352C684E689443B60200D514432C60B6
:100870005B1C0A681446DA407FF44CAFBDE8F88F81
:100880000004014020380240000001400000024006
:100890000004024000080240000C02400010024028
:1008A00000140240001802400AB181617047090437
:1008B000FBE70000014800687047000004000020CA
:1008C00002480168491C01607047000004000020D4
:1008D00010B5032000F06AF8002000F005F800F0E1
:1008E00017F8002010BD000010B5044607484FF46B
:1008F0007A710068B0FBF1F000F008FE002221469A
:10090000501E00F033F8002010BD00000800002049
:100910000F4882B0016841F000410160016801F0B8
:1009200000410091011F0A6842F001020A60096853
:1009300001F001010091016841F0805101600068FF
:1009400000F080500090072002B000F02FB80000A7
:100950002438024000F01F0201219140400980002C
:1009600000F1E020C0F8001170470000F0B40E4B19
:100970001B680C46C3F30223C3F10705042D00D9FD
:100980000425191D072901D2002300E0DB1E0126E2
:1009900006FA05F1491E214099409E40761E1640F8
:1009A0003143F0BC00F02EBF0CED00E0064900F032
:1009B000070208684FF6FF03184040EA0220034A86
:1009C00010430860704700000CED00E00000FA05DD
:1009D000094A136823F003030343136007480268BE
:1009E00022F004020260012903D040BF20BF20BFD3
:1009F000704730BF704700000070004010ED00E00D
:100A00002DE9F047DFF8BC8105460E46D8F8000016
:100A100000F00100B04214D2012E05D1D8F8001028
:100A200041F00401C8F80010D8F8001021F00101CD
:100A30003143C8F80010D8F8000000F00100B042BF
:100A400071D12878604C800705D52068A96820F00E
:100A5000F000084320602878C00771D05A4A5A4BEA
:100A600069680120083A2C33022910D003292ED0BE
:100A700001292FD05FEA402797FAA7FCBCFA8CFC2B
:100A80004CF0200C5FEA5C1C04D0126803E04FF4C9
:100A90000037F1E71A6897FAA7F3B3FA83F303F084
:100AA0001F039840024262D0206820F003000843F0
:100AB0002060FFF7FFFE6968074641F2883002298F
:100AC00010D003291CD00129814626D034E04FF0F4
:100AD0000077D1E70227CFE7FFF7ECFEC11B4945BE
:100AE00001D926E081462068C0F381000228F3D1B5
:100AF00026E000BFFFF7DEFEC11B494501D918E023
:100B000081462068C0F381000328F3D118E000BFBC
:100B1000FFF7D0FEC11B49450BD82068C0F3810008
:100B20000128F5D10CE022E0FFF7C4FEC11B4945C6
:100B300002D90320BDE8F087206810F00C0FF3D134
:100B4000D8F80010404601F00101B14211D9012E40
:100B500003D1016841F004010160016821F0010145
:100B600031430160006800F00100B04201D0012073
:100B7000E0E72878400705D52068E96820F4E060C0
:100B8000084320602878000706D52068296920F4EA
:100B9000605040EAC100206000F04CF82168F0226B
:100BA00092FAA2F201F0F001B2FA82F2D140074AC1
:100BB000515CC840064908600020FFF795FE002000
:100BC000B8E70000003C024008380240C92700088E
:100BD0000800002008480949006809684FF4E062ED
:100BE00092FAA2F201F4E061B2FA82F2D140044A30
:100BF000515CC840704700000800002008380240DF
:100C0000D927000808480949006809684FF460526C
:100C100092FAA2F201F46051B2FA82F2D140044A8F
:100C2000515CC840704700000800002008380240AE
:100C3000D92700081E4A116801F00C00042813D0BF
:100C4000082813D00C2813D0101F006800F460414E
:100C50004FF4604090FAA0F0B0FA80F0C1404FF439
:100C60000040491C8840704712487047124870473E
:100C70004FF4701393FAA3F301F47010B3FA83F3F3
:100C8000D8400E4B01F440011268185C4FF4400349
:100C900093FAA3F3B3FA83F3D940491CD20301D5E5
:100CA000054A00E0034A5043B0FBF1F070470000F2
:100CB000083802400024F40000127A00C02700081F
:100CC0002DE9F84F07460078FB4EFC4DC0074FF06A
:100CD000010428D0F848083001684FF40038C1F307
:100CE0008101022907D00168C1F3810103291BD1C9
:100CF0000068C00318D598FAA8F0B0FA80F040F068
:100D00002000400901D0306800E0286898FAA8F176
:100D1000B1FA81F101F01F0104FA01F108425CD03F
:100D2000786800287BD058E0786801280AD008B19C
:100D3000052811D0306820F480303060306820F40D
:100D4000802002E0306840F480303060786828B35A
:100D5000FFF7B0FD81460BE0306840F48020306042
:100D6000F0E700BFFFF7A6FDA0EB0900642872D8EA
:100D700098FAA8F0B0FA80F040F02000400901D0C5
:100D8000306800E0286898FAA8F1B1FA81F101F022
:100D90001F0104FA01F10842E4D01EE0FFF78AFDCA
:100DA000814605E0FFF786FDA0EB09006428DED848
:100DB00098FAA8F0B0FA80F040F02000400901D085
:100DC000306800E0286898FAA8F1B1FA81F101F0E2
:100DD0001F0104FA01F10842E4D13878DFF8E0821B
:100DE00080074FF0000B4FF002095FD5B248083082
:100DF0000168C1F38101012907D00168C1F38101B4
:100E000003291CD10068C00319D499FAA9F0B0FADB
:100E100080F040F02000400902D0306801E086E018
:100E2000286899FAA9F1B1FA81F101F01F0104FAD9
:100E300001F108422BD0F868012878D127E0F86842
:100E4000A8B394FAA4F0B0FA80F048F82040FFF775
:100E500031FD824606E066E1FFF72CFDA0EB0A00BB
:100E6000022884D899FAA9F1B1FA81F141F0200160
:100E7000490901D0316800E0296899FAA9F0B0FA6F
:100E800080F000F01F0004FA00F00142E4D08A482C
:100E9000001D01684FF4F85393FAA3F33A69B3FACB
:100EA00083F321F4F8519A401143016025E0FFE7F4
:100EB00094FAA4F1B1FA81F148F821B0FFF7FAFCF5
:100EC000824605E0FFF7F6FCA0EB0A000228C8D82E
:100ED00099FAA9F0B0FA80F040F02000400901D062
:100EE000306800E0286899FAA9F1B1FA81F101F0BF
:100EF0001F0104FA01F10842E4D138784FF4007A76
:100F0000C0067CD56C480830006810F00C0F0FD07C
:100F1000B9694FF48070002972D090FAA0F0B0FA4D
:100F200080F048F82040FFF7C5FC00907EE087E0A5
:100F30009AFAAAF0B0FA80F040F02000400901D0FF
:100F4000306800E028689AFAAAF1B1FA81F101F05C
:100F50001F0104FA01F1084202D0B86900286FD0DD
:100F60005548396A001D006800F4604081421AD972
:100F7000084600F059FC002862D14F48001D016866
:100F80003A6A21F460411143016001684FF07F43E8
:100F900093FAA3F3FA69B3FA83F321F07F419A40FD
:100FA0001143016018E04448001D026822F46042C9
:100FB0000A43026001684FF07F4393FAA3F3FA6992
:100FC000B3FA83F321F07F419A4011430160386AFC
:100FD00000F02AFC0028CFD14FF4604191FAA1F132
:100FE000386AB1FA81F1C8404FF40041401C814099
:100FF000314808300068F02200F0F00001E070E0B5
:1010000040E092FAA2F2B2FA82F2D0402D4A105C8D
:10101000C1402D4801600020FFF766FC61E000BF81
:10102000FFF748FC0099401A02287CD89AFAAAF0E7
:10103000B0FA80F040F02000400902D0306801E0B2
:10104000BCE128689AFAAAF1B1FA81F101F01F0116
:1010500004FA01F10842E3D01748001D01683A6A1A
:1010600021F460411143016001684FF07F4393FA1E
:10107000A3F3FA69B3FA83F321F07F419A40114355
:1010800001602EE090FAA0F0B0FA80F048F820B0AD
:10109000FFF710FC009005E0FFF70CFC0099401AE8
:1010A0000228C2D89AFAAAF0B0FA80F040F02000E4
:1010B00040090BD030680AE0003802403438024062
:1010C00000004742C92700080800002028689AFA53
:1010D000AAF1B1FA81F101F01F0104FA01F108420D
:1010E000DAD13878000753D5786948B394FAA4F078
:1010F000B0FA80F008EB8000C0F88046FFF7DAFB1A
:10110000009005E0FFF7D6FB0099401A02288CD822
:1011100099FAA9F0B0FA80F040F04000B4EB501F0B
:1011200002D1306801E08EE0286899FAA9F1B1FA9D
:1011300081F101F01F0104FA01F21042E2D027E030
:1011400094FAA4F1B1FA81F108EB8101C1F880B6FB
:10115000FFF7B0FB009005E0FFF7ACFB0099401AE9
:10116000022870D899FAA9F0B0FA80F040F0400057
:10117000B4EB501F01D1306800E0286899FAA9F15A
:10118000B1FA81F101F01F0104FA01F21042E3D13A
:10119000387840077BD59B484FF000090068C000B5
:1011A0000AD49848016841F08051016000684FF00E
:1011B000010900F08050009093480168C90511D4DE
:1011C000016841F480710160FFF774FB009005E055
:1011D000FFF770FB0099401A642834D88A480068E9
:1011E000C005F5D5B86801280AD008B1052811D086
:1011F000286820F480702860286820F4806002E06D
:10120000286840F480702860B86848B3FFF752FB44
:1012100000900DE0286840F480602860F0E700BF8F
:10122000FFF748FB0099411A41F2883081420AD801
:101230009AFAAAF0B0FA80F040F04000B4EB501FE8
:1012400002D1306801E095E028689AFAAAF1B1FA73
:1012500081F101F01F0104FA01F21042E0D022E016
:10126000FFF728FB009007E0FFF724FB0099411AE5
:1012700041F2883081427DD89AFAAAF0B0FA80F023
:1012800040F04000B4EB501F02D1306801E012E0A2
:1012900028689AFAAAF1B1FA81F101F01F0104FA63
:1012A00001F21042E0D1B9F1000F04D055480168B5
:1012B00021F080510160786AE8B3DFF84891A9F124
:1012C0001C09D9F80010C1F38101032976D0022846
:1012D0004FF080714FF0007A58460BD091FAA1F18F
:1012E000B1FA81F148F82100FFF7E4FAB046074669
:1012F00056466DE04FF0807191FAA1F1B1FA81F19B
:101300008A0042495050FFF7D5FAB3468046564608
:1013100006E000BFFFF7CEFAA0EB0800022854D881
:1013200096FAA6F0B0FA80F040F02000400903D011
:10133000DBF8000001E061E0286896FAA6F1B1FA56
:1013400081F101F01F0104FA01F10842E2D1D7E96D
:101350000A103A6BD9F80030014323F47D031A4395
:101360001143C9F800104FF0807090FAA0F0B0FA65
:1013700080F000E029E0810024480C50FFF79AFA41
:10138000074604E0FFF796FAC01B02281DD896FA1C
:10139000A6F0B0FA80F040F02000400902D0DBF85F
:1013A000000000E0286896FAA6F1B1FA81F101F098
:1013B0001F0104FA01F10842E4D01FE020E000BF61
:1013C000FFF778FAC01B022802D90320BDE8F88F86
:1013D00096FAA6F0B0FA80F040F02000400902D062
:1013E000D8F8000000E0286896FAA6F1B1FA81F179
:1013F00001F01F0104FA01F10842E1D10020E5E704
:101400000120E3E72438024000700040000047421A
:101410004FF0E020016941F002010161704770B5B1
:10142000040004D094F85100002510B106E001201A
:1014300070BD84F85050204600F034F8022084F843
:1014400051002068016821F040010160D4E90101E8
:101450000843D4E903121143084361690843218B0F
:1014600001F400710843E1690843216A0843A16A55
:10147000084321680860A069042101EA1040616AFC
:101480000843216848602168E06A08612068C169F2
:1014900021F40061C1616565012084F851000020DC
:1014A00070BD000010B586B0044614216846FEF7F2
:1014B0008DFE13492068884220D11248016841F40A
:1014C00080510160006800F4805005900D48001FB5
:1014D000016841F0010101600068694600F0010007
:1014E0000590E0200090022001900020029003204F
:1014F0000390052004900448FFF7FEF806B010BDE5
:1015000000300140203802400000024010B5401E6B
:10151000B0F1807F01D3012010BD4FF0E024606165
:101520000F21601700F06EF90020A06107202061F4
:10153000002010BD4FF0E020016921F0020101619F
:10154000704770B5040004D094F83900002510B13C
:1015500006E0012070BD84F83850204600F020F8E5
:10156000022084F839002068C16821F40051C1606C
:10157000204600F013FA2068016921F490410161CE
:101580002068416921F02A0141612068C16841F465
:101590000051C160E563012084F83900002070BD6E
:1015A00010B586B0044614216846FEF70FFE1349B5
:1015B0002068884220D11248016841F4003101605E
:1015C000006800F4003005900D480838016841F0CB
:1015D000010101600068694600F0010005900C20DF
:1015E0000090022001900020029003200390072029
:1015F00004900448FFF780F806B010BD0044004096
:1016000024380240000002402DE9F047044690F8DB
:10161000390099460D46012801D0222858D12DB312
:1016200022B394F83800012852D0012684F838609B
:101630000027E76394F8390022281AD05FF01200DF
:1016400084F83900A284E2844FF48058E08C4B4641
:10165000401EE084A0684FF0000240454FF080013A
:10166000204613D100F0EAFA08BB04E00120BDE8EF
:10167000F0873220E4E728882168C0F3080048603A
:10168000206908B16D1C08E0AD1C06E000F0D6FA38
:1016900068B9216815F8010B4860E08C0028D5D1A5
:1016A0004B4600224021204600F0C8FA08B1032032
:1016B000DDE794F83900322806D084F8396000BF9D
:1016C00084F838700020D2E7222084F83900F7E748
:1016D0000220CCE7FEE70000F0B587B01421684691
:1016E000FEF774FD3348016841F0040101600168B0
:1016F00001F004010591016841F0010101600168F8
:1017000001F001010591016841F0020101600068EA
:10171000294E00F002004FF4624505900022294650
:101720003046FFF7C1F8254F002240213846FFF729
:10173000BBF842F21000009021480024CDE90104DA
:1017400069462048FEF7D8FF4FF47440CDE9000405
:10175000694638460294FEF7CFFF4FF4C850CDE9F2
:101760000004694630460294FEF7C6FF0095012545
:10177000CDE90154694630460394FEF7BDFF402091
:101780000090CDE90154694638460394FEF7B4FF52
:10179000002211460A20FFF7E9F80A20FFF7DAF8DD
:1017A000002211462820FFF7E1F82820FFF7D2F8A1
:1017B00007B0F0BD1C3802400000024000040240A7
:1017C00000001110000802400C480B494FF4007251
:1017D00001604FF48271416000218160C16001614C
:1017E000C0E905122822C0E90721416281620A216D
:1017F000C162FFF714BE0000003001400C00002061
:10180000FEE770470907090E002806DA00F00F000E
:1018100000F1E02080F8141D704700F1E02080F80E
:10182000001470477047000038B51C490023096850
:101830001B4A11F0F00F23D118491C310C68E50048
:10184000184C03D5216801F4C0540EE00D6845F032
:1018500080550D600D6805F08055009524680D6871
:1018600004F4C05425F080550D60B4F5C05F07D175
:10187000B0F5404F04D11068012340F0040010601F
:10188000106820F0010018431060106800F001009B
:10189000984201D0012038BD002038BD08380240F0
:1018A000003C02400070004010B5FFF743FE0121EC
:1018B0000020FFF78DF8BDE81040FFF7A9BD00003C
:1018C00010B5012251020548FEF7EEFF0122BDE8E6
:1018D000104040210248FEF7E7BF00000000024030
:1018E000000402407047FEF7EBBF000010B592B055
:1018F00034216846FEF76AFC14210DA8FEF766FC49
:101900001148016821F4C05141F4006101600121D6
:10191000039102201021009000240491CDE90904D4
:1019200080040B9000010C906846FFF7C9F90F2066
:101930000D900320CDE90E04109401210DA81194FF
:10194000FFF75EF812B010BD007000400F4801684C
:1019500041F4807101600D4908310A680C4B1A404E
:101960000A6002680B4B1A400260026822F480226F
:101970000260086820F47D0008600020091D0860EE
:1019800005494FF0006008607047000000380240D1
:101990000CC0FF88FEFFFEEE08ED00E02DE9F041EF
:1019A000044600680169E26821F440511143016175
:1019B0002169A068E269084361691143084321680D
:1019C000CA6849F20C639A430243CA6020684169BD
:1019D000A26921F4407111434161E1696425B1F5C7
:1019E000004F954821684FF032083DD081427AD1AE
:1019F000FFF708F900EBC00101EB001061688900F6
:101A0000B0FBF1F6FFF7FEF800EBC00101EB0010B0
:101A100061688900B0FBF1F0B0FBF5F06FF01801E0
:101A2000484306EB800108EB0110B0FBF5F000F035
:101A3000F006FFF7E7F800EBC00101EB001061686A
:101A40008900B0FBF1F0B0FBF5F006EB0016FFF7F4
:101A5000D9F800EBC00101EB001061688900B0FB10
:101A6000F1F7FFF7CFF8D0E081423DD1FFF7CAF898
:101A700000EBC00101EB001061684900B0FBF1F020
:101A8000B0FBF5F00601FFF7BDF800EBC00101EB7C
:101A9000001061684900B0FBF1F7FFF7B3F800EB05
:101AA000C00101EB001061684900B0FBF1F0B0FB30
:101AB000F5F06FF01801484307EB800108EBC10017
:101AC000B0FBF5F000F0F80006EB4006FFF79AF8DF
:101AD00000EBC00101EB001061684900B0FBF1F7B9
:101AE000FFF790F83CE055E0FFF774F800EBC00119
:101AF00001EB001061684900B0FBF1F0B0FBF5F0BC
:101B00000601FFF767F800EBC00101EB0010616808
:101B10004900B0FBF1F7FFF75DF800EBC00101EB06
:101B2000001061684900B0FBF1F0B0FBF5F06FF018
:101B30001801484307EB800108EBC100B0FBF5F04A
:101B400000F0F80006EB4006FFF744F800EBC00198
:101B500001EB001061684900B0FBF1F7FFF73AF8BC
:101B600000EBC00101EB001061684900B0FBF1F02F
:101B7000B0FBF5F06FF01801484307EB800108EB6C
:101B8000C100B0FBF5F000F0070021683044886028
:101B9000BDE8F081FFF71EF800EBC00101EB00107B
:101BA00061688900B0FBF1F6FFF714F800EBC001A3
:101BB00001EB001061688900B0FBF1F0B0FBF5F0BB
:101BC0006FF01801484306EB800108EB0110B0FBF1
:101BD000F5F000F0F006FEF7FDFF00EBC00101EBB1
:101BE000001061688900B0FBF1F0B0FBF5F006EB86
:101BF0000016FEF7EFFF00EBC00101EB001061687B
:101C00008900B0FBF1F7FEF7E5FF00EBC00101EB47
:101C1000001061688900B0FBF1F0B0FBF5F06FF0E7
:101C20001801484307EB800108EB0110B0FBF5F009
:101C300000F00F00A9E70000003801402DE9F0474F
:101C40001D4690460E460446FEF734FE07465FEA00
:101C500008004FF000094FF0010808D030E0681C80
:101C600005D095B1FEF726FEC01BA8420DD820680E
:101C7000006836EA0000F2D127E0681C20D025B1C8
:101C8000FEF718FEC01BA8421AD92068C16821F0CF
:101C90008001C1602068C16821F02001C160206816
:101CA000C16821F48071C1602068416921F001019F
:101CB000416184F8398084F838900320BDE8F087CA
:101CC0002068006836EA0000D7D00020F6E7FEE77B
:101CD0000FB41CB50246002007AC00290BD0491EEA
:101CE000CDE90021054B6A462146069800F0DAF856
:101CF000009A002111701CBC5DF814FBD32500086C
:101D000002E008C8121F08C1002AFAD170477047C4
:101D1000002001E001C1121F002AFBD17047000022
:101D20002DE9FF5F82B00021DDE90430020DDDF80E
:101D300040B0034318D044F61050A2F2FF324243A1
:101D40001514119801281FD0A5EB0B00401C5FEA69
:101D5000000A4FF000064E4FDFF83891B04650466B
:101D600015D5CAF1000413E0119801244AA30128F3
:101D700001D16FEA0B010298119AC0E90031C0E964
:101D8000024206B0BDE8F09FCBF10000DFE7044659
:101D90000021404A491842EB0450CDE9001012E0FE
:101DA000E00707D032463B4640464946FEF7C0FAB8
:101DB0008046894632463B4610461946FEF7B8FA39
:101DC00006460F466410002CEAD1DDE90401DDE986
:101DD0000023BAF1000F06DAFEF7AAFA42464B4694
:101DE000FEF7A6FA05E0FEF7E9FB42464B46FEF792
:101DF000E5FB04460E460022284BFEF723FB03D8E2
:101E00004FF0FF30014607E00022254B20463146C7
:101E1000FEF7E7F9FEF7FEFA102409E0002C0ADBD2
:101E20000A220023FEF79AF9039B30321A55641EEA
:101E300050EA0102F2D1641C039AC4F11103144464
:101E4000119A012A03D0012208430DD10AE0084368
:101E500004D000204FF0110B119072E7A3EB0B059B
:101E60006D1E0DE05B4504DD4FF0000205F101053C
:101E700004E003DA4FF00002A5F10105002AECD0DE
:101E800002981199C0E90231C0E9004579E70000E4
:101E9000000014400000F03F300000000000F0435C
:101EA0000000E03F2DE9FF4F95B09B46894606466E
:101EB00000250FE2252877D100242746F84A012182
:101EC000059400E0044316F8013F203B01FA03F0BB
:101ED0001042F7D130782A2811D06FF02F033078D4
:101EE000A0F13002092A16D8059A44F0020402EB48
:101EF000820203EB42021044761C0590EFE759F88A
:101F0000042B0592002A03DA504244F40054059051
:101F100044F00204761C30782E2816D116F8010FF2
:101F200044F004042A280DD06FF02F023078A0F17D
:101F30003003092B09D807EB870302EB4303C718CB
:101F4000761CF3E759F8047B761C30786C280FD0A8
:101F500006DC4C2817D068280DD06A2814D104E07C
:101F6000742810D07A280FD10DE044F400140AE050
:101F700044F4801401E044F440147278824202D1A7
:101F800004F58014761C761C307866280BD013DCA0
:101F9000582877D009DC002875D04528F6D0462887
:101FA000F4D047281AD19DE118E0632835D0642881
:101FB00079D0652812D195E1702873D008DC6728A4
:101FC000F1D069286FD06E280DD06F2806D1B5E00A
:101FD00073282CD0752875D0782874D05A46179954
:101FE00090476D1C75E1C4F30250022809D0032804
:101FF0000DD0D9F8001004280DD00D6009F10409A6
:1020000067E1D9F80010EA17C1E90052F6E7D9F8FC
:1020100000100D80F2E70D70F0E719F8041B8DF841
:10202000001000208DF80100EA46012003E059F875
:1020300004AB4FF0FF3061074FF0000102D40DE018
:1020400008F101018846B9420FDA8045F8DB1AF839
:1020500008100029F4D108E008F101018846814206
:10206000FADB1AF808100029F6D105985B46A0EBB8
:10207000080721463846179A00F094FA284400EBE6
:10208000080507E04DE029E10DE01AF8010B5A467A
:1020900017999047B8F10108F7D25B4621463846B8
:1020A000179A13E142E00A220092C4F302524FF061
:1020B000000A022A08D059F804CB032A4FEAEC712F
:1020C0000AD00DE029E02AE009F1070121F007021A
:1020D000F2E802C1914609E00FFA8CFC4FEAEC717C
:1020E000042A03D14FFA8CFC4FEAEC71002907DA7D
:1020F0000A460021DCF1000C61EB02012D2202E016
:10210000220504D52B228DF80420012203E0E207EA
:1021100001D02022F7E7904659E00A2102E0102280
:102120000DE010214FF0000A00910BE010224FF05B
:10213000000A44F004040827009203E008224FF04C
:10214000000A0092C4F30252022A05D059F804CBC7
:102150000021032A08D009E009F1070121F0070254
:10216000F2E802C1914605E01FFA8CFC042A01D175
:102170000CF0FF0C4FF00008220728D5702806D07D
:10218000009B83F0100353EA0A0305D00EE04022BF
:102190008DF80420012208E05CEA010206D030221A
:1021A0008DF804208DF8050002229046009B83F0F4
:1021B000080353EA0A030AD15CEA010201D162076B
:1021C00005D530228DF804204FF001087F1E5828D5
:1021D00004D034A003900EA802900DE036A0F9E7D9
:1021E00053466046009AFDF7B9FF84460398825C27
:1021F0000298401E029002705CEA0100F0D1029841
:1022000006A9081A00F1200A600702D524F48034D8
:1022100000E00127574502DDA7EB0A0000E000209F
:1022200000EB0A01009005984144401A0590E00334
:1022300006D45B462146179A059800F0B3F9054489
:10224000002706E001A85A46C05D179990476D1C0B
:102250007F1C4745F6DBE0030CD55B462146179A09
:10226000059800F09FF9054404E030205A4617997C
:1022700090476D1C0099481E00900029F5DC08E08D
:10228000029802995A460078491C02911799904782
:102290006D1CBAF10001AAF1010AF1DC65E1000050
:1022A000092801003031323334353637383961622C
:1022B00063646566000000003031323334353637F0
:1022C00038394142434445460000000000F058F9C7
:1022D0000544761C307800287FF4ECAD19B0284610
:1022E000BDE8F08F620700D4062709F1070222F04B
:1022F000070CFCE80223E14603F000485FEA080C03
:1023000002D00FF2702C0DE05FEA045C02D50FF2F0
:10231000682C07E05FEAC47C02D00FF2602C01E079
:10232000AFF2700C4FF0FF3823F00043CDF850C0EF
:1023300065280CD006DC452809D046281DD0472842
:102340003DD13DE0662818D067287ED138E00021D5
:10235000112F01DB112000E0781CCDE9000106A956
:102360000EA8FFF7DDFCDDE90F010E9A03910021B5
:10237000009207F1010A04914DE04FF000400097F0
:10238000CDE9011006A90EA8FFF7CAFCDDE90F028E
:1023900003920E9B11990022DDF80CA00093049289
:1023A00011B9791C00EB010AB7EB0A0004D4C0F1A3
:1023B000FF3007F1010A0490AAEB0700019044E006
:1023C000012F00DA01270021112F01DD112000E08B
:1023D0003846CDE9000106A90EA8FFF7A1FCDDE90A
:1023E0000F010E9A0391002104910092BA46210731
:1023F0000CD40399514500DA8A46BAF1010F05DD84
:10240000009AAAF10101515C302908D0B84202DAE1
:1024100010F1040F06DA0121CDE9011015E0AAF14F
:102420000101E9E7002805DC049901440491AAEBC5
:10243000000102E0411C514500DD8A460499401A22
:10244000401C01904FF000400290200704D40198F6
:10245000504501DBCDF8048000208DF84F00029834
:102460000DF14F07B0F1004F25D02B200E900298B0
:102470004FF0020800280CDA404202902D200E9006
:1024800007E00A210298FDF7F5FF3031029007F8C6
:10249000011DB8F10001A8F10108F2DC0298002842
:1024A000EFD1791E0E980870307800F0200040F0CF
:1024B000450007F8020D12A8C01B00F10708149888
:1024C000007800B1012000EB0A01019801EBE071F6
:1024D00005984144401A401E0590E00306D45B462F
:1024E0002146179A059800F05DF805441498007885
:1024F00018B15A46179990476D1CE00324D55B46E6
:102500002146179A059800F04DF805441CE0049800
:10251000002807DBDDE90301884203DD0098405C09
:10252000179901E0179930205A469047049805F111
:102530000105401C04900198401E019004D12E20FA
:102540005A46179990476D1CBAF10001AAF1010A89
:10255000DDDC05E017F8010B5A46179990476D1C12
:10256000B8F10001A8F10108F4DC5B462146179A96
:102570000598ABE62D0000002B00000020000000B5
:102580002DE9F041044600251E461746880404D470
:1025900005E039462020B0476D1C641EF9D5284659
:1025A000BDE8F0812DE9F041044600251E46904625
:1025B000C80301D5302700E02027880404D505E0B2
:1025C00041463846B0476D1C641EF9D52846BDE823
:1025D000F0814A68002A06D00A68531C0B6010700C
:1025E0004868401E4860704770B54FF4005100784D
:1025F000194C4D008E0006282DD2DFE800F02C0388
:10260000050B1626002221E000222046FEF74CF999
:1026100001220FE000222046FEF746F9012229465A
:102620002046FEF741F9012209E001222046FEF78B
:102630003BF9002229462046FEF736F900223146B2
:102640002046BDE87040FEF72FB901222046FEF774
:102650002BF90022E3E770BD000002409AB064212C
:102660006846FDF7B3FDFEF733F901268DF8646087
:10267000FFF73CF9FFF730F8FFF7A6F840483F496D
:10268000002401604FF4E131C0E901140C21C46061
:10269000C0E904418461C461FEF753FF38485838EB
:1026A000FFF70EF9A0460027364C3D469DF8640022
:1026B00006285DD2DFE800F05C03192E405332A2F9
:1026C00064216846FFF704FB0123642269462C4815
:1026D000FEF79AFF20680025012802D102208DF81C
:1026E0006400002F44D1012742E02AA264216846F9
:1026F000FFF7EEFA0123642269462148FEF784FFC2
:1027000020680027012802D103208DF864002DBB2A
:1027100001252DE022A264216846FFF7D9FA0123A2
:10272000642269461648FEF76FFF206801281FD112
:1027300004208DF864001BE01CA264216846FFF7AA
:10274000C7FA0123642269460D48FEF75DFFFFF7D3
:10275000ABF8206801280BD18DF8646008E00520F3
:102760008DF8640000224FF400511448FEF79CF8E5
:1027700019A8C4F80080FFF737FF97E7004400402E
:1027800064000020000000200D0A505F436F726556
:102790000D0A00000D0A535F436F72650D0A0000B9
:1027A0000D0A5265626F6F740D0A00000D0A536CBA
:1027B00065657020736F6F6E0D0A0000000802409F
:1027C000030406080C101820300000000000000070
:1027D00000010203040607080900000000010203CB
:1027E0000400000004280008000000200C00000085
:1027F000001D0008102800080C0000209C040000A8
:10280000101D0008000000000000000068FF1F000D
:0400000508000125C9
:00000001FF
